:020000040800F2
:100000000000022011CA00085DC4000863C4000893
:1000100069C400086FC4000875C40008000000002F
:100020000000000000000000000000007BC4000889
:1000300089C400080000000097C40008A5C4000897
:1000400061CA000861CA000861CA000861CA0008E4
:1000500061CA000861CA000861CA000861CA0008D4
:1000600061CA000861CA000861CA0008B1C400087A
:10007000C5C40008D9C4000861CA000861CA0008E4
:1000800061CA000861CA000861CA000861CA0008A4
:1000900061CA000861CA000861CA000861CA000894
:1000A00061CA000861CA000861CA000861CA000884
:1000B000EDC4000861CA000861CA000861CA0008EE
:1000C00061CA000861CA000861CA000861CA000864
:1000D00061CA000861CA000861CA000801C50008B9
:1000E00061CA000861CA00080000000061CA000877
:1000F00061CA000861CA000861CA000861CA000834
:1001000061CA000861CA000861CA000861CA000823
:1001100061CA000861CA000861CA000861CA000813
:1001200061CA000861CA000861CA000861CA000803
:1001300061CA000861CA000861CA000861CA0008F3
:1001400000000000000000000000000000000000AF
:1001500061CA000861CA000861CA000861CA0008D3
:1001600061CA000861CA000861CA000861CA0008C3
:1001700061CA000861CA000861CA000800000000E6
:1001800061CA000861CA000861CA000861CA0008A3
:1001900061CA000861CA000861CA000861CA000893
:1001A00061CA000861CA000861CA000861CA000883
:1001B00061CA000861CA000861CA000861CA000873
:1001C00061CA000861CA000861CA000861CA000863
:1001D00061CA000861CA000861CA000861CA000853
:1001E00061CA000861CA000861CA000861CA000843
:1001F00061CA000861CA000861CA000861CA000833
:1002000061CA000861CA000861CA000861CA000822
:1002100061CA000861CA000861CA000861CA000812
:1002200061CA000861CA000861CA00080000000035
:1002300061CA000861CA00080000000061CA000825
:1002400061CA000861CA000861CA000861CA0008E2
:1002500061CA000861CA000861CA000861CA0008D2
:1002600061CA000861CA000861CA000861CA0008C2
:1002700061CA000861CA000861CA000800000000E5
:1002800061CA000861CA000861CA000800000000D5
:080290000000000061CA000833
:1002980010B5054C237833B9044B13B10448AFF3B8
:1002A80000800123237010BD180000240000000006
:1002B800BCCA000808B5034B1BB103490348AFF398
:1002C800008008BD000000001C000024BCCA000813
:1002D80053B94AB9002908BF00281CBF4FF0FF31A5
:1002E8004FF0FF3000F07AB9ADF1080C6DE904CE9B
:1002F80000F006F8DDF804E0DDE9022304B07047F9
:100308002DE9F0478C460D460446089E002B51D136
:100318008A4217466DD9B2FA82FEBEF1000F0BD0A1
:10032800CEF1200C01FA0EF520FA0CFC02FA0EF7B9
:100338004CEA050C00FA0EF44FEA174A250CBCFBF0
:10034800FAF81FFA87F90AFB18CC45EA0C4508FBAE
:1003580009F3AB420AD9ED1908F1FF3280F0238185
:10036800AB4240F22081A8F102083D44ED1AA4B244
:10037800B5FBFAF00AFB105544EA054400FB09F9FD
:10038800A14509D9E41900F1FF3380F00A81A1459C
:1003980040F2078102383C44A4EB090440EA0840D3
:1003A8000021002E61D024FA0EF40023346073601B
:1003B800BDE8F0878B4207D9002E54D0002186E88B
:1003C80021000846BDE8F087B3FA83F1002940F020
:1003D8008E80AB4202D3824200F2FA80841A65EB27
:1003E80003050120AC46002E3FD086E81010BDE87A
:1003F800F08712B90127B7FBF2F7B7FA87FEBEF10B
:10040800000F34D1EB1B3A0C1FFA87FC0121B3FB18
:10041800F2F8250C02FB183345EA03450CFB08F3F8
:10042800AB4207D9ED1908F1FF3002D2AB4200F216
:10043800D1808046ED1AA3B2B5FBF2F002FB10554D
:1004480043EA05440CFB00FCA44507D9E41900F174
:10045800FF3302D2A44500F2B8801846A4EB0C047E
:1004680040EA08409DE731463046BDE8F087CEF1C6
:10047800200405FA0EF307FA0EF720FA04F83A0CEE
:1004880025FA04F448EA0308B4FBF2F14FEA1845E8
:1004980002FB11441FFA87FC45EA044501FB0CF3F3
:1004A800AB4200FA0EF409D9ED1901F1FF3080F0E2
:1004B8008A80AB4240F2878002393D44EB1A1FFA2A
:1004C80088F5B3FBF2F002FB103345EA034500FB65
:1004D8000CF3AB4207D9ED1900F1FF386FD2AB42EC
:1004E8006DD902383D44EB1A40EA01418FE7C1F16A
:1004F800200722FA07F88B4005FA01F448EA0303BB
:1005080020FA07FE4FEA134CFD404EEA040EB5FBF5
:10051800FCF94FEA1E440CFB19551FFA83F844EA0C
:10052800054509FB08F4AC4202FA01F200FA01FAA7
:1005380008D9ED1809F1FF3043D2AC4241D9A9F1ED
:1005480002091D442D1B1FFA8EFEB5FBFCF00CFBA7
:1005580010554EEA054400FB08F8A04507D9E418F1
:1005680000F1FF3529D2A04527D902381C4440EABA
:100578000940A4EB0804A0FB02894C45C6464D4639
:1005880015D312D056B1BAEB0E0364EB050404FA86
:1005980007F7CB401F43CC40376074600021BDE8AB
:1005A800F0871846F8E69046E0E6C245EAD2B8EB8E
:1005B800020E69EB03050138E4E72846D7E7404611
:1005C80091E78146BEE7014678E702383C4445E7B3
:1005D800084608E7A8F102083D442BE7704700BF2A
:1005E80080B582B000AF032001F072FC05F020FC5A
:1005F8000146154B9B691B0A03F00F03134AD35C92
:1006080003F01F0321FA03F37B600F4B9B6903F090
:100618000F030E4AD35C03F01F037A6822FA03F330
:100628000B4A13600B4A7B681360002000F014F833
:100638000346002B01D0012302E00BF0F1FE00235A
:1006480018460837BD4680BD0044025804CB000850
:10065800140000241000002480B582B000AF786038
:10066800154B1B78002B01D1012321E0134B1A688D
:10067800114B1B7819464FF47A73B3FBF1F3B2FBB5
:10068800F3F3184601F057FC0346002B01D0012371
:100698000EE07B680F2B0AD8002279684FF0FF30F4
:1006A80001F021FC064A7B681360002300E0012367
:1006B80018460837BD4680BD0400002410000024F9
:1006C8000000002480B400AF064B1B781A46064B86
:1006D8001B681344044A136000BFBD465DF8047BE1
:1006E800704700BF040000246000002480B400AFFD
:1006F800034B1B681846BD465DF8047B704700BF76
:100708006000002480B584B000AF7860FFF7EEFF8A
:10071800B8607B68FB60FB68B3F1FF3F05D0094B0D
:100728001B781A46FB681344FB6000BFFFF7DEFF27
:100738000246BB68D21AFB689A42F7D300BF10374B
:10074800BD4680BD0400002480B400AF034B1B6885
:100758001B0C1846BD465DF8047B70470010005C12
:1007680080B483B000AF786039600749064B5A6897
:100778007B68DB431A403B6813434B6000BF0C3770
:10078800BD465DF8047B70470004005880B483B010
:1007980000AF786039607B689B6823F47C123B6803
:1007A8001A437B689A6000BF0C37BD465DF8047B2E
:1007B800704780B483B000AF786039607B689B680D
:1007C80023F0E0723B681A437B689A6000BF0C37DD
:1007D800BD465DF8047B704780B483B000AF786095
:1007E8007B689B6803F0E07318460C37BD465DF8DC
:1007F800047B704780B487B000AFF860B9607A6056
:100808003B60FB6860331A46BB689B0013447B61FE
:100818007B691B6803F000427B6803F0F8413B6882
:100828000B431A437B691A6000BF1C37BD465DF84D
:10083800047B704780B485B000AFF860B9607A6017
:10084800FB681B6923F4F042BB6803F01F03796857
:1008580001FA03F31A43FB681A6100BF1437BD4657
:100868005DF8047B704780B487B000AFF860B9606A
:100878007A60FB6860331A46BB689B0013447B614F
:100888007B691B6823F000427B681A437B691A6006
:1008980000BF1C37BD465DF8047B704780B483B049
:1008A80000AF78607B68DB6803F44063002B01D1FC
:1008B800012300E0002318460C37BD465DF8047B91
:1008C800704780B487B000AFF860B9607A60FB68A1
:1008D80030331A46BB681B0A9B0003F00C03134411
:1008E8007B617B691A68BB6803F01F031F2101FA4B
:1008F80003F3DB431A407B689B0E03F01F01BB68C0
:1009080003F01F0301FA03F31A437B691A6000BF5F
:100918001C37BD465DF8047B704780B483B000AFD8
:10092800786039607B68DB6823F003023B681A4310
:100938007B68DA6000BF0C37BD465DF8047B704702
:1009480080B487B000AFF860B9607A60FB68143390
:100958001A46BB685B0E9B0003F0040313447B61DB
:100968007B691A68BB681B0D03F01F03072101FA96
:1009780003F3DB431A40BB681B0D03F01F037968C0
:1009880001FA03F31A437B691A6000BF1C37BD469E
:100998005DF8047B7047000080B485B000AFF86054
:1009A800B9607A60FB68D3F8C020BB68C3F313034F
:1009B800DB431A407B6803F018030849D940BB6839
:1009C8000B40C3F313031A43FB68C3F8C02000BFEE
:1009D8001437BD465DF8047B704700BFFFFF0F006A
:1009E80080B483B000AF78607B689B6803F01F0316
:1009F80018460C37BD465DF8047B704780B483B059
:100A080000AF78607B689A68044B13407A689360FB
:100A180000BF0C37BD465DF8047B7047C0FFFF5F21
:100A280080B483B000AF78607B689B6803F00053A4
:100A3800B3F1005F01D1012300E0002318460C3711
:100A4800BD465DF8047B704780B483B000AF786022
:100A58007B689A68054B134043F080527B689A6024
:100A680000BF0C37BD465DF8047B7047C0FFFF6FC1
:100A780080B483B000AF78607B689B6803F08053D4
:100A8800B3F1805F01D1012300E0002318460C3741
:100A9800BD465DF8047B704780B483B000AF7860D2
:100AA8007B689A68054B134043F001027B689A60A3
:100AB80000BF0C37BD465DF8047B7047C0FFFF7F61
:100AC80080B483B000AF78607B689B6803F0010353
:100AD800012B01D1012300E0002318460C37BD4645
:100AE8005DF8047B7047000080B483B000AF786085
:100AF8007B689A68054B134043F004027B689A6050
:100B080000BF0C37BD465DF8047B7047C0FFFF7F10
:100B180080B483B000AF78607B689B6803F00403FF
:100B2800042B01D1012300E0002318460C37BD46F1
:100B38005DF8047B704780B483B000AF78607B6851
:100B48009B6803F00803082B01D1012300E0002370
:100B580018460C37BD465DF8047B704790B589B0E0
:100B680000AF78600023FB770023BB607B68002B15
:100B780001D101238EE17B68DB68002B7B685B6D0C
:100B8800002B09D178680AF091FC7B6800229A65ED
:100B98007B68002283F850207B681B681846FFF7A3
:100BA8003FFF0346002B04D07B681B681846FFF7FD
:100BB80025FF7B681B681846FFF75AFF0346002B82
:100BC80014D17B681B681846FFF73EFF9A4B1B68D9
:100BD8009B099A4AA2FB03239B090133BB6002E0ED
:100BE800BB68013BBB60BB68002BF9D17B681B6805
:100BF8001846FFF73DFF0346002B0DD17B685B6D60
:100C080043F010027B685A657B689B6D43F00102D4
:100C18007B689A650123FB777B681B681846FFF79A
:100C280077FF78617B685B6D03F01003002B40F061
:100C380028817B69002B40F024817B685B6D23F45D
:100C4800817343F002027B685A657B681B6818460B
:100C5800FFF736FF0346002B36D17B681B68784ABE
:100C6800934204D07B681B68764A93420ED174483D
:100C7800FFF726FF04467348FFF722FF0346234386
:100C8800002B0CBF01230023DBB208E06E48FFF7FE
:100C980017FF0346002B0CBF01230023DBB2002BF8
:100CA80012D07B681B68664A934204D07B681B6835
:100CB800644A934201D1654A00E0654A7B685B68F3
:100CC80019461046FFF762FDFFF73EFD024641F266
:100CD80003039A4214D97B689B68102B10D17B6858
:100CE8005B7D5A037B681B6B1A437B689B681A43BE
:100CF8007B681B7F1B04134343F00C03BB610DE0AF
:100D08007B685B7D5A037B681B6B1A437B689B6817
:100D18001A437B681B7F1B041343BB617B681B7FE3
:100D2800012B06D17B681B6A013B5B04BA6913433C
:100D3800BB617B685B6A002B09D07B685B6A03F444
:100D480078727B689B6A1343BA691343BB617B68FB
:100D58001A687B681B68D9683E4B0B40B9690B431E
:100D6800D3607B681B681846FFF7D2FE38617B6842
:100D78001B681846FFF7DFFEF8603B69002B4AD175
:100D8800FB68002B47D17B681B7D9A037B68DB6A75
:100D98001343BB617B681A687B681B68D9682E4B54
:100DA8000B40B9690B43D3607B6893F83830012B4B
:100DB8001BD17B685B6A002B7B681A687B681B68A1
:100DC8001969264B0B407968C96B013908047968A1
:100DD800096C08437968496C08437968896C014350
:100DE8000B4343F00103136107E07B681B687A68D3
:100DF8001268126922F001021A617B681B687A681E
:100E08001268126922F070417A68526B0A431A61BB
:100E1800786800F093FD7B68DB68012B20D17B6844
:100E28001B687A681268126B22F00F017A6892695F
:100E3800013A0A431A631BE010000024632D3E05A3
:100E480000200240002102400060025800230240B6
:100E58000063025803C0F0FFFCBFFFFF1EF800FC50
:100E68007B681B687A681268126B22F00F021A639B
:100E78007B685B6D23F0030343F001027B685A65CE
:100E880007E07B685B6D43F010027B685A650123BD
:100E9800FB77FB7F18462437BD4690BD80B586B0EA
:100EA80000AFF860B9607A60FB681B68554A9342E6
:100EB80004D0FB681B68544A934201D1534B00E0AD
:100EC800534B1846FFF78CFD3861FB681B681846C2
:100ED800FFF71EFE0346002B40F08C80FB6893F85A
:100EE8005030012B01D1022387E0FB68012283F8EF
:100EF80050203B69002B05D03B69052B02D03B698C
:100F0800092B70D1F86800F0FBFB0346FB75FB7DED
:100F1800002B63D1FB685A6D3E4B134043F480723B
:100F2800FB685A65FB681B68374A934202D0FB6826
:100F38001B6800E0334BFA681268934202D03B69A1
:100F4800002B05D1FB685B6D23F48012FB685A65A2
:100F5800FB685B6D03F48053002B06D0FB689B6D28
:100F680023F00602FB689A6502E0FB6800229A6596
:100F7800FB68DB6C284ADA63FB68DB6C274A1A6477
:100F8800FB68DB6C264ADA64FB681B681C221A6063
:100F9800FB68002283F85020FB681B68FA68126817
:100FA800526842F010025A60FB681A68FB68DB6AF4
:100FB80019461046FFF7B1FCFB68D86CFB681B6844
:100FC80040331946BA687B6801F070FC0346FB752C
:100FD800FB681B681846FFF787FD0DE0FB680022D9
:100FE80083F8502008E00123FB75FB68002283F892
:100FF800502001E00223FB75FB7D18461837BD46DB
:1010080080BD00BF002002400021024000230240B2
:1010180000630258FEF0FFFF1D180008F5180008CD
:101028001119000880B483B000AF786000BF0C3796
:10103800BD465DF8047B704780B483B000AF78602C
:1010480000BF0C37BD465DF8047B704780B483B0A1
:1010580000AF786000BF0C37BD465DF8047B704771
:1010680090B5A1B000AF78603960002387F87F3071
:101078000023BB603B68DB689D4A93427B6893F81A
:101088005030012B01D1022321E37B68012283F830
:1010980050207B681B681846FFF73AFD0346002B73
:1010A80040F006833B681B68C3F31303002B08D189
:1010B8003B681B689B0E03F01F03012202FA03F32F
:1010C80016E03B681B687B667B6E93FAA3F33B666E
:1010D8003B6EBB66BB6E002B01D1202303E0BB6EC9
:1010E800B3FA83F3DBB203F01F03012202FA03F31E
:1010F8007A68126879680968C9690B43D3617B68A3
:1011080018683B6859683B681B681A46FFF7D9FBA3
:101118007B681B681846FFF7FBFCB8677B681B6891
:101128001846FFF708FD7867BB6F002B40F0B380C7
:101138007B6F002B40F0AF807B6818683B681968AC
:101148003B689B681A46FFF7FBFB6A4B1B6803F07A
:101158007043B3F1805F0BD13B685A697B681B68A9
:10116800DB689B0803F007035B0002FA03F31DE04A
:101178007B681B68DB6803F01003002B0BD13B680E
:101188005A697B681B68DB689B0803F007035B00F0
:1011980002FA03F30AE03B685A697B681B68DB685C
:1011A8009B0803F004035B0002FA03F33B673B6808
:1011B8001B69042B27D07B6818683B6819693B6852
:1011C8001A683B6FFFF716FB7B6818683B6819695C
:1011D8003B685B7E012B02D14FF0004300E0002307
:1011E8001A46FFF740FB7B6818683B6819693B683B
:1011F8001B7E012B02D14FF4006300E000231A4646
:10120800FFF718FB47E07B681B681B6E03F0F8428A
:101218003B681B689B069A4207D17B681B687A6803
:101228001268126E22F000421A667B681B685B6EB9
:1012380003F0F8423B681B689B069A4207D17B681B
:101248001B687A681268526E22F000425A667B6800
:101258001B689B6E03F0F8423B681B689B069A422A
:1012680007D17B681B687A681268926E22F0004288
:101278009A667B681B68DB6E03F0F8423B681B6864
:101288009B069A4207D17B681B687A681268D26EFF
:1012980022F00042DA667B681B681846FFF710FCEC
:1012A8000346002B40F00D827B6818683B6819687C
:1012B8003B68DB681A46FFF76FFB3B68DB680C4A44
:1012C800934240F033817B6818683B681B68C3F31E
:1012D8001303002B10D13B681B689B0E013303F0EE
:1012E8001F03092B94BF01230023DBB21EE000BFBC
:1012F8000000FF470010005C3B681B68BB65BB6DC6
:1013080093FAA3F37B657B6DFB65FB6D002B01D125
:10131800202303E0FB6DB3FA83F3DBB2013303F060
:101328001F03092B94BF01230023DBB2002B79D0C4
:101338003B681B68C3F31303002B07D13B681B688A
:101348009B0E01339B0603F0F84215E03B681B68CF
:10135800FB64FB6C93FAA3F3BB64BB6C3B653B6D0E
:10136800002B01D1202303E03B6DB3FA83F3DBB2FA
:1013780001339B0603F0F8423B681B68C3F3130371
:10138800002B09D13B681B689B0E013303F01F0338
:10139800012101FA03F317E03B681B683B643B6CCF
:1013A80093FAA3F3FB63FB6B7B647B6C002B01D18B
:1013B800202303E07B6CB3FA83F3DBB2013303F041
:1013C8001F03012101FA03F342EA03013B681B688A
:1013D800C3F31303002B0AD13B681B689B0E013330
:1013E80003F01F0213465B0013441B0518E03B681B
:1013F8001B687B637B6B93FAA3F33B633B6BBB6319
:10140800BB6B002B01D1202303E0BB6BB3FA83F342
:10141800DBB2013303F01F0213465B0013441B05C4
:101428000B437EE03B681B68C3F31303002B07D113
:101438003B681B689B0E01339B0603F0F84215E0DE
:101448003B681B68BB62BB6A93FAA3F37B627B6A47
:10145800FB62FB6A002B01D1202303E0FB6AB3FA8D
:1014680083F3DBB201339B0603F0F8423B681B6849
:10147800C3F31303002B09D13B681B689B0E013390
:1014880003F01F03012101FA03F317E03B681B680F
:10149800FB61FB6993FAA3F3BB61BB693B623B6ADF
:1014A800002B01D1202303E03B6AB3FA83F3DBB2BC
:1014B800013303F01F03012101FA03F342EA030198
:1014C8003B681B68C3F31303002B0DD13B681B68F3
:1014D8009B0E013303F01F0213465B0013441E3BAF
:1014E8001B0543F000731BE03B681B683B613B69CD
:1014F80093FAA3F3FB60FB687B617B69002B01D146
:10150800202303E07B69B3FA83F3DBB2013303F0F2
:101518001F0213465B0013441E3B1B0543F0007378
:101528000B433A6892681946FFF70AFA3B681B684A
:10153800002B80F2C6807B681B68674A934204D000
:101548007B681B68654A934201D1654B00E0654B97
:101558001846FFF741F9F8667B681B685E4A9342B4
:1015680004D07B681B685D4A93420ED15A48FFF746
:10157800A7FA04465948FFF7A3FA03462343002B6A
:101588000CBF01230023DBB208E05748FFF798FAA5
:101598000346002B0CBF01230023DBB2002B7DD0B8
:1015A8003B681B68514A934230D1FB6E03F4000339
:1015B800002B2BD17B681B684B4A934240F08180FB
:1015C8007B681B68444A934204D07B681B68434A83
:1015D800934201D1424A00E0424AFB6E43F40003C1
:1015E80019461046FFF7E5F8414B1B689B09414A2D
:1015F800A2FB03239B0901335B00BB6002E0BB68CD
:10160800013BBB60BB68002BF9D15AE03B681B6803
:10161800394A93421ED1FB6E03F08073002B19D117
:101628007B681B68304A93424BD17B681B682A4A07
:10163800934204D07B681B68284A934201D1284A08
:1016480000E0284AFB6E43F0807319461046FFF706
:10165800B0F836E03B681B68284A934231D1FB6EEC
:1016680003F48003002B2CD17B681B681E4A93422D
:1016780027D17B681B68184A934204D07B681B6893
:10168800164A934201D1164A00E0164AFB6E43F40B
:10169800800319461046FFF78CF812E07B685B6DF3
:1016A80043F020027B685A65012387F87F3008E001
:1016B8007B685B6D43F020027B685A65012387F8DD
:1016C8007F307B68002283F8502097F87F301846D7
:1016D8008437BD4690BD00BF002002400021024073
:1016E800002302400063025800600258000084CBC7
:1016F80010000024632D3E05000052C70000B8CF3B
:1017080080B584B000AF78607B681B681846FFF727
:10171800D7F90346002B6ED17B681B689A68384B53
:101728001340002B0DD07B685B6D43F010027B6883
:101738005A657B689B6D43F001027B689A650123BB
:101748005AE07B681B681846FFF7A6F9FEF7CEFF3C
:10175800F8607B681B682B4A934204D07B681B683F
:10176800294A934201D1294B00E0294B1846FFF73B
:1017780037F9B8607B681B68234A934202D07B68BC
:101788001B6800E01F4B7A68126893422CD0BB6834
:10179800002B30D128E07B681B681846FFF790F9CA
:1017A8000346002B04D17B681B681846FFF774F9C1
:1017B800FEF79CFF0246FB68D31A022B14D97B68FC
:1017C8001B681B6803F00103012B0DD07B685B6D60
:1017D80043F010027B685A657B689B6D43F00102F9
:1017E8007B689A65012307E07B681B681B6803F028
:1017F8000103012BCFD1002318461037BD4680BD09
:101808003F000080002002400021024000230240E7
:101818000063025880B584B000AF78607B689B6B2A
:10182800FB60FB685B6D03F05003002B4BD1FB683A
:101838005B6D43F40072FB685A65FB681B681B68A4
:1018480003F00803002B21D0FB681B681846FFF73C
:1018580025F80346002B32D0FB681B68DB6803F4CD
:101868000053002B2BD1FB685B6D23F48072FB685F
:101878005A65FB685B6D03F48053002B1FD1FB682E
:101888005B6D43F00102FB685A6518E0FB681B6852
:10189800DB6803F00303002B11D1FB685B6D23F4B5
:1018A8008072FB685A65FB685B6D03F48053002BFC
:1018B80005D1FB685B6D43F00102FB685A65F86867
:1018C800FFF7B0FB0EE0FB685B6D03F01003002B25
:1018D80003D0F868FFF7BAFB04E0FB68DB6CDB6C4D
:1018E8007868984700BF1037BD4680BD80B584B082
:1018F80000AF78607B689B6BFB60F868FFF79CFB28
:1019080000BF1037BD4680BD80B584B000AF786099
:101918007B689B6BFB60FB685B6D43F04002FB6878
:101928005A65FB689B6D43F00402FB689A65F8688A
:10193800FFF78CFB00BF1037BD4680BD80B584B073
:1019480000AF78607B681B68704A934204D07B685C
:101958001B686F4A934209D16E4B9B6803F440336E
:10196800002B14BF01230023DBB208E06A4B9B68FD
:1019780003F44033002B14BF01230023DBB2002BF8
:101988001AD004F0C7FBF8607B685B68B3F5003FCA
:1019980006D0B3F5403F0BD0B3F5803F00D05DE0F3
:1019A8007B685B681B0CFA68B2FBF3F3FB6055E0DD
:1019B800FB689B08FB6051E04FF4002005F004FB36
:1019C800F8607B685B68B3F5C01F2AD0B3F5C01F09
:1019D80013D8B3F5402F24D0B3F5402F06D8B3F56C
:1019E800802F1ED0B3F5002F1BD037E0B3F5801F32
:1019F80017D0B3F5A01F14D030E0B3F5101F21D0D5
:101A0800B3F5101F06D8B3F5E01F13D0B3F5001FC8
:101A180014D023E0B3F5201F18D0B3F5301F19D028
:101A28001CE07B685B689B0C5B00FA68B2FBF3F315
:101A3800FB6013E0FB681B09FB600FE0FB685B09B8
:101A4800FB600BE0FB689B09FB6007E0FB68DB09B8
:101A5800FB6003E0FB681B0AFB6000BFFEF774FE37
:101A6800024641F203039A4215D8FB682B4A934277
:101A780008D97B681B687A681268926842F4807299
:101A88009A603EE07B681B687A681268926822F464
:101A980080729A6035E0FB685B08FB60FB68204A4F
:101AA800934208D87B681B687A681268926822F4A7
:101AB80040729A6025E0FB681A4A93420AD87B680C
:101AC8001B687A681268926822F4407242F4807245
:101AD8009A6016E0FB68144A93420AD87B681B6830
:101AE8007A681268926822F4407242F400729A602E
:101AF80007E07B681B687A681268926842F4407253
:101B08009A6000BF1037BD4680BD00BF002002406C
:101B1800002102400023024000630258002D3101D9
:101B2800105E5F0020BCBE0040787D0180B483B0A9
:101B380000AF78607B689B6803F00103012B01D13B
:101B4800012300E0002318460C37BD465DF8047BEE
:101B5800704780B483B000AF78607B689B6803F0FF
:101B68000403042B01D1012300E0002318460C379D
:101B7800BD465DF8047B704790B59FB000AF7860B4
:101B88003960002387F877307B6893F85030012B51
:101B980001D10223BEE07B68012283F85020002394
:101BA800FB6500233B667B681B685C4A934202D155
:101BB8005B4BBB6001E00023BB60BB68002B0BD113
:101BC8007B685B6D43F020027B685A657B68002266
:101BD80083F8502001239DE0BB681846FFF7B9FF42
:101BE80038677B681B681846FFF7B3FF0346002B6E
:101BF8007FD13B6F002B7CD17B681B68474A93429F
:101C080004D07B681B68464A934201D1454B00E0EB
:101C1800454BFB663B681B68002B39D0FB6E9B6805
:101C280023F440423B685B681A43FB6E9A607B680A
:101C38001B683A4A934204D07B681B68384A93422F
:101C48000ED13648FFF772FF04463548FFF76EFF9E
:101C580003462343002B0CBF01230023DBB208E01B
:101C68003248FFF763FF0346002B0CBF0123002314
:101C7800DBB2002B47D0FB6E9A682D4B13403A68B5
:101C880011683A6892680A431A43FB6E9A603AE010
:101C9800FB6E9B6823F44042FB6E9A607B681B686E
:101CA8001E4A934204D07B681B681D4A93420ED19A
:101CB8001A48FFF73BFF04461948FFF737FF03466A
:101CC8002343002B0CBF01230023DBB208E0174895
:101CD800FFF72CFF0346002B0CBF01230023DBB2C8
:101CE800002B10D0FB6E9A68114B1340FA6E93606C
:101CF80009E07B685B6D43F020027B685A6501232D
:101D080087F8773000E000BF7B68002283F8502016
:101D180097F8773018467C37BD4690BD00200240C2
:101D2800002102400023024000630258006002586C
:101D3800E0F0FFFF80B485B000AF78607B6803F007
:101D48000703FB600B4BDB68BB60BA684FF6FF0309
:101D58001340BB60FB681A02BB681A43064B134367
:101D6800BB60044ABB68D36000BF1437BD465DF84A
:101D7800047B704700ED00E00000FA0580B400AF76
:101D8800044BDB681B0A03F007031846BD465DF8E1
:101D9800047B704700ED00E080B483B000AF0346D9
:101DA800FB80B7F90630002B0BDB0949B7F9063081
:101DB8005B09FA8802F01F02012000FA02F241F8DA
:101DC800232000BF0C37BD465DF8047B704700BF79
:101DD80000E100E080B483B000AF03463960FB80C7
:101DE800B7F90630002B0ADB0D49B7F906303A6817
:101DF800D2B21201D2B20B4483F800230AE0094997
:101E0800FB8803F00F03043B3A68D2B21201D2B246
:101E18000B441A7600BF0C37BD465DF8047B70474B
:101E280000E100E000ED00E080B489B000AFF860A8
:101E3800B9607A60FB6803F00703FB61FB69C3F1D3
:101E48000703042B28BF0423BB61FB690433062B5B
:101E580002D9FB69033B00E000237B610122BB69D7
:101E680002FA03F35A1EBB681A407B699A400121A3
:101E78007B6901FA03F3591E7B680B40134318462C
:101E88002437BD465DF8047B7047000080B582B0FA
:101E980000AF78607B68013BB3F1807F01D30123F9
:101EA8000FE00A4A7B68013B53600F214FF0FF3077
:101EB800FFF790FF054B00229A60044B07221A6037
:101EC800002318460837BD4680BD00BF10E000E07B
:101ED80080B582B000AF78607868FFF72BFF00BF4D
:101EE8000837BD4680BD80B586B000AF0346B960EF
:101EF8007A60FB81FFF742FF78617A68B968786990
:101F0800FFF792FF0246B7F90E3011461846FFF761
:101F180061FF00BF1837BD4680BD80B582B000AFF5
:101F28000346FB80B7F906301846FFF735FF00BFB8
:101F38000837BD4680BD80B582B000AF786078684C
:101F4800FFF7A4FF034618460837BD4680BD80B595
:101F580082B000AF78607B68002B01D1012314E0C8
:101F68007B681B79DBB2002B05D17B6800225A7194
:101F7800786809F07FFB7B6802221A717B6800226F
:101F88001A617B6801221A71002318460837BD467A
:101F980080BD000080B588B000AFF860B9607A6095
:101FA800FB685B79012B01D102231DE1FB6801224B
:101FB8005A71FB6802221A71BB681B68042B74D122
:101FC800FEF794FBB8617B68002B34D111E0FEF773
:101FD8008DFB0246BB69D31A012B0AD9FB681B6922
:101FE80043F00802FB681A61FB6803221A71032395
:101FF800FAE0FB681B685A6B7D4B1340002BE6D157
:102008000120FEF77FFBFB681B68BA6892691A64B7
:102018001EE0FEF76BFB0246BB69D31A012B0AD9F7
:10202800FB681B6943F00802FB681A61FB6803221E
:102038001A710323D8E0FB681B685B6B002BE8DB95
:102048000120FEF75FFBFB681B68BA6892695A6457
:10205800FB681B68FA681268916C7A6802F01002D3
:1020680040F2FF3000FA02F2D2431140BA68D06958
:102078007A6802F0100200FA02F20A439A64FB68D6
:102088001B68FA681268D16C7A6802F01002FF20A7
:1020980000FA02F2D2431140BA68106A7A6802F074
:1020A800100200FA02F20A43DA64BB681B69012BCA
:1020B8001DD1FB681B689B6B7B617B6803F0100379
:1020C8001F2202FA03F3DB437A6913407B61BB6882
:1020D8005B693B617B6803F010033A6902FA03F31A
:1020E8007A6913437B61FB681B687A699A63FB68AA
:1020F8001B68DB6B7B617B6803F01003072202FA25
:1021080003F3DB437A6913407B61BB68DB68012B0F
:1021180002D10023FB610FE0BB68DB68022B02D110
:102128000123FB6108E0BB689B68002B02D10123F7
:10213800FB6101E00023FB61BB681A68BB689B6810
:102148001A43FB6913433B617B6803F010033A6948
:1021580002FA03F37A6913437B61FB681B687A69A7
:10216800DA63FB681B68FA68126811687A6802F01B
:1021780010024FF4804000FA02F2D2430A401A607B
:10218800FB681B681B687B617B6803F0100340F6E3
:10219800FE7202FA03F3DB437A6913407B61BB6882
:1021A8005B683B617B6803F010033A6902FA03F34A
:1021B8007A6913437B61FB681B687A691A60FB685C
:1021C8001B68FA68126811687A6802F01002C02069
:1021D80000FA02F2D2430A401A60FB6801221A711F
:1021E800FB6800225A71002318462037BD4680BD7F
:1021F8000080002080B586B000AF7860FEF776FAE0
:1022080038617B68002B01D1012316E37B681B68CA
:10221800664A93424AD07B681B68654A934245D018
:102228007B681B68634A934240D07B681B68624A9C
:1022380093423BD07B681B68604A934236D07B68E8
:102248001B685F4A934231D07B681B685D4A9342A2
:102258002CD07B681B685C4A934227D07B681B683C
:102268005A4A934222D07B681B68594A93421DD030
:102278007B681B68574A934218D07B681B68564A8C
:10228800934213D07B681B68544A93420ED07B68F4
:102298001B68534A934209D07B681B68514A934292
:1022A80004D07B681B68504A934201D1012300E0A7
:1022B8000023002B00F03B817B68002283F8342048
:1022C8007B68022283F835207B681B68374A934273
:1022D8004AD07B681B68364A934245D07B681B68A6
:1022E800344A934240D07B681B68334A93423BD0C0
:1022F8007B681B68314A934236D07B681B68304A3A
:10230800934231D07B681B682E4A93422CD07B685D
:102318001B682D4A934227D07B681B682B4A93423F
:1023280022D07B681B682A4A93421DD07B681B68B1
:10233800284A934218D07B681B68274A934213D0D7
:102348007B681B68254A93420ED07B681B68244A29
:10235800934209D07B681B68224A934204D07B6869
:102368001B68214A934208D17B681B687A68126807
:10237800126822F001021A6007E07B681B687A681D
:102388001268126822F001021A602FE0FEF7AEF917
:1023980002463B69D31A052B28D97B6820225A6547
:1023A8007B68032283F83520012346E210000240AF
:1023B80028000240400002405800024070000240DD
:1023C80088000240A0000240B80002401004024009
:1023D80028040240400402405804024070040240AD
:1023E80088040240A0040240B80402407B681B68CD
:1023F8001B6803F00103002BC8D17B681B681B68AE
:102408007B617A69834B13407B617B689A687B6840
:10241800DB681A437B681B691A437B685B691A434C
:102428007B689B691A437B68DB691A437B681B6A74
:1024380013437A6913437B617B685B6A042B07D17A
:102448007B68DA6A7B681B6B13437A6913437B6189
:10245800714B1A68714B1340B3F1005F28D37B6846
:102468005B68282B03D97B685B682E2B17D97B68A0
:102478005B683E2B03D97B685B68422B0FD97B686E
:102488005B68462B03D97B685B68482B07D97B6858
:102498005B684E2B05D97B685B68522B01D80123FA
:1024A80000E00023002B03D07B6943F480137B6199
:1024B8007B681B687A691A607B681B685B697B614B
:1024C8007B6923F007037B617B685B6A7A69134346
:1024D8007B617B685B6A042B17D17B689B6A7A698E
:1024E80013437B617B68DB6A002B0ED0786802F0AF
:1024F80031FB0346002B08D07B6840225A657B6875
:10250800012283F83520012397E17B681B687A69EB
:102518005A61786802F06CFA0346FB607B68DB6DF1
:1025280003F01F033F229A40FB689A60CDE07B6866
:102538001B683B4A934222D07B681B68394A934206
:102548001DD07B681B68384A934218D07B681B688B
:10255800364A934213D07B681B68354A93420ED0A3
:102568007B681B68334A934209D07B681B68324AF0
:10257800934204D07B681B68304A934201D10123FF
:1025880000E00023002B00F097807B681B68244A3A
:10259800934221D07B681B68224A93421CD07B68F7
:1025A8001B68214A934217D07B681B681F4A9342D5
:1025B80012D07B681B681E4A93420DD07B681B684B
:1025C8001C4A934208D07B681B681B4A934203D07D
:1025D8007B681B68194A934200BF7B68002283F816
:1025E80034207B68022283F835207B681B681B68CF
:1025F8007B617A69124B13407B617B689B68402B37
:1026080020D07B689B68802B02D14FF480431AE06E
:10261800002318E03F8010FE0010005C0000FFFF60
:10262800085402581C540258305402584454025852
:10263800585402586C540258805402589454025802
:102648000F00FEFF10237A68D268D2081A437B680D
:102658001B69DB081A437B685B69DB081A437B68E4
:102668009B69DB081A437B68DB69DB081A437B68D4
:102678001B6A1B0913437A6913437B617B681B68D8
:102688007A691A607B681B681A466E4B13446E4A57
:10269800A2FB03231B099A007B68DA65786802F0BD
:1026A800A7F90346BB607B68DB6D03F01F030122BB
:1026B8009A40BB685A6008E07B6840225A657B688C
:1026C800032283F835200123B7E07B681B685F4A43
:1026D800934272D07B681B685D4A93426DD07B68D9
:1026E8001B685C4A934268D07B681B685A4A9342CD
:1026F80063D07B681B68594A93425ED07B681B682D
:10270800574A934259D07B681B68564A934254D023
:102718007B681B68544A93424FD07B681B68534AB6
:1027280093424AD07B681B68514A934245D07B68E4
:102738001B68504A934240D07B681B684E4A9342BC
:102748003BD07B681B684D4A934236D07B681B6838
:102758004B4A934231D07B681B684A4A93422CD03B
:102768007B681B68484A934227D07B681B68474AA6
:10277800934222D07B681B68454A93421DD07B68F0
:102788001B68444A934218D07B681B68424A9342AC
:1027980013D07B681B68414A93420ED07B681B6844
:1027A8003F4A934209D07B681B683E4A934204D053
:1027B8007B681B683C4A934201D1012300E0002357
:1027C800002B32D0786802F041FA7B689B68802B36
:1027D80002D17B6800225A607B681B6E7A68526857
:1027E800D2B21A607B685B6E7A68926E5A607B68B8
:1027F8005B68002B10D07B685B68082B0CD8786866
:1028080002F0BEFA7B68DB6E00221A607B681B6FE1
:102818007A68526F5A6008E07B680022DA667B6843
:1028280000221A677B6800225A677B6800225A6573
:102838007B68012283F83520002318461837BD46E7
:1028480080BD00BFF8ABFDA7CDCCCCCC10000240BA
:102858002800024040000240580002407000024038
:1028680088000240A0000240B80002401004024064
:102878002804024040040240580402407004024008
:1028880088040240A0040240B804024008540258D8
:102898001C54025830540258445402585854025890
:1028A8006C540258805402589454025880B586B02B
:1028B80000AFF860B9607A603B600023FB75FB6885
:1028C800002B01D1012326E2FB6893F83430012B59
:1028D80001D102231FE2FB68012283F83420FB6840
:1028E80093F83530DBB2012B40F00A82FB680222F4
:1028F80083F83520FB6800225A65FB681B68684A24
:1029080093424AD0FB681B68664A934245D0FB68ED
:102918001B68654A934240D0FB681B68634A934230
:102928003BD0FB681B68624A934236D0FB681B6841
:10293800604A934231D0FB681B685F4A93422CD0AF
:10294800FB681B685D4A934227D0FB681B685C4A9A
:10295800934222D0FB681B685A4A93421DD0FB68F9
:102968001B68594A934218D0FB681B68574A934220
:1029780013D0FB681B68564A93420ED0FB681B684D
:10298800544A934209D0FB681B68534A934204D0C7
:10299800FB681B68514A934208D1FB681B68FA68B8
:1029A8001268126822F001021A6007E0FB681B68CF
:1029B800FA681268126822F001021A603B687A68A5
:1029C800B968F86801F068FEFB681B68344A9342EE
:1029D8004AD0FB681B68334A934245D0FB681B68A2
:1029E800314A934240D0FB681B68304A93423BD03F
:1029F800FB681B682E4A934236D0FB681B682D4A39
:102A0800934231D0FB681B682B4A93422CD0FB6859
:102A18001B682A4A934227D0FB681B68284A9342BE
:102A280022D0FB681B68274A93421DD0FB681B68AD
:102A3800254A934218D0FB681B68244A934213D056
:102A4800FB681B68224A93420ED0FB681B68214A28
:102A5800934209D0FB681B681F4A934204D0FB6865
:102A68001B681E4A934201D1012300E00023002B7A
:102A780036D0FB681B68FA681268126822F01E02DA
:102A880042F016021A60FB681B6C002B3ED0FB68F4
:102A98001B68FA681268126842F008021A6035E08A
:102AA8001000024028000240400002405800024046
:102AB8007000024088000240A0000240B8000240B6
:102AC8001004024028040240400402405804024016
:102AD8007004024088040240A0040240B804024086
:102AE800FB681B68FA681268126822F00E0242F04E
:102AF8000A021A60FB681B6C002B07D0FB681B6876
:102B0800FA681268126842F004021A60FB681B68CF
:102B1800834A934272D0FB681B68824A93426DD005
:102B2800FB681B68804A934268D0FB681B687F4A31
:102B3800934263D0FB681B687D4A93425ED0FB6872
:102B48001B687C4A934259D0FB681B687A4A9342B7
:102B580054D0FB681B68794A93424FD0FB681B68C6
:102B6800774A93424AD0FB681B68764A934245D01D
:102B7800FB681B68744A934240D0FB681B68734A21
:102B880093423BD0FB681B68714A934236D0FB687E
:102B98001B68704A934231D0FB681B686E4A9342A7
:102BA8002CD0FB681B686D4A934227D0FB681B68D2
:102BB8006B4A934222D0FB681B686A4A93421DD035
:102BC800FB681B68684A934218D0FB681B68674A11
:102BD800934213D0FB681B68654A93420ED0FB688A
:102BE8001B68644A934209D0FB681B68624A934297
:102BF80004D0FB681B68614A934201D1012300E0BD
:102C08000023002B1AD0FB681B6E1B6803F480336B
:102C1800002B07D0FB681B6EFA68126E126842F42C
:102C280080721A60FB68DB6E002B07D0FB68DB6ED6
:102C3800FA68D26E126842F480721A60FB681B68E8
:102C4800374A93424AD0FB681B68364A934245D0BC
:102C5800FB681B68344A934240D0FB681B68334AC0
:102C680093423BD0FB681B68314A934236D0FB68DD
:102C78001B68304A934231D0FB681B682E4A934246
:102C88002CD0FB681B682D4A934227D0FB681B6831
:102C98002B4A934222D0FB681B682A4A93421DD0D4
:102CA800FB681B68284A934218D0FB681B68274AB0
:102CB800934213D0FB681B68254A93420ED0FB68E9
:102CC8001B68244A934209D0FB681B68224A934236
:102CD80004D0FB681B68214A934208D1FB681B6833
:102CE800FA681268126842F001021A6012E0FB6882
:102CF8001B68FA681268126842F001021A6009E05B
:102D0800FB68002283F83420FB684FF400625A65A0
:102D18000123FB75FB7D18461837BD4680BD00BFF3
:102D280010000240280002404000024058000240C3
:102D38007000024088000240A0000240B800024033
:102D48001004024028040240400402405804024093
:102D58007004024088040240A0040240B804024003
:102D6800085402581C54025830540258445402580B
:102D7800585402586C5402588054025894540258BB
:102D880080B586B000AF7860FDF7B0FC38617B682D
:102D9800002B01D10123DCE27B6893F83530DBB2EC
:102DA800022B08D07B6880225A657B68002283F852
:102DB80034200123CDE27B681B68764A93424AD0CF
:102DC8007B681B68744A934245D07B681B68734ACA
:102DD800934240D07B681B68714A93423BD07B6822
:102DE8001B68704A934236D07B681B686E4A9342D0
:102DF80031D07B681B686D4A93422CD07B681B6876
:102E08006B4A934227D07B681B686A4A934222D058
:102E18007B681B68684A93421DD07B681B68674AB9
:102E2800934218D07B681B68654A934213D07B682D
:102E38001B68644A93420ED07B681B68624A9342BF
:102E480009D07B681B68614A934204D07B681B6881
:102E58005F4A934201D1012300E00023002B13D0E5
:102E68007B681B687A681268126822F01E021A6072
:102E78007B681B687A681268526922F080025A617E
:102E88007B681B687B610AE07B681B687A6812684C
:102E9800126822F00E021A607B681B687B617B68EF
:102EA8001B683C4A934272D07B681B683A4A93423B
:102EB8006DD07B681B68394A934268D07B681B6871
:102EC800374A934263D07B681B68364A93425ED088
:102ED8007B681B68344A934259D07B681B68334A25
:102EE800934254D07B681B68314A93424FD07B6829
:102EF8001B68304A93424AD07B681B682E4A93422B
:102F080045D07B681B682D4A934240D07B681B687C
:102F18002B4A93423BD07B681B682A4A934236D09F
:102F28007B681B68284A934231D07B681B68274A14
:102F380093422CD07B681B68254A934227D07B6834
:102F48001B68244A934222D07B681B68224A93421A
:102F58001DD07B681B68214A934218D07B681B6888
:102F68001F4A934213D07B681B681E4A93420ED0B7
:102F78007B681B681C4A934209D07B681B681B4A04
:102F8800934204D07B681B68194A934232D10123CB
:102F980031E000BF1000024028000240400002401B
:102FA800580002407000024088000240A000024021
:102FB800B8000240100402402804024040040240C5
:102FC800580402407004024088040240A0040240F1
:102FD800B8040240085402581C540258305402588D
:102FE80044540258585402586C5402588054025899
:102FF800945402580023002B07D07B681B6E7A6814
:10300800126E126822F480721A607B681B686D4A1F
:1030180093424AD07B681B686B4A934245D07B68D1
:103028001B686A4A934240D07B681B68684A93428F
:103038003BD07B681B68674A934236D07B681B6825
:10304800654A934231D07B681B68644A93422CD00E
:103058007B681B68624A934227D07B681B68614A79
:10306800934222D07B681B685F4A93421DD07B68DD
:103078001B685E4A934218D07B681B685C4A93427F
:1030880013D07B681B685B4A93420ED07B681B6831
:10309800594A934209D07B681B68584A934204D026
:1030A8007B681B68564A934208D17B681B687A681C
:1030B8001268126822F001021A6007E07B681B6838
:1030C8007A681268126822F001021A6013E0FDF7AC
:1030D8000DFB02463B69D31A052B0CD97B682022CD
:1030E8005A657B68002283F834207B68032283F8C2
:1030F800352001232DE17B691B6803F00103002BB8
:10310800E5D17B681B682F4A93424AD07B681B68CD
:103118002D4A934245D07B681B682C4A934240D085
:103128007B681B682A4A93423BD07B681B68294A04
:10313800934236D07B681B68274A934231D07B681C
:103148001B68264A93422CD07B681B68244A93420A
:1031580027D07B681B68234A934222D07B681B6870
:10316800214A93421DD07B681B68204A934218D09D
:103178007B681B681E4A934213D07B681B681D4AF4
:1031880093420ED07B681B681B4A934209D07B6828
:103198001B681A4A934204D07B681B68184A9342FA
:1031A80001D1012300E00023002B2BD07B689B6D0D
:1031B800FB607B68DB6D03F01F033F229A40FB68CE
:1031C8009A602AE0100002402800024040000240B5
:1031D800580002407000024088000240A0000240EF
:1031E800B800024010040240280402404004024093
:1031F800580402407004024088040240A0040240BF
:10320800B80402407B689B6DBB607B68DB6D03F094
:103218001F0301229A40BB685A607B681B684F4AAB
:10322800934272D07B681B684D4A93426DD07B688D
:103238001B684C4A934268D07B681B684A4A934291
:1032480063D07B681B68494A93425ED07B681B68E1
:10325800474A934259D07B681B68464A934254D0E8
:103268007B681B68444A93424FD07B681B68434A7B
:1032780093424AD07B681B68414A934245D07B6899
:103288001B68404A934240D07B681B683E4A934281
:103298003BD07B681B683D4A934236D07B681B68ED
:1032A8003B4A934231D07B681B683A4A93422CD000
:1032B8007B681B68384A934227D07B681B68374A6B
:1032C800934222D07B681B68354A93421DD07B68A5
:1032D8001B68344A934218D07B681B68324A934271
:1032E80013D07B681B68314A93420ED07B681B68F9
:1032F8002F4A934209D07B681B682E4A934204D018
:103308007B681B682C4A934201D1012300E000230B
:10331800002B15D07B685B6E7A68926E5A607B686A
:10332800DB6E002B0CD07B68DB6E7A68D26E12687D
:1033380022F480721A607B681B6F7A68526F5A6039
:103348007B68002283F834207B68012283F83520CB
:10335800002318461837BD4680BD00BF1000024044
:10336800280002404000024058000240700002401D
:1033780088000240A0000240B80002401004024049
:1033880028040240400402405804024070040240ED
:1033980088040240A0040240B804024008540258BD
:1033A8001C54025830540258445402585854025875
:1033B8006C540258805402589454025880B584B012
:1033C80000AF78607B68002B01D1012305E27B68A0
:1033D80093F83530DBB2022B04D07B6880225A6523
:1033E8000123FAE17B681B688C4A93424AD07B68C8
:1033F8001B688B4A934245D07B681B68894A934275
:1034080040D07B681B68884A93423BD07B681B6826
:10341800864A934236D07B681B68854A934231D0EE
:103428007B681B68834A93422CD07B681B68824A5E
:10343800934227D07B681B68804A934222D07B68DE
:103448001B687F4A93421DD07B681B687D4A934264
:1034580018D07B681B687C4A934213D07B681B6832
:103468007A4A93420ED07B681B68794A934209D006
:103478007B681B68774A934204D07B681B68764A4E
:10348800934201D1012300E00023002B65D07B6823
:10349800042283F835207B681B68604A93424AD02F
:1034A8007B681B685E4A934245D07B681B685D4A0F
:1034B800934240D07B681B685B4A93423BD07B6851
:1034C8001B685A4A934236D07B681B68584A934215
:1034D80031D07B681B68574A93422CD07B681B68A5
:1034E800554A934227D07B681B68544A934222D09E
:1034F8007B681B68524A93421DD07B681B68514AFF
:10350800934218D07B681B684F4A934213D07B685C
:103518001B684E4A93420ED07B681B684C4A934204
:1035280009D07B681B684B4A934204D07B681B68B0
:10353800494A934208D17B681B687A681268126806
:1035480022F001021A6047E17B681B687A681268FA
:10355800126822F001021A603EE17B681B687A68F3
:103568001268126822F00E021A607B681B682B4AE8
:1035780093424AD07B681B68294A934245D07B68AE
:103588001B68284A934240D07B681B68264A9342AE
:103598003BD07B681B68254A934236D07B681B6802
:1035A800234A934231D07B681B68224A93422CD02D
:1035B8007B681B68204A934227D07B681B681F4A98
:1035C800934222D07B681B681D4A93421DD07B68BA
:1035D8001B681C4A934218D07B681B681A4A93429E
:1035E80013D07B681B68194A93420ED07B681B680E
:1035F800174A934209D07B681B68164A934204D045
:103608007B681B68144A934228D17B681B687A68D8
:103618001268126822F001021A6027E010000240C6
:10362800280002404000024058000240700002405A
:1036380088000240A0000240B80002401004024086
:10364800280402404004024058040240700402402A
:1036580088040240A0040240B80402407B681B684A
:103668007A681268126822F001021A607B681B6887
:103678005C4A934272D07B681B685B4A93426DD068
:103688007B681B68594A934268D07B681B68584A14
:10369800934263D07B681B68564A93425ED07B682E
:1036A8001B68554A934259D07B681B68534A93421A
:1036B80054D07B681B68524A93424FD07B681B6882
:1036C800504A93424AD07B681B684F4A934245D080
:1036D8007B681B684D4A934240D07B681B684C4A04
:1036E80093423BD07B681B684A4A934236D07B683A
:1036F8001B68494A934231D07B681B68474A93420A
:103708002CD07B681B68464A934227D07B681B688D
:10371800444A934222D07B681B68434A93421DD097
:103728007B681B68414A934218D07B681B68404AF3
:10373800934213D07B681B683E4A93420ED07B6845
:103748001B683D4A934209D07B681B683B4A9342F9
:1037580004D07B681B683A4A934201D1012300E0F8
:103768000023002B28D07B681B6E7A68126E1268C3
:1037780022F480721A607B689B6DFB607B68DB6D4E
:1037880003F01F0301229A40FB685A607B685B6E56
:103798007A68926E5A607B68DB6E002B0CD07B686F
:1037A800DB6E7A68D26E126822F480721A607B68C7
:1037B8001B6F7A68526F5A607B68002283F8342046
:1037C8007B68012283F835207B681B6D002B03D0B2
:1037D8007B681B6D78689847002318461037BD46EC
:1037E80080BD00BF10000240280002404000024097
:1037F800580002407000024088000240A0000240C9
:10380800B80002401004024028040240400402406C
:10381800580402407004024088040240A004024098
:10382800B8040240085402581C5402583054025834
:1038380044540258585402586C5402588054025840
:103848009454025880B58AB000AF78600023FB60BA
:10385800674B1B68674AA2FB03239B0A7B627B6852
:103868009B6D3B627B689B6DFB613B6A1B68BB6120
:10387800FB691B687B617B681B685F4A93424AD07F
:103888007B681B685D4A934245D07B681B685C4A2D
:10389800934240D07B681B685A4A93423BD07B686E
:1038A8001B68594A934236D07B681B68574A934233
:1038B80031D07B681B68564A93422CD07B681B68C2
:1038C800544A934227D07B681B68534A934222D0BC
:1038D8007B681B68514A93421DD07B681B68504A1D
:1038E800934218D07B681B684E4A934213D07B687A
:1038F8001B684D4A93420ED07B681B684B4A934223
:1039080009D07B681B684A4A934204D07B681B68CD
:10391800484A934201D1012300E00023002B00F024
:103928002B847B68DB6D03F01F0308229A40BB6978
:103938001340002B00F0A2807B681B682E4A93423C
:103948004AD07B681B682D4A934245D07B681B6828
:103958002B4A934240D07B681B682A4A93423BD04B
:103968007B681B68284A934236D07B681B68274AC5
:10397800934231D07B681B68254A93422CD07B68E0
:103988001B68244A934227D07B681B68224A9342CB
:1039980022D07B681B68214A93421DD07B681B6834
:1039A8001F4A934218D07B681B681E4A934213D063
:1039B8007B681B681C4A93420ED07B681B681B4AB5
:1039C800934209D07B681B68194A934204D07B68EC
:1039D8001B68184A93422FD17B681B681B6803F049
:1039E8000403002B14BF01230023DBB22EE000BF29
:1039F80010000024B5814E1B100002402800024030
:103A08004000024058000240700002408800024016
:103A1800A0000240B80002401004024028040240FE
:103A280040040240580402407004024088040240E6
:103A3800A0040240B80402407B681B681B6803F0BE
:103A48000803002B14BF01230023DBB2002B15D081
:103A58007B681B687A681268126822F004021A6090
:103A68007B68DB6D03F01F0308229A403B6A9A606B
:103A78007B685B6D43F001027B685A657B68DB6D90
:103A880003F01F03BA6922FA03F303F00103002BC2
:103A98006ED07B681B68694A93424AD07B681B6872
:103AA800674A934245D07B681B68664A934240D078
:103AB8007B681B68644A93423BD07B681B68634AF7
:103AC800934236D07B681B68614A934231D07B6849
:103AD8001B68604A93422CD07B681B685E4A9342FD
:103AE80027D07B681B685D4A934222D07B681B689D
:103AF8005B4A93421DD07B681B685A4A934218D090
:103B08007B681B68584A934213D07B681B68574AE6
:103B180093420ED07B681B68554A934209D07B6854
:103B28001B68544A934204D07B681B68524A9342EC
:103B38000AD17B681B685B6903F08003002B14BF04
:103B480001230023DBB203E07B681B681B680023AA
:103B5800002B0DD07B68DB6D03F01F0301229A4018
:103B68003B6A9A607B685B6D43F002027B685A652A
:103B78007B68DB6D03F01F0304229A40BB69134086
:103B8800002B00F08F807B681B682C4A93424AD038
:103B98007B681B682A4A934245D07B681B68294A80
:103BA800934240D07B681B68274A93423BD07B688E
:103BB8001B68264A934236D07B681B68244A934286
:103BC80031D07B681B68234A93422CD07B681B68E2
:103BD800214A934227D07B681B68204A934222D00F
:103BE8007B681B681E4A93421DD07B681B681D4A70
:103BF800934218D07B681B681B4A934213D07B689A
:103C08001B681A4A93420ED07B681B68184A934275
:103C180009D07B681B68174A934204D07B681B68ED
:103C2800154A93422AD17B681B681B6803F002037C
:103C3800002B14BF01230023DBB223E01000024055
:103C48002800024040000240580002407000024034
:103C580088000240A0000240B80002401004024060
:103C68002804024040040240580402407004024004
:103C780088040240A0040240B80402407B681B6824
:103C88001B680023002B0DD07B68DB6D03F01F033E
:103C980004229A403B6A9A607B685B6D43F0040299
:103CA8007B685A657B68DB6D03F01F0310229A401E
:103CB800BB691340002B00F0A6807B681B68854A0F
:103CC80093424AD07B681B68834A934245D07B68FD
:103CD8001B68824A934240D07B681B68804A9342A3
:103CE8003BD07B681B687F4A934236D07B681B6851
:103CF8007D4A934231D07B681B687C4A93422CD022
:103D08007B681B687A4A934227D07B681B68794A8C
:103D1800934222D07B681B68774A93421DD07B6808
:103D28001B68764A934218D07B681B68744A934292
:103D380013D07B681B68734A93420ED07B681B685C
:103D4800714A934209D07B681B68704A934204D039
:103D58007B681B686E4A93420AD17B681B681B68A4
:103D680003F00803002B14BF01230023DBB209E092
:103D78007B681B681B6803F00403002B14BF012336
:103D88000023DBB2002B3ED07B68DB6D03F01F0302
:103D980010229A403B6A9A607B681B681B6803F490
:103DA8008023002B18D07B681B681B6803F4002352
:103DB800002B08D17B681B6C002B24D07B681B6C04
:103DC800786898471FE07B689B6C002B1BD07B684A
:103DD8009B6C7868984716E07B681B681B6803F43F
:103DE8008073002B07D17B681B687A681268126899
:103DF80022F008021A607B681B6C002B03D07B68DA
:103E08001B6C786898477B68DB6D03F01F032022E2
:103E18009A40BB691340002B00F010817B681B6837
:103E28002C4A93424AD07B681B682B4A934245D060
:103E38007B681B68294A934240D07B681B68284AE4
:103E480093423BD07B681B68264A934236D07B68F6
:103E58001B68254A934231D07B681B68234A9342EA
:103E68002CD07B681B68224A934227D07B681B684A
:103E7800204A934222D07B681B681F4A93421DD078
:103E88007B681B681D4A934218D07B681B681C4AD4
:103E9800934213D07B681B681A4A93420ED07B6802
:103EA8001B68194A934209D07B681B68174A9342DA
:103EB80004D07B681B68164A93422BD17B681B6829
:103EC8001B6803F01003002B14BF01230023DBB28F
:103ED8002AE000BF100002402800024040000240D3
:103EE800580002407000024088000240A0000240D2
:103EF800B800024010040240280402404004024076
:103F0800580402407004024088040240A0040240A1
:103F1800B80402407B681B681B6803F00203002B8F
:103F280014BF01230023DBB2002B00F087807B68DD
:103F3800DB6D03F01F0320229A403B6A9A607B687E
:103F480093F83530DBB2042B39D17B681B687A686B
:103F58001268126822F016021A607B681B687A6879
:103F68001268526922F080025A617B681B6C002B30
:103F780003D17B689B6C002B07D07B681B687A6831
:103F88001268126822F008021A607B68DB6D03F081
:103F98001F033F229A403B6A9A607B68002283F89D
:103FA80034207B68012283F835207B681B6D002B49
:103FB80000F04A837B681B6D7868984744E37B6808
:103FC8001B681B6803F48023002B18D07B681B68D0
:103FD8001B6803F40023002B08D17B685B6C002B63
:103FE8002CD07B685B6C7868984727E07B68DB6B34
:103FF800002B23D07B68DB6B786898471EE07B68D2
:104008001B681B6803F48073002B0FD17B681B6847
:104018007A681268126822F010021A607B6800221F
:1040280083F834207B68012283F835207B68DB6BBA
:10403800002B03D07B68DB6B786898477B685B6DE7
:10404800002B00F006837B685B6D03F00103002BF7
:1040580000F088807B68042283F835207B681B6821
:104068007A4A93424AD07B681B68794A934245D082
:104078007B681B68774A934240D07B681B68764A06
:1040880093423BD07B681B68744A934236D07B6866
:104098001B68734A934231D07B681B68714A93420C
:1040A8002CD07B681B68704A934227D07B681B68BA
:1040B8006E4A934222D07B681B686D4A93421DD09A
:1040C8007B681B686B4A934218D07B681B686A4AF6
:1040D800934213D07B681B68684A93420ED07B6872
:1040E8001B68674A934209D07B681B68654A9342FC
:1040F80004D07B681B68644A934208D17B681B68BC
:104108007A681268126822F001021A6007E07B6878
:104118001B687A681268126822F001021A60FB684C
:104128000133FB607A6A934207D87B681B681B6877
:1041380003F00103002BF2D100E000BF7B680022EE
:1041480083F834207B681B681B6803F00103002B8D
:1041580004D07B68032283F8352003E07B680122C2
:1041680083F835207B68DB6C002B00F072827B685B
:10417800DB6C786898476CE27B681B68434A93421B
:1041880022D07B681B68424A93421DD07B681B681B
:10419800404A934218D07B681B683F4A934213D029
:1041A8007B681B683D4A93420ED07B681B683C4A7B
:1041B800934209D07B681B683A4A934204D07B68D3
:1041C8001B68394A934201D1012300E00023002BE8
:1041D80000F03F827B681B681B683B617B68DB6D76
:1041E80003F01F0304229A407B691340002B00F060
:1041F800CD803B6903F00403002B00F0C7807B6887
:10420800DB6D03F01F0304229A40FB695A603B6987
:1042180003F40043002B49D03B6903F48033002B9F
:1042280009D17B689B6C002B00F010827B689B6C2B
:10423800786898470AE27B681B6C002B00F00682BE
:104248007B681B6C7868984700E200BF100002404A
:10425800280002404000024058000240700002401E
:1042680088000240A0000240B8000240100402404A
:1042780028040240400402405804024070040240EE
:1042880088040240A0040240B804024008540258BE
:104298001C54025830540258445402585854025876
:1042A8006C54025880540258945402583B6903F0E5
:1042B8002003002B60D17B681B688C4A93424AD04C
:1042C8007B681B688A4A934245D07B681B68894A89
:1042D800934240D07B681B68874A93423BD07B68F7
:1042E8001B68864A934236D07B681B68844A93428F
:1042F80031D07B681B68834A93422CD07B681B684B
:10430800814A934227D07B681B68804A934222D017
:104318007B681B687E4A93421DD07B681B687D4A78
:10432800934218D07B681B687B4A934213D07B6802
:104338001B687A4A93420ED07B681B68784A93427E
:1043480009D07B681B68774A934204D07B681B6856
:10435800754A934208D17B681B687A6812681268AC
:1043680022F008021A6007E07B681B687A68126806
:10437800126822F004021A607B681B6C002B00F0A4
:1043880065817B681B6C786898475FE17B68DB6DAB
:1043980003F01F0302229A407B691340002B00F0B0
:1043A800C5803B6903F00203002B00F0BF807B68E7
:1043B800DB6D03F01F0302229A40FB695A603B69D8
:1043C80003F40043002B18D03B6903F48033002B1F
:1043D80009D17B685B6C002B00F03A817B685B6CD1
:1043E8007868984734E17B68DB6B002B00F03081FC
:1043F8007B68DB6B786898472AE13B6903F0200308
:10440800002B68D17B681B68384A93424AD07B6886
:104418001B68374A934245D07B681B68354A9342EC
:1044280040D07B681B68344A93423BD07B681B684A
:10443800324A934236D07B681B68314A934231D066
:104448007B681B682F4A93422CD07B681B682E4AD6
:10445800934227D07B681B682C4A934222D07B6802
:104468001B682B4A93421DD07B681B68294A9342DC
:1044780018D07B681B68284A934213D07B681B6856
:10448800264A93420ED07B681B68254A934209D07E
:104498007B681B68234A934204D07B681B68224AC6
:1044A800934208D17B681B687A681268126822F008
:1044B80014021A6007E07B681B687A681268126841
:1044C80022F00A021A607B68002283F834207B6895
:1044D800012283F835207B68DB6B002B00F0B88065
:1044E8007B68DB6B78689847B2E000BF1000024039
:1044F800280002404000024058000240700002407C
:1045080088000240A0000240B800024010040240A7
:10451800280402404004024058040240700402404B
:1045280088040240A0040240B80402407B68DB6DA6
:1045380003F01F0308229A407B691340002B00F008
:1045480088803B6903F00803002B00F082807B68B9
:104558001B68414A93424AD07B681B683F4A934292
:1045680045D07B681B683E4A934240D07B681B68F5
:104578003C4A93423BD07B681B683B4A934236D007
:104588007B681B68394A934231D07B681B68384A7C
:1045980093422CD07B681B68364A934227D07B68AD
:1045A8001B68354A934222D07B681B68334A934282
:1045B8001DD07B681B68324A934218D07B681B6801
:1045C800304A934213D07B681B682F4A93420ED01F
:1045D8007B681B682D4A934209D07B681B682C4A6C
:1045E800934204D07B681B682A4A934208D17B68AF
:1045F8001B687A681268126822F01C021A6007E0C9
:104608007B681B687A681268126822F00E021A60CA
:104618007B68DB6D03F01F0301229A40FB695A6037
:104628007B6801225A657B68002283F834207B6806
:10463800012283F835207B68DB6C002B09D07B686E
:10464800DB6C7868984704E000BF02E000BF00E038
:1046580000BF2837BD4680BD100002402800024038
:1046680040000240580002407000024088000240AA
:10467800A0000240B8000240100402402804024092
:10468800400402405804024070040240880402407A
:10469800A0040240B804024080B487B000AFF860BC
:1046A800B9607A603B60FB689B6D7B61FB689B6DC2
:1046B8003B61FB681B68844A934272D0FB681B68A5
:1046C800824A93426DD0FB681B68814A934268D046
:1046D800FB681B687F4A934263D0FB681B687E4A6D
:1046E80093425ED0FB681B687C4A934259D0FB68B2
:1046F8001B687B4A934254D0FB681B68794A9342F3
:104708004FD0FB681B68784A93424AD0FB681B6805
:10471800764A934245D0FB681B68754A934240D05D
:10472800FB681B68734A93423BD0FB681B68724A5C
:10473800934236D0FB681B68704A934231D0FB68BD
:104748001B686F4A93422CD0FB681B686D4A9342E2
:1047580027D0FB681B686C4A934222D0FB681B6811
:104768006A4A93421DD0FB681B68694A934218D075
:10477800FB681B68674A934213D0FB681B68664A4C
:1047880093420ED0FB681B68644A934209D0FB68C9
:104798001B68634A934204D0FB681B68614A9342D2
:1047A80001D1012300E00023002B0DD0FB685B6ED4
:1047B800FA68926E5A60FB68DB6E002B04D0FB68C7
:1047C8001B6FFA68526F5A60FB681B683E4A934237
:1047D8004AD0FB681B683D4A934245D0FB681B687A
:1047E8003B4A934240D0FB681B683A4A93423BD00D
:1047F800FB681B68384A934236D0FB681B68374A07
:10480800934231D0FB681B68354A93422CD0FB6831
:104818001B68344A934227D0FB681B68324A93428C
:1048280022D0FB681B68314A93421DD0FB681B6885
:104838002F4A934218D0FB681B682E4A934213D024
:10484800FB681B682C4A93420ED0FB681B682B4AF6
:10485800934209D0FB681B68294A934204D0FB683D
:104868001B68284A934201D1012300E00023002B52
:104878005AD0FB68DB6D03F01F033F229A407B6927
:104888009A60FB681B68FA681268126822F4802232
:104898001A60FB681B683A685A60FB689B68402B83
:1048A80008D1FB681B687A689A60FB681B68BA685D
:1048B800DA6087E0FB681B68BA689A60FB681B6867
:1048C8007A68DA607EE000BF1000024028000240EB
:1048D8004000024058000240700002408800024038
:1048E800A0000240B8000240100402402804024020
:1048F8004004024058040240700402408804024008
:10490800A0040240B8040240085402581C5402583B
:104918003054025844540258585402586C5402589F
:104928008054025894540258FB681B68284A9342E2
:1049380022D0FB681B68274A93421DD0FB681B687E
:10494800254A934218D0FB681B68244A934213D027
:10495800FB681B68224A93420ED0FB681B68214AF9
:10496800934209D0FB681B681F4A934204D0FB6836
:104978001B681E4A934201D1012300E00023002B4B
:1049880020D0FB68DB6D03F01F0301229A403B69CE
:104998005A60FB681B683A685A60FB689B68402B42
:1049A80008D1FB681B687A689A60FB681B68BA685C
:1049B800DA6007E0FB681B68BA689A60FB681B68E6
:1049C8007A68DA6000BF1C37BD465DF8047B704723
:1049D800085402581C54025830540258445402587F
:1049E800585402586C54025880540258945402582F
:1049F80080B485B000AF78607B681B68424A9342F8
:104A08004AD07B681B68414A934245D07B681B6843
:104A18003F4A934240D07B681B683E4A93423BD052
:104A28007B681B683C4A934236D07B681B683B4ACC
:104A3800934231D07B681B68394A93422CD07B68FB
:104A48001B68384A934227D07B681B68364A9342D2
:104A580022D07B681B68354A93421DD07B681B684F
:104A6800334A934218D07B681B68324A934213D06A
:104A78007B681B68304A93420ED07B681B682F4ABC
:104A8800934209D07B681B682D4A934204D07B6807
:104A98001B682C4A934201D1012300E00023002B1C
:104AA80024D07B681B68DBB2103B274AA2FB032398
:104AB8001B09FB60FB6803F00703244AD35C1A4612
:104AC8007B68DA65FB68032B08D97B681B681A4684
:104AD8001F4B13401A1D7B689A650DE07B681B68A5
:104AE8001A461B4B13407A68936505E07B681B6880
:104AF80023F0FF027B689A657B689B6D1846143724
:104B0800BD465DF8047B7047100002402800024053
:104B180040000240580002407000024088000240F5
:104B2800A0000240B80002401004024028040240DD
:104B380040040240580402407004024088040240C5
:104B4800A0040240B8040240ABAAAAAAD4CA00082A
:104B580000FCFFFF80B485B000AF78600023FB73D2
:104B68007B689B69002B20D17B689B6A032B58D8F4
:104B780001A252F823F000BF914B0008A34B000894
:104B8800914B00082B4C00087B68DB6A03F08073AC
:104B9800002B48D00123FB7345E07B68DB6AB3F147
:104BA800C07F42D10123FB733FE07B689B69B3F56B
:104BB800005F23D17B689B6A032B38D801A252F887
:104BC80023F000BFDD4B0008E34B0008DD4B000875
:104BD800F54B00080123FB7330E07B68DB6A03F0C8
:104BE8008073002B25D00123FB7322E07B68DB6AEE
:104BF800B3F1C07F1FD10123FB731CE07B689B6A64
:104C0800022B02D9032B03D018E00123FB7315E014
:104C18007B68DB6A03F08073002B0ED00123FB73E3
:104C28000BE000BF0AE000BF08E000BF06E000BFDD
:104C380004E000BF02E000BF00E000BFFB7B1846B5
:104C48001437BD465DF8047B704700BF80B485B05B
:104C580000AF78607B681B68BB607B681B68384A5C
:104C6800934222D07B681B68364A93421DD07B68EA
:104C78001B68354A934218D07B681B68334A9342B5
:104C880013D07B681B68324A93420ED07B681B683E
:104C9800304A934209D07B681B682F4A934204D05C
:104CA8007B681B682D4A934201D1012300E0002351
:104CB800002B1AD07B681B68DBB2083B284AA2FB92
:104CC80003231B09FB60FA68264B13449B001A4612
:104CD8007B681A667B68244A5A66FB6803F01F03E0
:104CE80001229A407B689A6624E07B681B68DBB2E5
:104CF800103B1E4AA2FB03231B09FB60BB681C4A2E
:104D0800934206D8BB681B4A934202D9FB68083312
:104D1800FB60FA68184B13449B001A467B681A66B6
:104D28007B68164A5A66FB6803F01F0301229A4003
:104D38007B689A6600BF1437BD465DF8047B7047F0
:104D4800085402581C54025830540258445402580B
:104D5800585402586C5402588054025894540258BB
:104D6800CDCCCCCC0096001680580258ABAAAAAA83
:104D7800B80402400F04024000820010800802407C
:104D880080B485B000AF78607B685B68DBB2FB609D
:104D9800FB68002B4AD0FB68082B47D87B681B6848
:104DA800254A934222D07B681B68244A93421DD02F
:104DB8007B681B68224A934218D07B681B68214A8B
:104DC800934213D07B681B681F4A93420ED07B68BE
:104DD8001B681E4A934209D07B681B681C4A934291
:104DE80004D07B681B681B4A934201D1012300E071
:104DF8000023002B0AD0FA68174B13449B001A466D
:104E08007B68DA667B68154A1A6709E0FA68144B0A
:104E180013449B001A467B68DA667B68114A1A6756
:104E2800FB68013B01229A407B685A6700BF143730
:104E3800BD465DF8047B7047085402581C5402585C
:104E48003054025844540258585402586C5402586A
:104E580080540258945402583F96001640590258FC
:104E68003F8200104009024080B489B000AF7860EA
:104E780039600023FB61894B7B6194E13B681A68C8
:104E88000121FB6901FA03F313403B613B69002BE5
:104E980000F086813B685B68012B0BD03B685B6840
:104EA800022B07D03B685B68112B03D03B685B681B
:104EB800122B30D17B689B68BB61FB695B000322C6
:104EC80002FA03F3DB43BA691340BB613B68DA6853
:104ED800FB695B0002FA03F3BA691343BB617B68A1
:104EE800BA699A607B685B68BB610122FB6902FA58
:104EF80003F3DB43BA691340BB613B685B681B097A
:104F080003F00102FB6902FA03F3BA691343BB61B8
:104F18007B68BA695A607B68DB68BB61FB695B00C8
:104F2800032202FA03F3DB43BA691340BB613B680F
:104F38009A68FB695B0002FA03F3BA691343BB6121
:104F48007B68BA69DA603B685B68022B03D03B6810
:104F58005B68122B23D1FB69DA087B68083253F8A7
:104F68002230BB61FB6903F007039B000F2202FAA2
:104F780003F3DB43BA691340BB613B681A69FB69F9
:104F880003F007039B0002FA03F3BA691343BB61FA
:104F9800FB69DA087B680832B96943F822107B6834
:104FA8001B68BB61FB695B00032202FA03F3DB4366
:104FB800BA691340BB613B685B6803F00302FB6995
:104FC8005B0002FA03F3BA691343BB617B68BA69F1
:104FD8001A603B685B6803F08053002B00F0E080A8
:104FE8002F4A2F4BD3F8F43043F00203C2F8F430C1
:104FF8002B4BD3F8F43003F00203FB60FB68294A1B
:10500800FB699B08023352F82330BB61FB6903F04C
:1050180003039B000F2202FA03F3DB43BA69134030
:10502800BB617B68204A934252D07B681F4A9342F7
:1050380031D07B681E4A93422BD07B681D4A93422D
:1050480025D07B681C4A93421FD07B681B4A934239
:1050580019D07B681A4A934213D07B68194A934245
:105068000DD07B68184A934207D07B68174A934251
:1050780001D109232DE00A232BE0082329E0072387
:1050880027E0062325E0052323E0042321E003236A
:105098001FE002231DE001231BE000BF8000005831
:1050A8000044025800040058000002580004025846
:1050B80000080258000C0258001002580014025848
:1050C80000180258001C02580020025800240258F8
:1050D8000023FA6902F0030292009340BA6913436D
:1050E800BB613849FB699B080233BA6941F8232040
:1050F8007B691B68BB613B69DB43BA691340BB61D1
:105108003B685B6803F48033002B03D0BA693B69C2
:105118001343BB617B69BA691A607B695B68BB61D1
:105128003B69DB43BA691340BB613B685B6803F4C6
:105138000033002B03D0BA693B691343BB617B6919
:10514800BA695A604FF0B0431B68BB613B69DB43E7
:10515800BA691340BB613B685B6803F48013002B9A
:1051680003D0BA693B691343BB614FF0B042BB69D6
:1051780013604FF0B0435B68BB613B69DB43BA69BE
:105188001340BB613B685B6803F40013002B03D03A
:10519800BA693B691343BB614FF0B042BB695360C6
:1051A800FB690133FB613B681A68FB6922FA03F368
:1051B800002B7FF463AE00BF2437BD465DF8047B47
:1051C800704700BF0004005880B483B000AF786017
:1051D8000B467B8013467B707B78002B03D07A8844
:1051E8007B689A6103E07B881A047B689A6100BF38
:1051F8000C37BD465DF8047B704780B485B000AFBE
:1052080078600B467B807B685B69FB607A88FB680B
:1052180013401A04FB68D9437B880B401A437B6808
:105228009A6100BF1437BD465DF8047B70470000E3
:1052380080B584B000AF7860194BDB6803F00403D5
:10524800042B0AD0164BDB6803F007027B689A42EE
:1052580001D001231FE000231DE01149104BDB683A
:1052680023F007027B681343CB60FBF73FFAF86033
:1052780009E0FBF73BFA0246FB68D31AB3F57A7FDD
:1052880001D9012307E0064B5B6803F40053B3F52B
:10529800005FEED1002318461037BD4680BD00BF21
:1052A8000048025880B58CB000AF78607B68002B4E
:1052B80001D10123FFE37B681B6803F00103002B86
:1052C80000F08780994B1B6903F03803FB62974B0A
:1052D8009B6ABB62FB6A102B07D0FB6A182B10D1A4
:1052E800BB6A03F00303022B0BD1904B1B6803F43A
:1052F8000033002B6CD07B685B68002B68D10123DE
:10530800D9E37B685B68B3F5803F06D1874A874B52
:105318001B6843F4803313602EE07B685B68002BC6
:105328000CD1824A814B1B6823F4803313607F4A77
:105338007E4B1B6823F4802313601DE07B685B6849
:10534800B3F5A02F0CD1794A784B1B6843F480231E
:105358001360764A754B1B6843F4803313600BE087
:10536800724A724B1B6823F4803313606F4A6F4B89
:105378001B6823F4802313607B685B68002B13D0C1
:10538800FBF7B4F9786208E0FBF7B0F902467B6AEC
:10539800D31A642B01D903238DE3644B1B6803F4F0
:1053A8000033002BF0D014E0FBF7A0F9786208E096
:1053B800FBF79CF902467B6AD31A642B01D90323B5
:1053C80079E35A4B1B6803F40033002BF0D100E05B
:1053D80000BF7B681B6803F00203002B00F0AE805F
:1053E800524B1B6903F038033B62504B9B6AFB61CD
:1053F8003B6A002B07D03B6A182B3AD1FB6903F0B4
:105408000303002B35D1494B1B6803F00403002B21
:1054180005D07B68DB68002B01D101234BE3FBF748
:1054280093F9024641F203039A4217D87B681B6935
:10543800402B08D13D4A3D4B5B6823F47C3343F451
:10544800003353607AE03949384B5B6823F47C3287
:105458007B681B691B0313434B606FE03349334B75
:105468005B6823F0FE427B681B691B0613434B6095
:1054780064E07B68DB68002B45D02C492B4B1B680C
:1054880023F019027B68DB6813430B60FBF72EF9E6
:10549800786208E0FBF72AF902467B6AD31A022BE6
:1054A80001D9032307E3214B1B6803F00403002BF6
:1054B800F0D0FBF749F9024641F203039A4217D8A4
:1054C8007B681B69402B08D1184A184B5B6823F48A
:1054D8007C3343F40033536030E01449134B5B686A
:1054E80023F47C327B681B691B0313434B6025E064
:1054F8000E490E4B5B6823F0FE427B681B691B0656
:1055080013434B601AE0094A084B1B6823F0010358
:105518001360FBF7EBF878620AE0FBF7E7F802465E
:105528007B6AD31A022B03D90323C4E2004402582E
:10553800A44B1B6803F00403002BEED17B681B68A7
:1055480003F01003002B00F0A9809E4B1B6903F0A9
:105558003803BB619B4B9B6A7B61BB69082B07D0F7
:10556800BB69182B3AD17B6903F00303012B35D1B2
:10557800944B1B6803F48073002B05D07B68DB69B0
:10558800802B01D0012396E2FBF7DEF8024641F2B8
:1055980003039A4217D87B681B6A202B08D1894AD3
:1055A800884B5B6823F0F84343F08043536075E011
:1055B8008449844B5B6823F0F8427B681B6A9B062E
:1055C80013434B606AE07F497E4BDB6823F07C52D3
:1055D8007B681B6A1B061343CB605FE07B68DB6953
:1055E800002B42D0774A774B1B6843F08003136047
:1055F800FBF77CF8786208E0FBF778F802467B6AEC
:10560800D31A022B01D9032355E26E4B1B6803F40E
:105618008073002BF0D0FBF797F8024641F20303A2
:105628009A4217D87B681B6A202B08D1654A654BBC
:105638005B6823F0F84343F0804353602EE06149F0
:10564800604B5B6823F0F8427B681B6A9B06134338
:105658004B6023E05B495B4BDB6823F07C527B6843
:105668001B6A1B061343CB6018E0564A554B1B6850
:1056780023F080031360FBF739F8786208E0FBF742
:1056880035F802467B6AD31A022B01D9032312E2AA
:105698004C4B1B6803F48073002BF0D17B681B68AC
:1056A80003F00803002B36D07B685B69002B19D008
:1056B800444A444B5B6F43F001035367FBF716F80A
:1056C800786208E0FBF712F802467B6AD31A022BCD
:1056D80001D90323EFE13B4B5B6F03F00203002B7F
:1056E800F0D018E0374A374B5B6F23F0010353675C
:1056F800FAF7FCFF786208E0FAF7F8FF02467B6ADF
:10570800D31A022B01D90323D5E12E4B5B6F03F08B
:105718000203002BF0D17B681B6803F02003002BE9
:1057280036D07B689B69002B19D0264A254B1B680D
:1057380043F480531360FAF7D9FF786208E0FAF768
:10574800D5FF02467B6AD31A022B01D90323B2E1A3
:105758001C4B1B6803F40053002BF0D018E0194AC7
:10576800184B1B6823F480531360FAF7BFFF786265
:1057780008E0FAF7BBFF02467B6AD31A022B01D96D
:10578800032398E10F4B1B6803F40053002BF0D15F
:105798007B681B6803F00403002B00F085800A4A2D
:1057A800094B1B6843F480731360FAF79FFF786214
:1057B8000CE0FAF79BFF02467B6AD31A642B05D9E3
:1057C800032378E10044025800480258964B1B68AE
:1057D80003F48073002BECD07B689B68012B06D107
:1057E800924A924B1B6F43F0010313672DE07B68CD
:1057F8009B68002B0CD18D4A8C4B1B6F23F0010347
:1058080013678A4A894B1B6F23F0040313671CE054
:105818007B689B68052B0CD1844A844B1B6F43F033
:1058280004031367814A814B1B6F43F0010313671D
:105838000BE07E4A7D4B1B6F23F0010313677B4A05
:105848007A4B1B6F23F0040313677B689B68002B5C
:1058580015D0FAF74BFF78620AE0FAF747FF0246DD
:105868007B6AD31A41F28832934201D9032322E199
:105878006E4B1B6F03F00203002BEED014E0FAF717
:1058880035FF78620AE0FAF731FF02467B6AD31ADD
:1058980041F28832934201D903230CE1634B1B6F19
:1058A80003F00203002BEED17B685B6A002B00F04B
:1058B80001815E4B1B6903F03803182B00F0BC8094
:1058C8007B685B6A022B40F09580584A574B1B68EF
:1058D80023F080731360FAF709FF786208E0FAF79B
:1058E80005FF02467B6AD31A022B01D90323E2E0A3
:1058F8004E4B1B6803F00073002BF0D14B484B4B09
:105908009A6A4B4B13407A68916A7A68D26A120194
:105918000A431343836245497B681B6B013BC3F30E
:1059280008027B685B6B013B5B029BB21A437B6896
:105938009B6B013B1B0403F4FE031A437B68DB6B80
:10594800013B1B0603F0FE4313430B63374A374BF7
:10595800DB6A23F00103D3623449344B5A6B354B6D
:1059680013407A68926CD20013434B632F492F4B34
:10597800DB6A23F00C027B681B6C1343CB622B4958
:105988002A4BDB6A23F002027B685B6C1343CB6211
:10599800264A264BDB6A43F48033D362234A234BDF
:1059A800DB6A43F40033D362204A204BDB6A43F4BA
:1059B8008023D3621D4A1D4BDB6A43F00103D36287
:1059C8001A4A1A4B1B6843F080731360FAF78EFE6D
:1059D800786208E0FAF78AFE02467B6AD31A022B3D
:1059E80001D9032367E0114B1B6803F00073002BF8
:1059F800F0D05FE00D4A0D4B1B6823F080731360F5
:105A0800FAF774FE786208E0FAF770FE02467B6ADD
:105A1800D31A022B01D903234DE0044B1B6803F072
:105A28000073002BF0D145E00048025800440258AA
:105A38000CFCFFFF0700FFFF214B9B6A3B61204BDB
:105A48001B6BFB607B685B6A012B31D03B6903F001
:105A580003027B689B6A9A422AD13B691B0903F0BF
:105A68003F027B68DB6A9A4222D1FB68C3F30802D3
:105A78007B681B6B013B9A421AD1FB685B0A03F0F7
:105A88007F027B685B6B013B9A4211D1FB681B0C60
:105A980003F07F027B689B6B013B9A4208D1FB684D
:105AA8001B0E03F07F027B68DB6B013B9A4201D03F
:105AB800012300E0002318463037BD4680BD00BFF3
:105AC8000044025880B586B000AF786039607B68C2
