:020000040800F2
:1000000000000220FD4A0008B5480008B948000871
:10001000BD480008C1480008C548000800000000AD
:10002000000000000000000000000000C9480008B7
:10003000CD48000800000000D1480008D54800085D
:100040004D4B00084D4B00084D4B00084D4B000830
:100050004D4B00084D4B00084D4B00084D4B000820
:100060004D4B00084D4B00084D4B00084D4B000810
:100070004D4B00084D4B00084D4B00084D4B000800
:100080004D4B00084D4B00084D4B00084D4B0008F0
:100090004D4B00084D4B00084D4B00084D4B0008E0
:1000A0004D4B00084D4B00084D4B00084D4B0008D0
:1000B000D94800084D4B00084D4B00084D4B000837
:1000C0004D4B00084D4B00084D4B00084D4B0008B0
:1000D0004D4B00084D4B00084D4B00084D4B0008A0
:1000E0004D4B00084D4B0008000000004D4B000830
:1000F0004D4B00084D4B00084D4B00084D4B000880
:100100004D4B00084D4B00084D4B00084D4B00086F
:100110004D4B00084D4B00084D4B00084D4B00085F
:100120004D4B00084D4B00084D4B00084D4B00084F
:100130004D4B00084D4B00084D4B00084D4B00083F
:1001400000000000000000000000000000000000AF
:100150004D4B00084D4B00084D4B00084D4B00081F
:100160004D4B00084D4B00084D4B00084D4B00080F
:100170004D4B00084D4B00084D4B0008000000009F
:100180004D4B00084D4B00084D4B00084D4B0008EF
:100190004D4B00084D4B00084D4B00084D4B0008DF
:1001A0004D4B00084D4B00084D4B00084D4B0008CF
:1001B0004D4B00084D4B00084D4B00084D4B0008BF
:1001C0004D4B00084D4B00084D4B00084D4B0008AF
:1001D0004D4B00084D4B00084D4B00084D4B00089F
:1001E0004D4B00084D4B00084D4B00084D4B00088F
:1001F0004D4B00084D4B00084D4B00084D4B00087F
:100200004D4B00084D4B00084D4B00084D4B00086E
:100210004D4B00084D4B00084D4B00084D4B00085E
:100220004D4B00084D4B00084D4B000800000000EE
:100230004D4B00084D4B0008000000004D4B0008DE
:100240004D4B00084D4B00084D4B00084D4B00082E
:100250004D4B00084D4B00084D4B00084D4B00081E
:100260004D4B00084D4B00084D4B00084D4B00080E
:100270004D4B00084D4B00084D4B0008000000009E
:100280004D4B00084D4B00084D4B0008000000008E
:08029000000000004D4B0008C6
:1002980010B5054C237833B9044B13B10448AFF3B8
:1002A80000800123237010BD2000002400000000FE
:1002B800A84B000808B5034B1BB103490348AFF32B
:1002C800008008BD0000000024000024A84B00089E
:1002D8000F4B1B780BB9012070474FF47A720D4908
:1002E800B2FBF3F310B504460868B0FBF3F000F076
:1002F80085FD0F2C0AD848B9002221464FF0FF305F
:1003080000F034FD044B00201C6010BD012010BD1E
:1003180000000024140000240400002430B5032049
:1003280083B000F00FFD124C01F002FB114A124994
:1003380093699269C3F30323104D02F00F02CB5C5B
:100348008A5C03F01F0302F01F0220FA03F3002067
:1003580023FA02F22B602260FFF7BAFF10B10120E6
:1003680003B030BD019004F08FFA019803B030BD9E
:100378001800002400440258C04B00081400002450
:10038800034A044B11681B780B441360704700BF85
:100398009000002400000024014B1868704700BF3B
:1003A8009000002438B50446FFF7F6FF0546631CA5
:1003B80002D0044B1B781C44FFF7EEFF401B84421D
:1003C800FAD838BD00000024014B1868000C7047AB
:1003D8000010005C034A536823EA00000843506099
:1003E800704700BF000400580246002092F85030C1
:1003F800F0B5012B83B0019000F0B08014680123A0
:10040800A06882F85030470709D5516D184641F069
:1004180020015165002382F8503003B0F0BD0D680B
:10042800C5F31300002800F09C8095FAA5F010B1E0
:10043800B0FA80F08340C5F384654E684FF01F0E14
:10044800E069B70906EA0E06034304F1300007F035
:100458000C070EFA06FEE361B5403B5823EA0E038B
:100468001D433D50A368A06803F00403060759D450
:10047800002B57D10D6804F1140607208F684FEA46
:10048800D55EC5F304550EF0040E00FA05FC07FA14
:1004980005F5BD4F5EF8060020EA0C0028434EF82B
:1004A8000600386800F07040B0F1805FE06861D005
:1004B80010F0100F4D69E06857D1C0F3820040007A
:1004C80085400F69042F00F0838004F160060868F6
:1004D80091F819E056F827C000F0F840BEF1010F76
:1004E80091F818E00CF0004C40EA0C0014BF4FF0F3
:1004F800000C4FF0004CBEF1010F40EA050046F831
:1005080027000D6956F8250020F0004040EA0C004D
:1005180046F82500086900F0A480206920F4F0401E
:1005280003432361A368DD0716D4CE680B6806F081
:1005380018079648D4F8C050F840C3F31307DFF8FB
:1005480070E2184025EA0705764540EA0500C4F838
:10055800C00015D0002B59DB00205BE7022003B058
:10056800F0BDC5F38465AB4067E7400800F00800BC
:100578008540A6E7C0F382004D6940008540A0E7AA
:10058800002F74D19B0E581C00F01F06092E00F294
:10059800C9808006012506EB460300F0F84005FAFD
:1005A80006F61B0530430343DF0D04F11405C3F3BE
:1005B80004534FF0070E07F004078E680EFA03FE87
:1005C80078599E4020EA0E0333437B510B68C1E7FC
:1005D800206E0B6800F0F8409B06984200F0988067
:1005E800606E00F0F840834200F08D80A06E00F04D
:1005F800F840834200F09180E06E00F0F8408342BA
:1006080090D1E36E23F00043E3668BE760498C42A8
:1006180064D001F580718C4260D05E4E5E4DA86852
:10062800B16800F0E076C94301F00101002964D007
:100638005A498B4200F0BE8059498B4200F0EA804B
:1006480058498B4288D1430286D4524B9C4283D16D
:10065800A96846F48003002021F0E0710B43AB60E9
:10066800D8E600F01F004FF40063834055E793FA83
:10067800A3F0002864D0B0FA80F0013000F01F0029
:1006880009285DD993FAA3F5002D00F0B480B5FAD6
:1006980085F50135AD0605F0F84593FAA3F0002875
:1006A80000F0AE800126B0FA80F0304400F01F0060
:1006B80006FA00F0054393FAA3F3002B00F09E809E
:1006C800B3FA83F0013000F01F0000EB4000A0F106
:1006D8001E031B0543F000732B4365E73249334E75
:1006E8002B4F0D468868BF68B16800F0E076394343
:1006F80001F0010181F0010198E7536D012043F0F9
:100708002003536586E6606E20F0004060666DE762
:10071800206E20F00040206662E7A06E20F00040C6
:10072800A06669E706EB4603012785061E3B07FA24
:1007380006F605F0F8451B05354343F00073CBE793
:1007480093FAA3F0002862D0B0FA80F00130800656
:1007580000F0F84093FAA3F5002D56D00126B5FA1B
:1007680085F5354405F01F0506FA05F5284393FA83
:10077800A3F3002B46D0B3FA83F3013303F01F032E
:1007880003EB43031B050EE70010005CFFFF0F009F
:10079800002002400060025800630258000084CB29
:1007A800000052C70000B8CF0023024000210240D9
:1007B8000000FF4700023FF5CFAE1E4B9C427FF47E
:1007C800CBAE1D4B46F400011C4C1B68A868B3FB5C
:1007D800F4F320F0E070013301435B00A96001935A
:1007E800019B002B3FF4B8AE019B013B0193019B99
:1007F800002BF9D1B0E64FF080654EE7104B6BE760
:10080800022057E74FF44013CDE60225AEE74FF03C
:1008180080609FE7C1013FF59FAE064B9C427FF485
:100828009BAEA96846F08073002021F0E0710B436D
:10083800AB60EFE50060025814000024400D03008F
:10084800000050FE02689168CB0701D50020704770
:1008580070B5244904469068084208D0626D0120AA
:1008680042F010026265A26D0243A26570BD9168F4
:100878001D4B0B4043F001039360FFF78DFD236888
:100888001A4A054693420CD002F58072934208D06A
:10089800174A9268D60606D0164A934203D100201A
:1008A80070BD154AF5E7104E1A68D207F7D49A6852
:1008B800D00704D49A68324042F001029A60FFF7E8
:1008C8006BFD401B23680228EED91A68D107EBD4C8
:1008D800636D012043F010036365A36D0343A365B3
:1008E80070BD00BF3F000080C0FFFF7F00200240B6
:1008F80000630258002102400023024038B5534AE1
:1009080005460368934227D002F58072934223D0AC
:100918004F4B9B6813F4403F14BF0123002323B3BC
:1009280001F0CEF96B680446B3F5003F5ED0B3F52D
:10093800403F74D0B3F5803F58D0FFF745FD41F2F2
:100948000303984232D8434B9C4228D92A689368BB
:1009580043F48073936038BD3F4B9B6813F4403F6A
:1009680014BF01230023002BDAD14FF4002002F03A
:1009780043FA6B680446B3F5C01F45D03AD9B3F5BE
:10098800101F58D022D9B3F5201F52D0B3F5301F0D
:10099800D3D1FFF719FD41F20303984205D82A681D
:1009A800936823F48073936038BD240A64082B4B42
:1009B8009C422ED92A4B9C4210D92A4B2A689C4229
:1009C80093682ED943F44073936038BDB3F5E01FA4
:1009D8002DD0B3F5001FB0D14409AEE72A6893685B
:1009E80023F4407343F48073936038BD1B0CB4FB4D
:1009F800F3F4A2E7B3F5402F06D01ED8B3F5802F45
:100A080002D0B3F5002F98D19B0C5B00B4FBF3F434
:100A180093E72A68936823F44073936038BD840889
:100A28008BE723F4407343F40073936038BD0409E3
:100A380083E7C40981E784097FE7B3F5801FE3D022
:100A4800B3F5A01F7FF479AFDEE700BF00200240B6
:100A580000630258002D310100230240105E5F0040
:100A680020BCBE0040787D01F0B5002383B001931F
:100A7800002800F0CC80456D0446002D00F0B580BC
:100A8800226893689D0003D59168724B0B40936070
:100A98009368D80016D4704B704D1B6890689B09FA
:100AA8006F49A5FB035301409B0941F08051013375
:100AB80091600193019B2BB1019B013B0193019B29
:100AC800002BF9D19368D90013D4636D012543F045
:100AD80010036365A36D2B43A36593685B070CD56F
:100AE800636D636D012543F010032846636503B009
:100AF800F0BD936800255B07F2D4636DDB06F0D484
:100B0800636D23F4817343F0020363659368DF0721
:100B18001AD4544B9A4209D003F580739A4205D0EF
:100B2800514B9B68D8070FD4504A07E04D4A504BA9
:100B380092689B681343DE0706D44E4A936861683F
:100B480023F47C130B439360FFF73EFC41F203034D
:100B5800A16898424FD8237F667D1A04206B42EA29
:100B6800463202430A43012B55D0636A23B103F48A
:100B78007873A16A0B431A4323683F49D868014038
:100B88000A43DA609A68996802F0040209071CD4DB
:100B9800DAB9D968394A267D0A40E06A94F83810EB
:100BA80042EA8632012942EA0002DA6040D01A6934
:100BB80022F001021A611A692046616B22F0704224
:100BC8000A431A61FFF79AFE2368E268012A27D0D0
:100BD8001A6B22F00F021A63636D284623F0030391
:100BE80043F00103636503B0F0BD03F027F9A56581
:100BF80084F8505044E71029ADD1236B617D43F050
:100C08001C02237F42EA413242EA0342ABE7012554
:100C1800284603B0F0BD236A013B42EA4342A4E7F9
:100C2800196BA26921F00F01013A0A431A63D3E74D
:100C3800616C226CA06C0A431F69114E42F00102DC
:100C4800E16B3E4002430139324342EA01421A61F4
:100C5800B1E700BFC0FFFF5F14000024632D3E050D
:100C6800C0FFFF6F00200240006002580063025876
:100C7800002102400023024003C0F0FFFCBFFFFF39
:100C88001EF800FC90F85020012A39D003460022B3
:100C98000120F0B4274C9AB01D681692A5420E6840
:100CA800179283F8500008D0596D83F8502041F00E
:100CB800200159651AB0F0BC70471F4CA068AA689B
:100CC800570712D4420710D4E6B91C4A916821F498
:100CD80040419160A968A068084310F0010026D13E
:100CE800946817492140916004E05A6D012042F050
:100CF80020025A65002283F850201AB0F0BC7047D1
:100D0800022070470D4F4868BA6822F440420243F7
:100D1800BA60AA68A068104310F0010007D18A6879
:100D2800BC680749164321400E43BE60E2E7002035
:100D3800E0E700BF002002400021024000230240FB
:100D4800E0F0FFFF07490002074BCA6800F4E060C3
:100D580010B44FF6FF0422405DF8044B13431843C8
:100D6800C860704700ED00E00000FA05194B70B448
:100D7800DC68C4F30224C4F10706231D042E28BF2F
:100D88000426062B19D9033C0125A540013D2A401C
:100D98000123002803FA06F303F1FF3301EA0301F4
:100DA80001FA04F141EA02010ADB09010A4BC9B25E
:100DB800034483F8001370BC704700221446E7E729
:100DC80000F00F000901054BC9B20344197670BC45
:100DD800704700BF00ED00E000E100E0FCEC00E03F
:100DE800002807DB012300F01F01034A40098B405C
:100DF80042F82030704700BF00E100E00138B0F150
:100E0800807F0DD2074B0022072130B4F025064C15
:100E18005860104684F823509A60196030BC7047B7
:100E28000120704710E000E000ED00E088B1037990
:100E380010B503F0FF0204463BB100230221012252
:100E4800217118462361227110BD427103F082F8A6
:100E5800F3E70120704700BF4379012B48D00223F4
:100E68002DE9F041044608681746012204280E4679
:100E7800627123713ED007F0100225683369012B97
:100E88007AD00721F768EB6B9140012F23EA010123
:100E98006FD0022FB76879D0B7FA87F35B093B4365
:100EA8004FF48048766840F6FE77034308FA02F864
:100EB800974096409340C0204FF0000E4FF0010C31
:100EC8000B4300FA02F17046EB632B6823EA080330
:100ED8002B602B6823EA070333432B602A6822EA36
:100EE80001022A6084F804C084F805E0BDE8F081B6
:100EF80002207047FFF750FA05467FBBDFF8A48051
:100F080004E0FFF749FA401B012841D823685B6BCE
:100F180013EA080FF5D10120FFF744FA2568B369F1
:100F28002B6407F0100240F2FF37A96CFF23F06929
:100F3800974003FA02FE21EA07019040376A01430D
:100F480030689740A964EB6C23EA0E033B43EB64DB
:100F580094E7FFF721FA401B012819D823685B6B37
:100F6800002BF6DB0120FFF71DFA2568B3696B64D7
:100F7800D7E7B768002392E71F27A96B73699740E3
:100F8800934021EA07010B43AB637AE7012386E725
:100F98002369032243F00803104623612271BDE848
:100FA800F08100BF008000202DE9F04FD1F800E06B
:100FB80083B0BEF1000F00F0CB8000268C46DFF82E
:100FC80004B235469FE0B240D243C468B8F1020F7C
:100FD800DCF8083004EA020403FA06F343EA0403DF
:100FE800C36013D1EC0805F007094FF00F08DCF8CF
:100FF800103000EB84044FEA8909276A08FA09F8D7
:1010080003FA09F327EA08073B432362046801F05F
:101018000303CF0004EA02041A4602FA06F242EA7F
:10102800040202606AD55D4B25F003045B4A4FF069
:101038000F08D3F8F47004F1B04405F0030347F047
:10104800020704F580649B00C2F8F470D2F8F470CB
:1010580008FA03F807F002070197514F019AB842BE
:10106800A26822EA080276D007F58067B84274D0F1
:101078004C4FB84275D04C4FB84276D04B4FB8421F
:1010880077D04B4FB84278D04A4FB84279D04A4FC0
:10109800B8427AD0494FB8427BD0494FB8420CBFCA
:1010A80009270A2707FA03F313436FEA0A07A3601D
:1010B800CC03DBF8003054BF3B404AEA03038A0301
:1010C8004FF0B042CBF80030DBF8043054BF3B405F
:1010D8004AEA0303CC02CBF804304FF0B04312685D
:1010E80054BF3A404AEA02021A608A025B684FF02B
:1010F800B04254BF3B404AEA03035360013502360D
:101108003EFA05F324D00123AB4013EA0E0AF5D0CA
:10111800DCF8041021F0100808F1FF32012A4FF022
:1011280003023FF650AFB240D0F80890DCF80C70DC
:10113800C1F30014D243B740AC4009EA020947EAB8
:1011480009078760476827EA03031C4344603CE7B4
:1011580003B0BDE8F08F0023A6E7012707FA03F3E1
:10116800A2E7022707FA03F39EE7032707FA03F328
:101178009AE7042707FA03F396E7052707FA03F324
:1011880092E7062707FA03F38EE7072707FA03F320
:101198008AE7082707FA03F386E700BF00440258E6
:1011A8000000025800080258000C025800100258AB
:1011B8000014025800180258001C02580020025857
:1011C800002402588000005802B909048161704760
:1011D800436903EA010221EA030141EA024181610C
:1011E800704700BF38B5114BDA68520706D4DB6880
:1011F80003F00703181A18BF012038BDDA681C4627
:1012080022F007021043D860FFF7C6F8054605E04C
:10121800FFF7C2F8401BB0F57A7F04D863689B04D7
:10122800F6D5002038BD012038BD00BF004802585F
:101238003B4B996A986ADA6AC0F3051010B45C6B84
:10124800C0B3C4F3CC0402F0010201F0030102FBB5
:1012580004F2012907EE902AB8EEE76A02D033D3E8
:1012680002292AD007EE900A9FED2E7AF8EEE77A47
:101278001B6BC7EE276ADFED2C5AC3F3080307EE92
:10128800103AB7EE005AB8EEC77A37EE057AA6EEEE
:10129800257A27EE267A224B1B6BC3F346230133AC
:1012A80007EE903AF8EEE76AC7EE267AFCEEE77AA0
:1012B80017EE900A5DF8044B704707EE900A9FED11
:1012C8001B7AF8EEE77AD3E71A68920620D51968F0
:1012D80007EE900A164AF7EE004AC1F3C101F8EE8C
:1012E800E77A1B6BCA409FED105AC3F3080306EE5A
:1012F800902A07EE103AF8EEE65AB8EEC77AC5EE2D
:10130800A76A37EE247AA6EE057A26EE877AC2E730
:1013180007EE900A9FED077AF8EEE77AA8E700BF94
:10132800004402580024744A000000390024F44A9A
:101338000090D0030024744C002800F0AB82F8B56C
:1013480003680446D9072ED5B3490A69896A02F0A9
:101358003802102A00F09581182A00F08D81636800
:10136800B3F5803F00F0BE81002B00F01181B3F58A
:10137800A02FA94B1A6800F01A8222F480321A6052
:101388001A6822F480221A60FFF706F8A24D064672
:1013980005E0FFF701F8801B642800F26B812B68D9
:1013A8009F03F6D52368990734D59B4A1369926A37
:1013B80013F0380300F0BD80182B00F0B780E26806
:1013C800002A00F0958194490B680D4623F0190313
:1013D80013430B60FEF7E0FF064605E0FEF7DCFF6F
:1013E800801B022800F246812B685F07F6D5FEF7BE
:1013F800EBFF41F20303984200F2578222696B68BF
:10140800402A23F47C330CBF43F4003343EA02330D
:101418006B602368D90634D57F4A1369926A03F052
:101428003803082B00F00A81182B00F00281E369C9
:10143800002B00F03081784B1A681D4642F080027C
:101448001A60FEF7A9FF064605E0FEF7A5FF801B18
:10145800022800F20F812B68DB05F6D5FEF7B4FFF2
:1014680041F20303984200F26B81226A6B68202ADA
:1014780023F0F8430CBF43F0804343EA82636B6078
:1014880023681D0716D56369002B6ED0624B5A6F0F
:101498001D4642F001025A67FEF77EFF064605E048
:1014A800FEF77AFF801B022800F2E4806B6F980732
:1014B800F6D523689A0617D5A369002B00F0FF809C
:1014C800554B1A681D4642F480521A60FEF764FFB5
:1014D800064605E0FEF760FF801B022800F2CA807E
:1014E8002B689F04F6D52368590768D4606AD8B179
:1014F800494B1A6902F03802182A00F02A8102289A
:101508001A6800F05C8122F080721C461A60FEF7AF
:1015180043FF054605E0FEF73FFF401B022800F2A7
:10152800A98023689B01F6D40020F8BD92077FF4B8
:1015380046AF394B1B685B0703D5E368002B00F007
:101548008480FEF741FF41F20303984200F2E480F1
:101558002269402A00F0A0812F494B6823F47C338C
:1015680043EA02334B60236854E72B4B5A6F1D46FE
:1015780022F001025A67FEF70FFF064604E0FEF765
:101588000BFF801B022875D86B6F9907F7D490E77B
:10159800214B1A681D4622F480321A601A6822F418
:1015A80080221A60FEF7F8FE064604E0FEF7F4FE15
:1015B800801B64285ED82B689803F7D4F2E6174B93
:1015C8001A681D4642F480721A60FEF7E5FE064668
:1015D80004E0FEF7E1FE801B64284BD82B68DA058F
:1015E800F7D5A368012B00F08981002B00F06681F4
:1015F800052B094B1A6F00F0908122F001021A673F
:101608001A6F22F004021A67FEF7C6FE024D07465B
:1016180041F2883609E000BF0044025800480258E9
:10162800FEF7BAFEC01BB04224D82B6F9B07F7D534
:101638005CE702F00302012A7FF4F9AEAC4B1B68A9
:10164800DA0504D5E369802B01D00120F8BDFEF747
:10165800BBFE41F20303984268D8226A202A00F0B0
:101668005381A3494B6823F0F84343EA82634B60F4
:10167800236806E70320F8BD01F0030102297FF47F
:101688006EAE9B4A126892037FF58DAE6268002A9F
:101698007FF489AED9E7964B1A681D4622F080027E
:1016A8001A60FEF779FE064604E0FEF775FE801B19
:1016B8000228DFD82B68DF05F7D42368E1E68C4BD6
:1016C8001A681D4622F480521A60FEF765FE064627
:1016D80004E0FEF761FE801B0228CBD82B68980433
:1016E800F7D400E7824A136843F4803313604BE66B
:1016F8007F4B1A681D4622F001021A60FEF74CFE65
:10170800064604E0FEF748FE801B0228B2D82B6884
:101718005807F7D423687DE6754A2169536823F092
:10172800FE4343EA01635360236873E6704A216A03
:10173800D36823F07C5343EA0163D3602368A0E6AF
:10174800EB68226A23F07C5343EA0263EB60236868
:1017580097E601289A6A1D6B28D002F00303A16A54
:101768008B427FF472AFC2F30512E36A9A427FF4A8
:101778006CAF236BC5F30802013B9A427FF465AF57
:10178800636BC5F34622013B9A427FF45EAFA36BBD
:10179800C5F30642013B9A427FF457AFE06BC5F3AD
:1017A80006650138281A18BF0120F8BDF8BD42F4B3
:1017B80080221A601A6842F480321A60E4E522F046
:1017C80080721D461A60FEF7E7FD064605E0FEF743
:1017D800E3FD801B02283FF64DAF2B689901F6D434
:1017E800AA6A444BA06A1340E26A43490343404E45
:1017F80043EA0213AB62A26B636B206B571E013B7B
:10180800E26B00F1FF3E38045B02013A00F4FE008F
:10181800CEF308079BB21206034302F0FE423B4395
:1018280013432B63EB6A23F00103EB626A6BA36C2F
:10183800114041EAC3016963EB6A226C23F00C038F
:101848001343EB62EB6A626C23F002031343EB620F
:10185800EB6A43F48033EB62EB6A43F40033EB62E8
:10186800EB6A43F48023EB62EB6A43F00103EB621B
:101878002B6843F080732B60FEF78EFD044605E06D
:10188800FEF78AFD001B02283FF6F4AE33689A0182
:10189800F6D549E601207047154A536823F47C338E
:1018A80043F4003353602368B4E56B68226923F07E
:1018B800FE4343EA02636B602368ABE50C4B41F2DD
:1018C80088371A6F1D4622F001021A671A6F22F034
:1018D80004021A67FEF760FD064605E0FEF75CFDA8
:1018E800801BB8423FF6C6AE2B6F9807F6D4FDE5CD
:1018F800004402580CFCFFFF0700FFFF0B4A136F60
:1019080043F0010313677FE6084A536823F0F8435E
:1019180043F0804353602368B3E542F004021A673A
:101928001A6F42F001021A676EE600BF00440258BF
:10193800464A136903F03803102B4DD0182B07D0F3
:101948000BB1434870471368990647D4414870471C
:10195800916A906AD36AC0F3051010B4546BC0B38F
:10196800C4F3CC0403F0010301F0030103FB04F307
:10197800012907EE903AB8EEE76A02D03BD3022974
:1019880032D007EE900A9FED347AF8EEE77A136BBF
:10199800C7EE276ADFED315AC3F3080307EE103AA2
:1019A800B7EE005AB8EEC77A37EE057AA6EE257A72
:1019B80027EE267A254B1B6BC3F34623013307EE2C
:1019C800903AF8EEE76AC7EE267AFCEEE77A17EE69
:1019D800900A5DF8044B70472148704713681D480A
:1019E800C3F3C103D840704707EE900A9FED1D7AF4
:1019F800F8EEE77ACBE713689B0620D5136807EE65
:101A0800900A1449F7EE004AC3F3C100F8EEE77AEA
:101A1800136BC1409FED115AC3F3080306EE901AE9
:101A280007EE103AF8EEE65AB8EEC77AC5EEA76A9E
:101A380037EE247AA6EE057A26EE877ABAE707EE1D
:101A4800900A9FED097AF8EEE77AA0E70044025879
:101A580000093D000090D0030024744A00000039BA
:101A680000127A000024F44A0024744C78B18E4A9B
:101A7800136803F00F038B420BD2136823F00F0394
:101A88000B431360136803F00F03994201D0012040
:101A9800704703682DE9F0415F070BD5834C056952
:101AA800A26902F07002954204D9A26922F070027C
:101AB8002A43A2611E070BD57C4C4569E26902F0F6
:101AC8007002954204D9E26922F070022A43E26169
:101AD800DD060BD5754C8569E26902F4E062954232
:101AE80004D9E26922F4E0622A43E2619C060BD53C
:101AF8006E4CC569226A02F07002954204D9226AC6
:101B080022F070022A4322620D469907044614D433
:101B1800DA071CD464490A6802F00F02954258D2C9
:101B28000A6822F00F022A430A600A6802F00F02CC
:101B380095424ED00120BDE8F0815C48E168826999
:101B480002F00F02914200F29A80D80730D5574A26
:101B5800A168936923F470630B4393616368126807
:101B6800022B00F09980032B00F08F80012B00F0EE
:101B780097805007DED54D4941F288380A690E46EC
:101B880022F0070213430B61FEF706FC074604E048
:101B9800FEF702FCC01B40457BD83369626803F03E
:101BA8003803B3EBC20FF3D123689907B2D5E168C4
:101BB8003E48826902F00F029142ABD2826922F05C
:101BC8000F021143816138490A6802F00F029542F9
:101BD800A6D35A070BD5354920698A6902F07002E5
:101BE800904204D28A6922F0700202438A611F0778
:101BF8000BD52E496069CA6902F07002904204D27E
:101C0800CA6922F070020243CA61DE060BD5274971
:101C1800A069CA6902F4E062904204D2CA6922F457
:101C2800E0620243CA619D060BD5204AE169136A46
:101C380003F07003994204D2136A23F070030B4334
:101C48001362FFF775FE194A194993699269C3F33C
:101C58000323184D02F00F02174CCB5C8A5C03F08B
:101C68001F03164902F01F0220FA03F3286823FA1B
:101C780002F20B602260BDE8F041FEF729BB8269E1
:101C880022F00F020A4382615FE797013FF573AFC5
:101C980050E70320BDE8F08192033FF56CAF49E7B8
:101CA800D6053FF568AF45E70020005200440258CA
:101CB800C04B00080400002418000024140000246D
:101CC800184A38B5136903F03803102B22D0182BA3
:101CD8001DD0BBB11448134B14499A699B69C2F3D0
:101CE8000322134C03F00F03124D8A5CCB5C02F005
:101CF8001F0203F01F0320FA02F222FA03F02A60FF
:101D0800206038BD13689B0606D40B48E3E7FFF74D
:101D18008FFAE0E70948DEE712680748C2F3C10214
:101D2800D040D8E70044025800093D00C04B0008E5
:101D380018000024140000240090D00300127A0038
:101D48003B4AF8B5936A03F00303032B69D0136881
:101D58000F460646144623F080631360FEF71CFB0B
:101D6800054604E0FEF718FB401B022857D82368F5
:101D78001A01F7D4A36A326823F47C332D4943EA65
:101D88000233A362F268B368551E7068013B32697A
:101D98002D0401385B02013A05F4FE05C0F3080082
:101DA8009BB212062B4302F0FE4203431343A36384
:101DB800E36A726923F0C0031343E362E36AB2691A
:101DC80023F020031343E362E36A23F01003E36282
:101DD800E26BF369114041EAC301E163E36A43F04E
:101DE8001003E362E36AF7B1012F0CBF43F48013D9
:101DF80043F40013E3620E4B1A681C4642F08062FB
:101E08001A60FEF7C9FA054604E0FEF7C5FA401B5A
:101E1800022804D823681B01F7D50020F8BD032049
:101E2800F8BD0120F8BD43F40023E362E3E700BFF7
:101E3800004402580700FFFF3B4AF8B5936A03F0D5
:101E48000303032B69D013680F460646144623F094
:101E580080531360FEF7A0FA054604E0FEF79CFAEB
:101E6800401B022857D823689A00F7D4A36A32681F
:101E780023F07C732D4943EA0253A362F268B368E6
:101E8800551E7068013B32692D0401385B02013A26
:101E980005F4FE05C0F308009BB212062B4302F0BE
:101EA800FE42034313432364E36A726923F44063E5
:101EB8001343E362E36AB26923F400731343E362F2
:101EC800E36A23F48073E362626CF369114041EAC8
:101ED800C3016164E36A43F48073E362E36AF7B1C0
:101EE800012F0CBF43F4000343F08073E3620E4BF1
:101EF8001A681C4642F080521A60FEF74DFA0546F1
:101F080004E0FEF749FA401B022804D823689B0026
:101F1800F7D50020F8BD0320F8BD0120F8BD43F433
:101F28008003E362E3E700BF004402580700FFFFB5
:101F38002DE9F8430368044613F0006615D0426E95
:101F4800B2F5801F00F0498440F2FA84B2F5001F10
:101F580000F00384B2F5401F40F01785A248002620
:101F6800016D21F440110A430265DD050AD5626D51
:101F7800042A06D8DFE812F0D803E203E9037E0357
:101F88007E030126354698051BD5A26D802A00F0F0
:101F98003A8400F2CA84002A00F00C84402A40F0F7
:101FA800CB840021201DFFF7CBFE23680546002DBA
:101FB80040F008848C49A06D0A6D22F4E072024357
:101FC8000A6559051FD5D4F8A420B2F5800F00F092
:101FD800FC8300F29E84002A00F0D483B2F5001F2F
:101FE80040F09F840021201DFFF7AAFE23680546C4
:101FF800002D40F0CF837C49D4F8A4008A6D22F4E8
:10200800600202438A651A051FD5D4F8A820B2F1E8
:10201800007F00F0E88300F29B84002A00F0BC8374
:10202800B2F1807F40F09C840021201DFFF788FEDC
:1020380023680546002D40F0B7836B49D4F8A80003
:102048008A6D22F0E06202438A659F010DD5A26C79
:10205800102A00F0268340F29384202A00F0FB82A5
:10206800302A00F0FE8201263546D8041DD5E26DDF
:10207800B2F5005F00F0BF8300F27684002A00F01A
:102088007783B2F5805F40F077840021201DFFF749
:1020980057FE23680546002D40F072835249E06DD3
:1020A8000A6D22F4E04202430A6599041BD5226EA8
:1020B800B2F5003F00F0208300F208844AB1B2F57F
:1020C800803F40F00F840121201DFFF739FE23686F
:1020D8000546002D40F01A834349206E0A6D22F40C
:1020E800E02202430A655A041DD5D4F8AC20B2F1A7
:1020F800005F00F00D8300F2DA834AB1B2F1805F2D
:1021080040F0E1830121201DFFF71AFE23680546F0
:10211800002D40F007833449D4F8AC008A6D22F0D2
:10212800E04202438A651F040DD5E26EB2F1805F7A
:1021380000F0C082B2F1005F00F0B481002A00F024
:10214800B78101263546D80119D5626C032A00F2F9
:102158004984DFE812F00A00510204000A00022153
:10216800201DFFF7EDFD23680546002D40F04C8249
:102178001D49606CCA6C22F003020243CA6459020A
:1021880000F1CA81DF0742D5A26F282A00F25883DE
:10219800DFE812F03300560356035603560356037E
:1021A8005603560352025603560356035603560364
:1021B800560356032C00560356035603560356037C
:1021C8005603560333005603560356035603560365
:1021D8005603560333005603560356035603560355
:1021E80056035603330000BF00440258012104F18E
:1021F8002400FFF721FE23680546002D40F02582C4
:10220800B149A06F4A6D22F0380202434A65980727
:102218001CD5626F052A00F2E983DFE812F00D0091
:10222800F70106000D000D000D00012104F1240046
:10223800FFF702FE23680546002D40F0F081A24911
:10224800606F4A6D22F0070202434A6559071ED59E
:10225800D4F89020052A00F2C283DFE812F00D00BE
:10226800E20106000D000D000D00012104F124001B
:10227800FFF7E2FD23680546002D40F0DB81924917
:10228800D4F890008A6D22F0070202438A659A0604
:102298001DD5D4F88C20B2F1005F00F0F68100F271
:1022A80025834AB1B2F1805F40F02C830021201DC4
:1022B800FFF746FD23680546002D40F0F08182496E
:1022C800D4F88C004A6D22F0E04202434A655F066A
:1022D8001DD5D4F89820B2F5006F00F0F58100F212
:1022E800D7824AB1B2F5806F40F0DE820021201D0E
:1022F800FFF726FD23680546002D40F0EF8172495F
:10230800D4F898008A6D22F4E05202438A651806D0
:102318001DD5D4F89C20B2F5804F00F0E18100F281
:10232800A8824AB1B2F5005F40F0AF820021201DBB
:10233800FFF706FD23680546002D40F0DB81624962
:10234800D4F89C008A6D22F4604202438A6519071A
:102358000BD5D4F88010B1F5805F00F07F825A4821
:10236800426D22F440520A434265DA060BD5D4F88E
:102378009410B1F5807F00F066825348826D22F494
:1023880040720A4382651F030ED5D4F8A010B1F538
:10239800803F00F0AE80B1F5003F00F0B180002929
:1023A80000F044820126354658030FD5D4F884201E
:1023B800B2F5001F00F08A80B2F5401F00F08D8052
:1023C800B2F5801F00F0288201263546D90317D5BB
:1023D800E26C002A00F00A81B2F5803F40F0F180FB
:1023E8000221201DFFF7ACFC23680546002D40F0B4
:1023F800CF823549E06CCA6C22F480320243CA6449
:102408009A0000F1CB809F033BD4301C18BF0120F9
:10241800DE0206D52C49256F0A6D22F000422A43B8
:102428000A65DD0007D52849D4F8B4500A6922F4B2
:1024380080422A430A61990206D52349A56E0A6D8E
:1024480022F080722A430A655A0009D51E4A11698A
:1024580021F4004111611169D4F8B8502943116180
:10246800002BC0F2A6801B0209D5174AD4F88810A1
:10247800536D23F440030B435365BDE8F883BDE86F
:10248800F883E26FB2F5807F00F09E8040F2DF8033
:10249800B2F5007F00F09D80B2F5407F00F0998092
:1024A8000120B5E70121201DFFF74AFC23680546F6
:1024B800002D40F007810449E06E0A6D22F0405279
:1024C80002430A653FE600BF00440258012104F1B7
:1024D8002400FFF7B1FC23680546002D40F0A481D5
:1024E800B249D4F884004A6D22F4401202434A6586
:1024F8006CE7022104F12400FFF79EFC23680546DF
:10250800002D40F09B81A949D4F8A0008A6D22F4DF
:10251800403202438A6547E7A54B1A681F4642F4D2
:1025280080721A60FDF738FF804606E0FDF734FF39
:10253800A0EB0800642800F2E8813B68DA05F5D5CD
:10254800002D40F04882994AD4F8B030116F5940B4
:1025580011F4407F0BD0116F106F21F4407140F4DB
:1025680080301067106F20F4803010671167B3F562
:10257800807F00F01D8203F44072B2F5407F00F0C6
:102588000D828A490A6922F47C520A61874AC3F398
:102598000B03116F0B4313672368F3E5022104F162
:1025A8002400FFF749FC236800283FF42CAF0126DC
:1025B80029E77E49256DCA6C22F040522A43CA6435
:1025C80051E7012635461BE77848C16A41F40031D6
:1025D800C162002D7FF464AF744D301C696D18BF63
:1025E800012021F440710A436A6511E76F49CA6AFC
:1025F80042F40032CA62F9E66C49CA6A42F400320F
:10260800CA62002D3FF4B4AD2E46B8E50121201D65
:10261800FFF796FB05462368002D3FF410AE2E46C3
:1026280014E60121201DFFF78BFB05462368002DCA
:102638003FF425AE2E462AE60121201DFFF780FB38
:1026480005462368002D3FF4DBAD2E46DFE5002A62
:102658007FF426AFBDE70221201DFFF771FB236839
:1026680005462DBB5149A06CCA6C22F030020243CA
:10267800CA64FAE43546002D5ED14C49606D0A6D96
:1026880022F0070202430A657DE4022104F12400D6
:10269800FFF7D2FB05462368002D3FF410AE2E4607
:1026A80015E64249CA6A42F40032CA62002DD9D0FE
:1026B8002E46DAE43D49CA6A42F40032CA62002D65
:1026C8003FF4F9AE2E463EE5022104F12400FFF75F
:1026D800B3FB05462368002D3FF411AE2E4616E6DF
:1026E800022104F12400FFF7A7FB05462368002D0B
:1026F8003FF425AE2E462AE6012104F12400FFF717
:102708009BFB05462368002D3FF4E6AC2E46EAE421
:10271800012104F12400FFF78FFB05462368002DF3
:102728003FF4F9AC2E46FEE420493546CA6A42F425
:102738000032CA62002DA0D02E4624E40021201DBC
:10274800FFF7FEFA2368054695E7002104F1240007
:10275800FFF772FB236805468DE702212430FFF757
:102768006BFB0646002E00F015812368FFF7FDBBC2
:102778000E49CA6A42F40032CA62002D3FF48EAC98
:102788002E4692E40949CA6A42F40032CA62002D10
:102798003FF431AC2E4636E40449CA6A42F40032AA
:1027A800CA62002D3FF449AC2E464EE4004402585C
:1027B800004802588F49CA6A42F40032CA62002DA2
:1027C8003FF4F8AB2E46FFF7FCBB002104F12400D0
:1027D800FFF732FB236805460AE402210430FFF7BD
:1027E800AFFA0646BEE7002104F12400FFF724FBF8
:1027F800236805461EE4002104F12400FFF71CFBB2
:102808002368054647E4002104F12400FFF714FB80
:1028180023680546FFF7CBBB7649CA6A42F4003203
:10282800CA62002D3FF45CAE2E46CFE5201DFFF7AF
:1028380087FA05462368002D3FF465AE2E46B3E5BA
:1028480001263546E3E4022104F12400FFF7F4FAF7
:10285800D4F8941000B1012623688EE5022104F112
:102868002400FFF7E9FAD4F8801000B101262368A4
:1028780075E5B2F5004F3FF45FADB2F5204F3FF478
:102888005BADB2F5C04F3FF457AD012635465EE566
:10289800B2F5805F3FF430ADB2F5A05F3FF42CADE8
:1028A800B2F5406F3FF428AD012635462FE5B2F169
:1028B800804F3FF42DACB2F1A04F3FF429ACB2F1F8
:1028C800405F3FF425AC012635462CE4B2F5802F55
:1028D8003FF4FFABB2F5A02F3FF4FBABB2F5403F9E
:1028E8003FF4F7AB01263546FFF7FDBBB2F1804F49
:1028F8003FF4E2ACB2F1A04F3FF4DEACB2F1405F7E
:102908003FF4DAAC01263546E1E403262368354670
:1029180038E4B2F5C00F3FF46BABB2F5000F3FF4EB
:1029280067AB01263546FFF76EBBC02A3FF43FABC5
:10293800B2F5807F3FF43BAB01263546FFF741BB3C
:102948001ABB2C48C16A41F40031C162FFF706BBCB
:10295800B2F1407F3FF46EABB2F1806F3FF46AABE7
:1029680001263546FFF771BBB2F5405F3FF493ABE4
:10297800B2F5804F3FF48FAB01263546FFF795BB84
:10298800002A3FF46EAEFFF76EBB0126FFF7EDBAE3
:102998002E4635E5626E2368FFF7E0BA1548164AF9
:1029A800016902EA131221F47C510A430261EDE540
:1029B800FDF7F2FC0F4F814641F2883805E0FDF73C
:1029C800EBFCA0EB090040459FD83B6F9B07F6D571
:1029D800D4F8B030CFE523682E46FFF7D3BB0126E5
:1029E800354654E401263546FFF7C9BB012635466E
:1029F8002CE400BF00440258CFFFFF004E4A30B419
:102A0800946A936AD56AC3F30533D16B002B5BD004
:102A1800C5F30015C1F3CC0104F0030401FB05F173
:102A2800012C07EE901AF8EEE76A02D058D3022C70
:102A38004FD007EE903A9FED415AF8EEE77A936B44
:102A480085EE277A9FED3E6AC3F3080307EE903AB6
:102A5800F7EE005AF8EEE77A77EEA57AE6EE867A90
:102A680067EE877A344AB7EE006A936BC3F346235E
:102A780006EE903AF8EEE66A30BC76EE866A87EEA5
:102A8800A67ABCEEC77A80ED007A936BC3F306434F
:102A980006EE903AF8EEE66A76EE866A87EEA67A51
:102AA800BCEEC77A80ED017A936BC3F3066307EE39
:102AB800103AB8EEC77A37EE067AC7EE876AFCEEA8
:102AC800E66AC0ED026A704703604360836030BC09
:102AD800704707EE903A9FED1B5AF8EEE77AAEE79B
:102AE8001168890620D5146807EE903A1649F7EE62
:102AF800004AC4F3C104936BF8EEE77A9FED105ACD
:102B0800E140C3F3080307EE101AF8EEC75A07EEC0
:102B1800103AB8EEC76A85EEA77A76EE247AE6EE22
:102B2800857A67EE277A9DE707EE903A9FED075A78
:102B3800F8EEE77A83E700BF004402580024744A9D
:102B4800000000390024F44A0090D0030024744C9B
:102B58004E4A30B4946A936AD56AC3F30553516CEC
:102B6800002B5BD0C5F30025C1F3CC0104F00304AE
:102B780001FB05F1012C07EE901AF8EEE76A02D086
:102B880058D3022C4FD007EE903A9FED415AF8EEF9
:102B9800E77A136C85EE277A9FED3E6AC3F3080344
:102BA80007EE903AF7EE005AF8EEE77A77EEA57A54
:102BB800E6EE867A67EE877A344AB7EE006A136CD7
:102BC800C3F3462306EE903AF8EEE66A30BC76EE9A
:102BD800866A87EEA67ABCEEC77A80ED007A136C17
:102BE800C3F3064306EE903AF8EEE66A76EE866A96
:102BF80087EEA67ABCEEC77A80ED017A136CC3F330
:102C0800066307EE103AB8EEC77A37EE067AC7EED3
:102C1800876AFCEEE66AC0ED026A704703604360AB
:102C2800836030BC704707EE903A9FED1B5AF8EE70
:102C3800E77AAEE71168890620D5146807EE903A5E
:102C48001649F7EE004AC4F3C104136CF8EEE77AAC
:102C58009FED105AE140C3F3080307EE101AF8EE8F
:102C6800C75A07EE103AB8EEC76A85EEA77A76EE2D
:102C7800247AE6EE857A67EE277A9DE707EE903AA2
:102C88009FED075AF8EEE77A83E700BF0044025841
:102C98000024744A000000390024F44A0090D0034C
:102CA8000024744C4E4A30B4946A936AD16AC3F3D0
:102CB8000513556B002B5BD0C5F3CC0501F0010162
:102CC80004F0030401FB05F1012C07EE901AF8EE5D
:102CD800E76A59D05FD3022C4FD007EE903A9FEDA8
:102CE800415AF8EEE77A136B85EE277A9FED3E6A34
:102CF800C3F3080307EE903AF7EE005AF8EEE77AC6
:102D080077EEA57AE6EE867A67EE877A344AB7EEEA
:102D1800006A136BC3F3462306EE903AF8EEE66AB0
:102D280030BC76EE866A87EEA67ABCEEC77A80ED6E
:102D3800007A136BC3F3064306EE903AF8EEE66AA0
:102D480076EE866A87EEA67ABCEEC77A80ED017ABF
:102D5800136BC3F3066307EE103AB8EEC77A37EE83
:102D6800067AC7EE876AFCEEE66AC0ED026A70472B
:102D780003604360836030BC704707EE903A9FED74
:102D88001B5AF8EEE77AAEE707EE903A9FED185A2D
:102D9800F8EEE77AA7E7116889069ED5146807EE6A
:102DA800903A1449F7EE004AC4F3C104136BF8EEE5
:102DB800E77A9FED0D5AE140C3F3080307EE101AB6
:102DC800F8EEC75A07EE103AB8EEC76A85EEA77A4A
:102DD80076EE247AE6EE857A67EE277A96E700BFE4
:102DE800004402580024744C000000390024F44ABE
:102DF8000024744A0090D003B0F5807F00B585B0F8
:102E08001FD0B0F5007F27D0B0F5806F34D0B0F573
:102E1800006F69D0B0F5805F3BD0B0F5002F00F0AF
:102E28008480B0F5803F00F00281B0F5804F00F05B
:102E38001981B0F5004F00F0C080002005B05DF8A2
:102E480004FBA14B186D00F007000428F5D8DFE853
:102E580000F04291383482009B4B186D00F4E0700A
:102E680080282FD04ED8002836D04028E5D11868C1
:102E780010F00060E2D069E0934B986D00F46000B8
:102E8800B0F5800F1ED015D830B3B0F5001FEED0C6
:102E9800D3E78D4B186D00F4E040B0F5005F11D01A
:102EA80000F28480C0B1B0F5805FC6D11B681801FC
:102EB800C3D54BE0B0F5C00F74D1844805B05DF8B8
:102EC80004FB814B186810F00050B7D001A8FFF739
:102ED8003FFE0198B2E77C4B1B689B01AED501A869
:102EE800FFF7E0FE0298A9E7774B986D00F0E060E5
:102EF800B0F1007FE6D03FD80028EDD0B0F1807F58
:102F0800B5D09AE7C028D8D0B0F5807F95D1DA6CD3
:102F1800196802F04052480764D5002A62D11B683C
:102F28006B48C3F3C103D84088E7674B986D00F43A
:102F38004030B0F5803F5ED0B0F5003F23D0002888
:102F48007FF47BAF1B6819017FF578AF01A8FFF705
:102F580055FD019872E75C4AD36C116803F0405341
:102F6800490752D5002B50D113685948C3F3C10300
:102F7800D84063E7544B7AE7B0F1407F9DD0B0F179
:102F8800806F7FF45AAFDA6C196802F040534A0731
:102F98003BD5002B39D14C4B4D481B68C3F3C103BB
:102FA800D8404BE7B0F5000FB1D046E7B0F5405F29
:102FB80083D0B0F5804FE6D03FE7434B186D00F063
:102FC8004050B0F1805F77D0B0F1005F69D0002841
:102FD8007FF433AF1A463F4B126812F4003F18BF14
:102FE80018462BE7384B1B68D90532D5B2F1805FFC
:102FF8002FD1394822E7186810F000503FF41EAF6F
:1030080001A8FFF7A5FD039818E72F4A1268D00515
:1030180002D5B3F1805FECD02B4A126891037FF59B
:103028000CAFB3F1005F7FF408AF2A4806E7264BE0
:10303800D86C10F480303FF44FAF00283FF4FDAE59
:103048001B681A017FF5F9AE01A8FFF7D7FC0398B2
:10305800F4E61D4B1B689B037FF5EFAEB2F1005FF2
:10306800E3D0EAE6184A936D03F0E043B3F1005F5A
:1030780044D010D9B3F1804F38D0B3F1A04F2DD040
:10308800B3F1405F7FF4D9AE0F4A106810F0040026
:103098003FF4D4AE68E7002B39D0B3F1805F7FF4FA
:1030A800CCAE094B186810F000603FF4C7AE01A819
:1030B800FFF7A4FC0298C1E6034B186810F00070F3
:1030C8003FF4BCAE0BE700BF004402580080BB00D1
:1030D8000090D00300127A0000093D00124B1348FB
:1030E8001B6813F4003F08BF0020A7E60E4B1048EA
:1030F8001B6813F4807F08BF00209FE613689B00BD
:103108007FF59BAE01A8FFF723FD029896E6FEF730
:10311800D7FD054B074A1B6AC3F30213D35C03F0C0
:103128001F03D8408AE600BF0044025800127A0004
:1031380000093D00C04B0008002800F0A880016885
:103148000022F8B5554B8262994215D0A3F5784311
:10315800994211D003F5806399420DD0C7680F2FAB
:1031680008D8C56B07F108036A09DB0802FB0333BB
:10317800082B09D90120F8BDC768C56B07F10803FA
:103188006A09DB0802FB0333444C454A914218BFE5
:10319800A14250D002F5806291424CD090F8813023
:1031A800044603F0FF02002B4ED000260222A3693A
:1031B800606884F88120B3F1806F0A68D4F838E039
:1031C80022F001020A6055D0626B46EA050CE669F6
:1031D800656A1A434CEA060663692A43256A374337
:1031E80026693243E66C8F601343A76843EA0502F9
:1031F800A56D42EA0603A26C3B4313432B430343EA
:1032080043EA0E03CB6040BB8B6823F4C05343F4FE
:1032180000638B608B6823F4C06343F480638B6026
:103228000B6D23F001030B6500200123C4F8840013
:1032380084F88130F8BD102B9CD890F88130044672
:1032480003F0FF02002BB0D180F8802001F0B6FA1D
:103258002168A66AE56BE768A8E70B6D23F0010310
:103268000B654302E0D5CB68626D23F0004313433E
:10327800CB60D9E7B0F5800F0BD00028A4D1BEF100
:10328800805FA1D10A6842F480520A609CE701205D
:103298007047BEF1000FF5D096E700BF003001403F
:1032A80000380040002800F08580F8B590F83D30DF
:1032B800044603F0FF02002B77D0256802223E481F
:1032C800B5F1804F84F83D20A5EB00002B68B0FADB
:1032D80080F04FEA501028D038BB384A954224D0A5
:1032E80002F58062954220D03549364E6F1A8D42DC
:1032F80018BFB542B7FA87F74FEA571707D123F037
:103308007003A268B54243EA020317D0B7B92E4941
:103318002E4A954218BF8D4205D02D4FEF1BB7FAA4
:1033280087F77F0977B1002708E0254F23F070035E
:10333800A168EF1B0B43B7FA87F77F0923F44073A3
:1033480022691343A26923F08003E168134362688A
:103358002B60E962AA6250B94FB91B4A1B4B9D42C8
:1033680018BF954203D003F580639D4201D163697C
:103378002B63012300206B6184F8483084F83E30C9
:1033880084F83F3084F8403084F8413084F8423083
:1033980084F8433084F8443084F8453084F8463063
:1033A80084F8473084F83D30F8BD80F83C2001F0BF
:1033B80081FB82E7012070470000014000040040C3
:1033C80000040140000C004000400140004401405E
:1033D8000048014090F83D30012B01D00120704792
:1033E8000268224B2249B2F1804F18BF9A4270B44A
:1033F8000CBF012300231F4C02261F4DA24208BF09
:1034080043F0010380F83D6004F580348A4208BF28
:1034180043F00103D168AA4208BF43F0010341F019
:103428000101A24208BF43F00103D1605BB9134810
:10343800101AB0FA80F0400928B9136843F0010364
:1034480070BC1360704791680D4B0B40062B09D078
:10345800B3F5803F06D01368002043F0010370BC29
:1034680013607047002070BC704700BF0000014027
:103478000008004000040040000C00400018004014
:1034880007000100704700BF002800F08580F8B5EC
:1034980090F83D30044603F0FF02002B77D02568F2
:1034A80002223E48B5F1804F84F83D20A5EB00008C
:1034B8002B68B0FA80F04FEA501028D038BB384A51
:1034C800954224D002F58062954220D03549364E87
:1034D8006F1A8D4218BFB542B7FA87F74FEA5717E8
:1034E80007D123F07003A268B54243EA020317D05C
:1034F800B7B92E492E4A954218BF8D4205D02D4F97
:10350800EF1BB7FA87F77F0977B1002708E0254F47
:1035180023F07003A168EF1B0B43B7FA87F77F0905
:1035280023F4407322691343A26923F08003E168FE
:10353800134362682B60E962AA6250B94FB91B4A0B
:103548001B4B9D4218BF954203D003F580639D42F3
:1035580001D163692B63012300206B6184F8483033
:1035680084F83E3084F83F3084F8403084F84130A5
:1035780084F8423084F8433084F8443084F8453085
:1035880084F8463084F8473084F83D30F8BD80F838
:103598003C20FFF777FF82E70120704700000140D9
:1035A8000004004000040140000C004000400140BD
:1035B800004401400048014090F83C30012B5BD0AA
:1035C8000123F0B580F83C30142A50D8DFE812F017
:1035D80015004F004F004F0095004F004F004F005F
:1035E800D0004F004F004F000A014F004F004F001E
:1035F80049014F004F004F00560003688E681D6A4E
:103608000F6825F00105B64C1D621A6A5D6822F044
:103618000202D3F818E03243B24E0EEA0404B34271
:1036280044EA070400F0688106F58066B34200F0BA
:103638006381AD4F06F58046B34218BFBB4200F028
:103648005B8106F58066B34200F056814E685D6086
:103658009C615E631A629C690D6944F008049C6170
:10366800996921F0040199619A692A439A610023B2
:1036780080F83C301846F0BD022070470368D1F846
:1036880008E01D6A0F6825F48015964E1D62B34246
:103698001A6AD3F804C05C6D22F4001224F4E044E2
:1036A80042EA0E5244EA07240ED0904DAB420BD0AA
:1036B80006F5804605F58045AB4218BFB34203D0F6
:1036C80005F58065AB4204D12CF4003C4D694CEA09
:1036D800852C4D68C3F804C05C65DD651A625C6DB5
:1036E8000D6944F400645C65596D21F48061596585
:1036F8005A6D42EA05225A65B9E703688E681D6A61
:103708000F6825F010057A4A1D621C6AD3F804E098
:1037180024F020049D6944EA0614724E2A40B342FC
:1037280042EA072200F00481704DAB4200F00081AC
:103738006D4E704DAB4218BFB34200F0008105F5E5
:103748008065AB4200F0FB804E68C3F804E09A61E4
:103758009E631C629C690D6944F400649C619969CC
:1037680021F4806199619A6942EA05229A617EE7AB
:103778000368D1F808E01D6A0F6825F48075594E72
:103788001D62B3421C6A5D68DA6924F4007422F091
:10379800730244EA0E2442EA070200F0BA8006F5F2
:1037A8008066B34200F0B5804F4F524EB34218BF07
:1037B800BB4200F0B58006F58066B34200F0B080E9
:1037C8004E685D60DA61DE631C62DC690D6944F095
:1037D8000804DC61D96921F00401D961DA692A4356
:1037E800DA6144E70368D1F808E01D6A0F6825F438
:1037F80080553C4E1D62B3421A6AD3F804C0DC6996
:1038080022F4005224F4E64442EA0E3244EA072441
:103818000ED0364DAB420BD006F5804605F58045F7
:10382800AB4218BFB34203D005F58065AB4204D163
:103838002CF4804C4D694CEA851C4D68C3F804C0D3
:10384800DC611D641A62DC690D6944F40064DC61A2
:10385800D96921F48061D961DA6942EA0522DA611D
:1038680005E70368D1F808E01D6A0F6825F480357C
:103878001C4E1D62B3421A6AD3F804C05C6D22F470
:10388800003224F0700442EA0E4244EA07040ED0E3
:10389800164DAB420BD006F5804605F58045AB4288
:1038A80018BFB34203D005F58065AB4204D12CF4B0
:1038B800803C4D694CEA052C4D68C3F804C05C6532
:1038C8009D651A625C6D0D6944F008045C65596D6C
:1038D80021F0040159655A6D2A435A65C7E600BFAD
:1038E8008CFFFEFF00000140004001400004014041
:1038F800FF8CFFFE00440140CE6822F008028F6969
:1039080025F4407532434E693E4322F004023543A4
:103918009CE624F40064CE6844EA062424F4806417
:1039280025F440574E698D69354347EA051547E741
:1039380024F08004CE6844EA061424F040044E695A
:103948002EF4406E8D6935434EEA850EFCE600BFC5
:1039580090F83C20012A39D0034602201A68F0B4B6
:1039680083F83D00012596680868554C602883F85F
:103978003C5004EA0604946047D029D8202871D026
:103988006DD9402876D0502840F09680166A156A7E
:103998004C6826F00A0625F00105CF6834434949EA
:1039A8001562906920F0F00040EA071090611462F7
:1039B8009068014041F057019160002201211046B2
:1039C80083F83D1083F83C20F0BC70470220704714
:1039D800B0F1101F46D065D8B0F5005F2ED0B0F515
:1039E800801F3FD07028E8D188684D68CC6840EACD
:1039F8000501906841EA042120F47F400143916069
:103A0800916841F077019160D7E7156A4E6825F013
:103A18001005CF682B4915629469106A24F4704424
:103A280020F0A00044EA073440EA061094611062CE
:103A38009068014041F067019160BEE788684D6871
:103A4800CC6840EA0501906841EA042120F47F40EF
:103A580001439160916841F480419160ADE708B1FC
:103A68001028AAD1946840F007001649214008435D
:103A78009060A2E7166A156A4C6826F00A0625F0D7
:103A88000105CF6834430F491562906920F0F000B2
:103A980040EA0710906114629068014041F04701C4
:103AA80091608AE708498842DCD010318842D9D031
:103AB8002039884281D1D5E730287FF47EAFD1E71D
:103AC8008800CEFF8FFFCFFF30001000704700BF87
:103AD800704700BF704700BF704700BF03681A698E
:103AE800910710B5044602D5DA68920765D41A69B9
:103AF800520702D5DA6850074CD41A69110702D563
:103B0800DA68120734D41A69D00602D5DA68D10601
:103B18001ED41A69D20702D5DA68D0076BD41A699D
:103B2800110602D5DA6812066DD41A69D00502D5D5
:103B3800DA6811066FD41A69520602D5DA68500697
:103B480051D41A69910602D5DA68920643D410BD99
:103B58006FF01001082220461961DB69227713F4FF
:103B6800407F6CD0FFF7B4FF002223682277D0E7AC
:103B78006FF00801042220461961DB6922779B0750
:103B88005AD1FFF7A3FF2046FFF7A4FF00222368BE
:103B98002277B8E76FF004010222204619619B6979
:103BA800227713F4407F44D1FFF790FF2046FFF7B8
:103BB80091FF0022236822779FE76FF0020101221C
:103BC80019619B69027799072DD0FFF781FF0022C1
:103BD800236822778BE76FF0200220461A61BDE840
:103BE800104000F08DB86FF0400220461A61FFF7D0
:103BF80073FF2368A5E76FF0010220461A6100F001
:103C08005BFB23688BE76FF0800220461A6100F0A7
:103C180079F8236889E76FF4807220461A6100F00A
:103C280073F8236887E7FFF751FF2046FFF752FF35
:103C3800CDE7FFF74DFFBCE7FFF74AFFA6E7FFF721
:103C480045FF2046FFF746FF8EE700BF90F83C305F
:103C5800012B46D00368244AF0B5244D02260124DE
:103C6800934218BFAB4280F83D6080F83C4008BFE3
:103C780001255C6818BF00259E6827D01C4A24F0DF
:103C880070040F68934218BFB3F1804FDFF86CE0FF
:103C980044EA0704174F0CBF012200225C607345F9
:103CA80008BF42F00102144CBB4208BF42F00102B7
:103CB800A34208BF42F001026AB965B90022012394
:103CC80080F83C2080F83D301046F0BD24F47004A4
:103CD8004A681443D2E78A6826F0800616439E6035
:103CE800ECE7022318467047000401400000014039
:103CF80000040040000C004000180040000800408C
:103D0800704700BF704700BF704700BF254A0023B7
:103D18002548012170B54FF480258AB0042410602D
:103D2800104655601461936000930393D360137534
:103D3800137753629362D3621363536382F8383004
:103D480001930293049305930693079308930993A9
:103D580051759161FCF788FE00BB00236946114844
:103D68000093FCF78FFFB0B90023104E062540F2F0
:103D7800FF74042203A90B4803960495059308933E
:103D88008DF8253006940792FCF72EFB08B100F059
:103D9800B1FC0AB070BD00F0ADFCE5E700F0AAFC8C
:103DA800DBE700BF70010024002002400400600827
:103DB8001F4A00230121104670B54FF4802588B0B2
:103DC8001C4E042455601660146191619360019340
:103DD800D36013755375137753629362D362136379
:103DE800536382F838300293039304930593069340
:103DF8000793FCF739FEB8B9042200230E4E0625B6
:103E080040F2FF740DEB02010948019602950393F5
:103E180006938DF81D3004940592FCF7E5FA08B175
:103E280000F068FC08B070BD00F064FCE4E700BF77
:103E3800D401002400600258020030040268002304
:103E4800284930B58A428BB00693059307930893A7
:103E5800099324D0244B9A4201D00BB030BDA3F56E
:103E6800E0534FF00061D3F8E020084642F080723A
:103E7800C3F8E020D3F8E02002F080720392039A9E
:103E8800D3F8E02042F00402C3F8E020D3F8E03091
:103E980003F004030493049BFCF79CFADDE7134B3F
:103EA8004FF40065032405A9D3F8D820104842F040
:103EB8002002C3F8D820D3F8D82002F020020192BB
:103EC800019AD3F8E02042F02002C3F8E020D3F8AA
:103ED800E030059503F0200306940293029BFDF75A
:103EE80063F8BAE700200240006002580044025814
:103EF8000014025830B58BB02422002101A800F02C
:103F080047FE124B124A18461A60FCF78FFFD0B9C9
:103F180000230A25012401A91A460C48019303939A
:103F2800059302950494FCF797FF48B901A910225C
:103F38000648FCF791FF08B100F0DCFB0BB030BD80
:103F480000F0D8FBF2E700F0D5FBE1E71803002406
:103F58000074004001680023174A30B5914289B0C7
:103F68000493039305930693079301D009B030BDDA
:103F7800124B3025032403A9D3F8E820104842F057
:103F88000052C3F8E820D3F8E82002F0005201926A
:103F9800019AD3F8E02042F00102C3F8E020D3F8F8
:103FA800E030039503F0010304940293029BFCF7AD
:103FB800FBFF09B030BD00BF007400400044025848
:103FC800000002582DE9F0477D4B8EB000240126F1
:103FD80002217C4F0A942246099488460B940325B3
:103FE8000C940D94D3F8E000DFF8ECA140F0100039
:103FF800DFF8E891C3F8E0003846D3F8E0E00EF0C7
:10400800100ECDF804E0DDF804E0D3F8E0E04EF05F
:10401800040EC3F8E0E0D3F8E0E00EF0040ECDF8AB
:1040280008E0DDF808E0D3F8E0E04EF0200EC3F831
:10403800E0E0D3F8E0E00EF0200ECDF80CE0DDF87B
:104048000CE0D3F8E0E04EF0800EC3F8E0E0D3F8DF
:10405800E0E00EF0800ECDF810E0DDF810E0D3F8C7
:10406800E0E04EEA060EC3F8E0E0D3F8E0E00EEA3E
:10407800060ECDF814E0DDF814E0D3F8E0E04EEADF
:10408800010EC3F8E0E0D3F8E0E00EEA010ECDF847
:1040980018E0DDF818E0D3F8E0E04EF0400EC3F881
:1040A800E0E0D3F8E0E00EF0400ECDF81CE0DDF8DB
:1040B8001CE0D3F8E0E04EF0080EC3F8E0E0D3F8D7
:1040C800E03003F008030893089BFDF77DF82246CB
:1040D80050463146FDF778F8484632464FF480613D
:1040E800FDF772F8324638461021FDF76DF84AF6AA
:1040F800FF3309A9484609930B940A95FCF754FF26
:104108004FF6F77309A9304809930A950B94FCF701
:104118004BFF4FF2FF7309A92C4809930A950B949A
:10412800FCF742FF49F6CE7309A9294809930A9575
:104138000B94FCF739FF4FF6C57309A938460A9561
:1041480009930B94FCF730FF09A938460C95CDF874
:104158002480CDF82C800A96FCF726FF09A9504642
:1041680009960A960B940C95FCF71EFF4FF6FE7302
:10417800504609A90A9509930B94FCF715FF4FF4CB
:104188008063484609A90A9609930B940C94FCF796
:104198000BFF4FF6FF7309A90E4809930A950B9474
:1041A800FCF702FF102309A93846CDF830800A969B
:1041B8000B940993FCF7F8FE0EB0BDE8F08700BF3A
:1041C800004402580004025800080258001402581B
:1041D80000000258000C025800180258001002583B
:1041E8002DE9F00F01230024234D00224FF0000A8F
:1041F800DFF890B04FF00008DFF88C908363C0F8C8
:10420800883000231AA7D7E90067C0E90A45C0E942
:10421800006700240026194F194DC0E908ABC0E912
:104228001089C0E90267C0E92467C0E91E45C0E9F2
:104238002645C0E90423C0E90623C0E90C23C0E9E8
:104248001423C0E91823C0E91A23C0E91C23C0E9D4
:104258001623C0E92023C0E92C23C0E92823C0E99C
:104268002A23C0E91223BDE8F00F7047AFF300809E
:10427800F168E388B5F8D43E000008C00000F03FBC
:104288000000F0BF000008400000244008B50122EB
:1042980010210648FCF798FF054B1A6842F0010206
:1042A8001A601A6842F400721A6008BD00040258C5
:1042B8000030014000000000F8B501218048814D20
:1042C8004FF48016804C2DED028BFCF781FF7F4B5D
:1042D8007F4A58687F4B106029881B687E4AA66110
:1042E80019805369D904FCD5774B10227B4C9A610D
:1042F8007B4A2668754B16607A495A687A4B0A6079
:104308001F68194647F004071F609F6847F00407B5
:104318009F600B685B07FCD50B6C744F07EE903AF7
:1043280073493B60B8EE677A724F0978674BB7EE0E
:10433800C77A0029DFF8D8E159686F4B9FED586BB1
:1043480097ED005B1B6827EE067B6C4F3960D3F84E
:10435800887093ED2C6B8EED007B08BFB0EE457B2B
:10436800002F93ED1E2BB7EEC77BB7EEC77A36EE5C
:10437800477B27EE022B83ED182B40F38580B7EEA1
:10438800000B93ED286B93ED1C8B93ED267B93ED3F
:104398001A1B26EE088B93ED203B93ED165BA7EED8
:1043A800018B93ED2A4B93ED126B93ED247B38EE42
:1043B800033BA4EE053B93ED005BA6EE050BA2EED6
:1043C800073B83EE006B93ED085B83ED206BB4EE47
:1043D800C56BF1EE10FA03DC93ED0A5B86FE055B14
:1043E800101ADFF830E135EE466B8A1A04EE100A2F
:1043F800364807EE102ADFF820C1B8EE443B404F9C
:10440800B8EE477B83ED2E5B9FED270B9EED2E4B81
:1044180083ED166B9FED265B24EE004BDFF8FCE086
:1044280027EE057BFCEEC46B23EE053B16EE902AC7
:104438002A804268334D511ACCF80020324A06EEE1
:10444800101A3249B8EE466B8EED007B26EE056BEE
:10445800BDEC028B36EE077B85ED003B37EE037B28
:1044680087ED006B82ED007B4268901B226007EEAF
:10447800100AB8EE477B83ED1C1B27EE057B83ED06
:104488001A2B81ED007BF8BD9FED0B7BB0EE472B1F
:10449800B0EE471BB0EE476B83ED187B93E700BF88
:1044A8006666666666660A3F000000000065D340DF
:1044B8007B14AE47E17A643F000000000000000072
:1044C800001802585C03002400040258001000E0A1
:1044D800680000241000002400300140640000241B
:1044E800600000246C0000240020024078000024B2
:1044F80008000024480000240C0000243C0000248C
:104508005800002470000024700300248000002458
:1045180088000024380200245000002440000024B1
:10452800F0B59DB04C22002109A800F031FB2022F3
:10453800002101A800F02CFB0220FCF753FE294AB9
:1045480000230093D16A284B21F001011846D1625B
:10455800D26A02F0010200929A6942F440429A61DA
:104568009B6903F440430093009B83699B04FCD53B
:104578001E4D022400220121AB6A4FF4803E6427BD
:104588000C2623F0030309A82343AB621A921B925B
:1045980009911491CDF828E0129413941694179465
:1045A800189415971996FCF7C7FE024608B172B61B
:1045B800FEE740234FF03F0E032708264FF480659F
:1045C800214601A80392CDF804E0029704960593CA
:1045D800069308930795FDF749FA08B172B6FEE706
:1045E8001DB0F0BD000400580048025800440258AD
:1045F800F0B5B1B0BC220021022701A8032600F0C3
:10460800C7FA0123104A4FF0190E4FF440654FF4D2
:10461800005401924FF400310A934FF480320C9306
:104628004FF4004301A8CDF82CE00D970E960F9596
:104638001894199129922F93FDF77AFC08B172B654
:10464800FEE731B0F0BD00BF0030084000000000B8
:1046580080B5FBF763FE204CFFF762FF0027FFF7EA
:10466800C7FF1E4EFFF7AEFC1D4DFFF743FCFFF7DB
:104678004DFBFFF79DFB00F09DF900F03DF800F0C1
:104688006BF81848184940F2E733C268E36042F013
:104698008072DFF85CE0C2600A68DEF8000042F071
:1046A80001020A60226833609762D36208A3D3E9E3
:1046B8000023C5E90023FFF793FD0C48FCF7C2F877
:1046C800FFF7E4FD2046FEF785FEFEE7AFF3008026
:1046D80000000000006A0841A004002488030024A8
:1046E80078030024F0ED00E0001000E070010024E1
:1046F8000C00002472B6FEE7F8B515480022154BE9
:104708004FF480074FF400360F254FF080644FF0C8
:104718008051186018465F609E60DD609C61D961B9
:104728001A615A611A625A629A62DA625A639A6321
:10473800DA631A645A649A64DA641A655A659A657F
:10474800FEF7FAFC00B9F8BDBDE8F840FFF7D2BFA4
:104758000030014018040024F8B5164A4FF48000D0
:10476800154B4FF4003703264FF000754FF0806467
:104778004FF080411A600022586018469F60DE6042
:104788001D619C6159635A61DA611A625A629A62C0
:10479800DA629A63DA631A645A649A64DA641A65A4
:1047A8005A659A65FEF7C8FC00B9F8BDBDE8F8403F
:1047B800FFF7A0BF003401409003002402680023E3
:1047C8002C49F0B58A428BB006930593079308935A
:1047D80009932BD0284B9A4201D00BB0F0BD274B40
:1047E8004FF4A04702260325D3F8F020052405A995
:1047F800234842F40052C3F8F020D3F8F02002F422
:1048080000520392039AD3F8E02042F01002C3F852
:10481800E020D3F8E030059703F0100306960895DA
:104828000493049B0994FCF7BFFBD6E7134B0226BD
:1048380028270325D3F8F020052405A9114842F4B8
:104848008052C3F8F020D3F8F02002F4805201928D
:10485800019AD3F8E0203243C3F8E020D3F8E030DF
:1048680005973340069608950293029B0994FCF736
:104878009BFBB2E70030014000340140004402587D
:104888000010025800040258074B82B0D3F8F420F5
:1048980042F00202C3F8F420D3F8F43003F0020324
:1048A8000193019B02B0704700440258FEE700BF25
:1048B800FEE700BFFEE700BFFEE700BFFEE700BF60
:1048C800704700BF704700BF704700BFFBF758BD77
:1048D8000148FFF703B900BFA00400242A492B4A66
:1048E800D1F8883043F4700310B4C1F888301368E5
:1048F80003F00F03062B05D8136823F00F0343F0CA
:1049080007031360224B0024224A19681F4841F00C
:10491800010119601C6119680A401A60036803F0F4
:104928000F03072B05D9036823F00F0343F0070390
:104938000360174B00221849184C19489A61DA612C
:104948001A629C62D86219635A639963DA631964BC
:104958005A641868134C20F48020134918601A66AA
:1049680023681940B1F1005F02D2104B01221A608E
:104978000F4943F2D200044B4FF0006208605DF823
:10498800044B9A60704700BF00ED00E00020005221
:10499800004402587FEDF6EA80020101000202029B
:1049A8000000FF010010005C0000FFFF08810051BB
:1049B8000040005270B53C4C002394B04FF0804149
:1049C8004FF0FF3220462160E26063600493019358
:1049D8000D93A3602361A361059306930793029344
:1049E80003930E930F931093119312931393FEF75F
:1049F80059FC00283ED14FF4805304A92A48049357
:104A0800FEF7A6FF00282BD12748FEF73DFD00281A
:104A18002DD12022002301A9234801920393FFF7F7
:104A280015F9D0B90023602602250DA91A461E489B
:104A38000F9311930D960E95FEF7BEFD08B1FFF783
:104A480059FE22680023B2F1804F099308930A9314
:104A58000B930C9311D014B070BDFFF74BFEE1E738
:104A6800FFF748FE1048FEF70FFD0028D1D0FFF7EA
:104A780041FECEE7FFF73EFEBDE70C4B01240225C1
:104A880008A9D3F8E0200A482243C3F8E020D3F865
:104A9800E030089423400C9409950093009BFCF7A0
:104AA80083FA14B070BD00BFA0040024004402586B
:104AB800000002580368B3F1804F00D070470C4BD8
:104AC80000221C20114610B5D3F8E84082B044F00B
:104AD8000104C3F8E840D3F8E83003F00103019378
:104AE800019BFCF743F91C20FCF77AF902B010BDD2
:104AF80000440258DFF834D0FFF7F0FE0C480D49A7
:104B08000D4A002302E0D458C4500433C4188C4220
:104B1800F9D30A4A0A4C002301E013600432A24286
:104B2800FBD300F011F8FFF793FD70470000022057
:104B3800000000241C000024D84B0008200000249A
:104B4800EC040024FEE7000070B50D4E0D4CA41BCC
:104B5800A4100025A54209D10B4E0C4C00F020F8FA
:104B6800A41BA4100025A54205D170BD56F8253018
:104B780098470135EEE756F8253098470135F2E7B2
:104B8800D04B0008D04B0008D04B0008D44B00088D
:104B980002440346934200D1704703F8011BF9E72A
:104BA800F8B500BFF8BC08BC9E467047F8B500BF12
:084BB800F8BC08BC9E467047E2
:104BC00000000000010203040102030406070809B3
:044BD000BD0200081A
:044BD400990200083A
:104BD800010000001000000001000000380200245D
:0C4BE800203001400090D0030090D0036A
:0400000508004AFDA8
:00000001FF
