:020000040800F2
:100000000000022055530008115100081351000848
:100010001551000817510008195100080000000090
:100020000000000000000000000000001B5100085C
:100030001D510008000000001F5100082151000858
:10004000A5530008A5530008A5530008A5530008B0
:10005000A5530008A5530008A5530008A5530008A0
:10006000A5530008A5530008A5530008A553000890
:10007000A5530008A5530008A5530008A553000880
:10008000A5530008A5530008A5530008A553000870
:10009000A5530008A5530008A5530008A553000860
:1000A000A5530008A5530008A5530008A553000850
:1000B00029510008A5530008A5530008A5530008BE
:1000C000A5530008A5530008A5530008A553000830
:1000D000A5530008A5530008A5530008A553000820
:1000E000A5530008A553000800000000A553000810
:1000F000A5530008A5530008A5530008A553000800
:10010000A5530008A5530008A5530008A5530008EF
:10011000A5530008A5530008A5530008A5530008DF
:10012000A5530008A5530008A5530008A5530008CF
:10013000A5530008A5530008A5530008A5530008BF
:1001400000000000000000000000000000000000AF
:10015000A5530008A5530008A5530008A55300089F
:10016000A5530008A5530008A5530008A55300088F
:10017000A5530008A5530008A5530008000000007F
:10018000A5530008A5530008A5530008A55300086F
:10019000A5530008A5530008A5530008A55300085F
:1001A000A5530008A5530008A5530008A55300084F
:1001B000A5530008A5530008A5530008A55300083F
:1001C000A5530008A5530008A5530008A55300082F
:1001D000A5530008A5530008A5530008A55300081F
:1001E000A5530008A5530008A5530008A55300080F
:1001F000A5530008A5530008A5530008A5530008FF
:10020000A5530008A5530008A5530008A5530008EE
:10021000A5530008A5530008A5530008A5530008DE
:10022000A5530008A5530008A553000800000000CE
:10023000A5530008A553000800000000A5530008BE
:10024000A5530008A5530008A5530008A5530008AE
:10025000A5530008A5530008A5530008A55300089E
:10026000A5530008A5530008A5530008A55300088E
:10027000A5530008A5530008A5530008000000007E
:10028000A5530008A5530008A5530008000000006E
:0802900000000000A553000866
:1002980010B5054C237833B9044B13B10448AFF3B8
:1002A80000800123237010BD2000002400000000FE
:1002B800505E000808B5034B1BB103490348AFF370
:1002C800008008BD0000000024000024505E0008E3
:1002D800104B1B780BB90120704710B504464FF43A
:1002E8007A70B0FBF3F30C4A1068B0FBF3F000F03F
:1002F80095FE68B90F2C01D9012010BD00222146B6
:100308004FF0FF3000F04CFE044B1C60002010BD85
:10031800012010BD00000024140000240400002463
:1003280010B5032000F02AFE01F0A4FB0F498B69E9
:10033800C3F303230E4AD35C03F01F03D8408B6931
:1003480003F00F03D35C03F01F0320FA03F3094AF9
:100358001360094B18600020FFF7BAFF10B10124A1
:10036800204610BD044604F0BDFEF9E700440258DB
:10037800685E00081800002414000024034B1B7852
:10038800034A11680B441360704700BF0000002443
:1003980090000024014B1868704700BF90000024AB
:1003A80038B50446FFF7F6FF0546B4F1FF3F02D023
:1003B800044B1B781C44FFF7EDFF401B8442FAD81E
:1003C80038BD00BF00000024014B1868000C7047BE
:1003D8000010005C034A536823EA00000843506099
:1003E800704700BF00040058F0B583B000220192A6
:1003F80090F85020012A00F06C820346012280F810
:1004080050200068826812F0040F00F0B0800125C7
:10041800002D40F050820A68C2F31304002C40F00B
:10042800A880C2F38462012404FA02F2C469224358
:10043800C2611F684E680C683037320A920002F0B9
:100448000C02B85806F01F064FF01F0E0EFA06FEF3
:1004580020EA0E00C4F38464B4402043B8501C68FA
:10046800A26812F0040F00F091800120A26812F037
:10047800080F00F08D80012280F0010082F0010257
:1004880010424FD00F68886814347A0E920002F038
:100498000402A658C7F304574FF0070E0EFA07FEDA
:1004A80026EA0E06B8403043A050B44A126802F05B
:1004B8007042B2F1805F6DD01868C26812F0100FF8
:1004C80070D14A69C068C0F38200400082400F6959
:1004D800042F75D01C680E68603454F8270000F0AB
:1004E800004006F0F8463243024344F827201A68D1
:1004F8000E69487E01285DD02846603252F82640B1
:1005080024F00044204342F826001C6808690A7E4B
:10051800012A52D0226922F4F04200F01F008540DF
:10052800154325611868826812F0010F7CD00122FA
:10053800002A40F0CA810A68CD68D0F8C040C2F3EA
:10054800130624EA060405F018068D4DF5402A40E6
:10055800C2F313022243C0F8C020C868894A9042F7
:1005680064D00A68002AC0F221810020A8E1002591
:100578004EE792FAA2F212B1B2FA82F200E0202219
:1005880002F01F02012404FA02F24FE700206DE78F
:10059800002271E74A691868C068C0F38200400009
:1005A800824094E74A69C068800800F0040040006F
:1005B80082408CE74FF000409FE74FF40065A9E7C1
:1005C8001868026E02F0F8420C68B2EB846F1CD017
:1005D8001868426E02F0F8420C68B2EB846F19D0CA
:1005E8001868826E02F0F8420C68B2EB846F16D07D
:1005F8001868C26E02F0F8420C68B2EB846F91D1B1
:10060800C26E22F00042C2668CE7026E22F00042FF
:100618000266DDE7426E22F000424266E0E7826E43
:1006280022F000428266E3E7002281E71C680A683C
:10063800C2F31306002E35D1900E013000F01F00D2
:1006480009288CBF00200120002862D0002E38D154
:10065800900E0130800600F0F840002E3DD1950E36
:10066800013505F01F070125BD402843002E42D162
:10067800920E013202F01F0202EB420212050243FF
:100688008D681434500E800000F004002658C2F320
:1006980004520727974026EA070605FA02F2324372
:1006A80022505EE792FAA2F048B1B0FA80F0013029
:1006B80000F01F0009288CBF00200120C4E720207B
:1006C800F5E792FAA2F030B1B0FA80F00130800676
:1006D80000F0F840C1E72020F8E792FAA2F545B10A
:1006E800B5FA85F5013505F01F05012707FA05F567
:1006F800BBE72025F6E792FAA2F242B1B2FA82F2FB
:10070800013202F01F0202EB42021205B7E7202273
:10071800F6E7CEB9950E0135AD0605F0F845FEB9F8
:10072800900E013000F01F070120B84005435EBB62
:10073800900E013000F01F0000EB40021E3A120537
:1007480042F000722A439BE792FAA2F535B1B5FA56
:1007580085F50135AD0605F0F845E0E72025F8E711
:1007680092FAA2F040B1B0FA80F0013000F01F0018
:10077800012707FA00F0D9E72020F6E70010005C0F
:10078800FFFF0F000000FF4792FAA2F262B1B2FA2F
:1007980082F2501C00F01F0000EB4000A0F11E0286
:1007A800120542F00072CDE72022F2E719684A48A4
:1007B8004A4CA14218BF81420CBF0120002021D120
:1007C800474DAC6804F0E07610B34348806810F0F9
:1007D800010F19D00120414FBF6817F0010F15D044
:1007E800012738430CBF0120002000285DD03D4878
:1007F800824218D03C48824235D03C48824243D09D
:1008080000205DE03A4DDCE70020E4E70027E8E758
:100818003848806810F0010F03D0012080F00100F3
:10082800E3E70020FAE714F4000FE3D1314A9142DC
:1008380001D0002044E046F40002A96821F0E071EC
:100848000A43AA602C4A12682C49B2FBF1F2013221
:100858005200019202E0019A013A0192019A002A9B
:10086800F9D100202CE014F0807FC6D1214A9142B2
:1008780001D0002024E046F08072A96821F0E071E0
:100888000A43AA6000201BE014F4800F1FD1194A04
:10089800914201D0002013E046F48002A96821F0BB
:1008A800E0710A43AA6000200AE05A6D42F0200273
:1008B8005A65012004E05A6D42F020025A65012071
:1008C800002283F8502003B0F0BD0020F8E7002094
:1008D800F6E70220F7E700BF0020024000210240AF
:1008E80000230240000084CB000052C70000B8CFAC
:1008F800006302580060025814000024400D0300F1
:1009080038B503689A6812F0010F10D00122002A46
:100918005CD199682E4A11420BD0436D43F0100305
:100928004365836D43F001038365012038BD0022D0
:10093800EDE704469968274A0A4042F001029A60A6
:10094800FFF728FD05462368234A2449934218BF28
:100958008B4230D102F50072926802F01F021E49E4
:100968008B422AD01946994200D04ABB23681A689C
:1009780012F0010F28D19A6812F0010F22D001223B
:100988002AB99968134A0A4042F001029A60FFF7AF
:1009980001FD401B0228E9D923681B6813F0010FE9
:1009A800E4D1636D43F010036365A36D43F0010365
:1009B800A365012038BD0A4ACEE7A1F58071D2E7C8
:1009C800002038BD0022DBE7002038BD002038BDFC
:1009D8003F000080C0FFFF7F00210240002002404E
:1009E8000063025838B5054603684F4A4F49934299
:1009F80018BF8B4223D14E4B9B6813F4403F14BF62
:100A0800012300234BB301F075FA04466B68B3F574
:100A1800003F1CD0B3F5403F1DD0B3F5803F16D042
:100A2800FFF7D2FC41F20303984256D8414B9C424F
:100A38004DD92A68936843F48073936038BD3E4B60
:100A48009B6813F4403F14BF01230023DAE71B0C13
:100A5800B4FBF3F4E4E78408E2E74FF4002002F083
:100A68000FFB04466B68B3F5C01F16D00BD9B3F55E
:100A7800101F28D01DD8B3F5E01F22D0B3F5001FF2
:100A8800CED14409CCE7B3F5402F06D00AD8B3F548
:100A9800802F02D0B3F5002FC2D19B0C5B00B4FBB2
:100AA800F3F4BDE7B3F5801FF7D0B3F5A01FB7D1B6
:100AB800F3E7B3F5201F08D0B3F5301FB0D1040A0F
:100AC800AEE70409ACE78409AAE7C409A8E72A68DD
:100AD800936823F48073936038BD6408174B9C4275
:100AE8000BD9174B9C420ED9164B9C4213D92A6836
:100AF800936843F44073936038BD2A68936823F47D
:100B08004073936038BD2A68936823F4407343F4B4
:100B18008073936038BD2A68936823F4407343F464
:100B28000073936038BD00BF0021024000200240DE
:100B380000230240002D310100630258105E5F005F
:100B480020BCBE0040787D0130B583B000230193FE
:100B5800002800F035810446436D0BB323689A687A
:100B680012F0005F23D001221AB19968954A0A4011
:100B78009A6023689A6812F0805F1AD0012202BB3B
:100B88009968914A0A4042F080529A608F4B1B68DC
:100B98009B098F4AA2FB03239B09013301930DE0B4
:100BA80003F004FC0023A36584F85030D6E7002244
:100BB800DAE70022E3E7019B013B0193019B002B4D
:100BC800F9D123689A6812F0805F00F0A9800122A9
:100BD800002A40F0A780626D42F010026265A26DA3
:100BE80042F00102A26501259A6812F0040F00F094
:100BF8009B800121626D12F0100F40F0D98000290E
:100C080040F0D680626D22F4817242F00202626581
:100C18009A6812F0010F00F08980012212BB6D4919
:100C28006D4A934218BF8B420CBF0123002340F04A
:100C380083808A6812F0010F7AD00121664A92688F
:100C480012F0010F76D001220A430CBF01220022C4
:100C580042B1002B7BD0614963688A6822F47C1218
:100C680013438B60FFF7B0FB41F20303984202D9AC
:100C7800A368102B6DD0627D236B43EA4233A268D0
:100C88001343227F43EA0243227F012A6CD0626A1F
:100C980022B102F47872A16A0A4313432168C86832
:100CA8004F4A02401343CB6023689A6812F0040F3E
:100CB8005FD001219A6812F0080F5CD0012281F000
:100CC800010182F0010211421BD0217DE26A42EA51
:100CD8008132D868434901400A43DA6094F83830D1
:100CE800012B4AD02268136923F00103136122689B
:100CF800136923F07043616B0B4313612046FFF7C0
:100D080071FEE368012B4AD02268136B23F00F03AE
:100D18001363636D23F0030343F0010363654CE041
:100D2800002255E700255FE7002163E7002275E709
:100D3800002183E7002287E72B4A926812F0010F0F
:100D480003D0012282F0010282E70022FAE7274954
:100D580082E7617D226B42EA41321343227F43EAF4
:100D6800024343F00C038FE7226A013A43EA424305
:100D78008DE700219EE70022A1E7206802691C4B4D
:100D88001340E26B511E226C42EA0142616C0A4335
:100D9800A16C0A43134343F001030361A7E72168E9
:100DA8000B6B23F00F03A269013A13430B63B0E7FF
:100DB800636D43F0100363650125284603B030BD19
:100DC8000125FAE7C0FFFF5FC0FFFF6F1400002492
:100DD800632D3E050020024000210240002302400E
:100DE80003C0F0FFFCBFFFFF006002580063025819
:100DF8001EF800FC90F85020012A00F0B38030B4AF
:100E08009AB00346012280F85020002216921792C9
:100E180002685548824247D0002001900198002876
:100E280046D0806810F0040F4BD00124906810F071
:100E3800040F48D00120002840F08580002C40F0A5
:100E480082804A48484C824218BFA2423DD100F5F0
:100E580000700A68002A49D0826822F440424C682F
:100E6800224382601A68414C3F4DA24218BFAA42F1
:100E780031D1AA6812F0010F29D001243B4A9268A7
:100E880012F0010F25D0012222430CBF01220022BB
:100E9800002A63D08468364A22400C688968214356
:100EA8000A438260002053E000F580700190B5E7A6
:100EB8005A6D42F020025A65002283F85020012022
:100EC80049E00024B2E70020B5E72A48C1E700243A
:100ED800D4E70022D8E7284A926812F0010F03D01D
:100EE800012282F00102D3E70022FAE7816821F4A7
:100EF8004041816019681D4C1B4DA14218BFA94291
:100F080017D1A96811F0010F11D001241749896878
:100F180011F0010F00D0012222430CBF0122002250
:100F2800F2B18168124A0A408260002010E014463B
:100F3800ECE71149896811F0010F00D00122B2FADB
:100F480082F25209ECE75A6D42F020025A650120FC
:100F5800002283F850201AB030BC70470020F7E711
:100F68000020F5E7022070470020024000210240DF
:100F7800E0F0FFFF00630258006002580649CB68A2
:100F880023F4E0631B041B0C000200F4E06003433D
:100F9800024A1A43CA60704700ED00E00000FA05F3
:100FA80030B4144BDB68C3F30223C3F10704042CE9
:100FB80028BF04241D1D062D13D9033B012505FA5E
:100FC80004F4013C2140994005FA03F3013B134026
:100FD8001943002807DB0901C9B2074B195430BC73
:100FE80070470023EAE700F00F000901C9B2034B7C
:100FF8001954F4E700ED00E000E400E014ED00E02F
:10100800002808DB420900F01F00012303FA00F062
:10101800014B43F82200704700E100E00138B0F1CD
:10102800807F0AD2064B5860F021064A82F82310C6
:101038000020986007221A6070470120704700BF9F
:1010480010E000E000ED00E070B110B5044603794F
:1010580033B102232371002020610123237110BDC5
:10106800437103F02FFAF4E701207047F8B543798C
:10107800012B00F0A58017460D4604460123437155
:10108800022303710B68042B16D02B69012B5ED049
:101098002668F36B07F010020721914023EA010349
:1010A800E968012960D0022900F08680A968002932
:1010B80040F08480012158E0FFF76CF906467FB1C3
:1010C80023685B6B002B3BDAFFF764F9801B012870
:1010D800F6D9236943F00803236103202071F8BD82
:1010E80023685A6B374B13405BB1FFF753F9801BEA
:1010F8000128F5D9236943F00803236103202071EF
:10110800F8BD0120FFF74CF92368AA691A64206822
:10111800836C07F0100240F2FF31914023EA01038B
:10112800E96991400B4383642068C36CFF219140B7
:1011380023EA0103296A01FA02F21343C364A4E70C
:101148000120FFF72DF92368AA695A64DFE72068B0
:10115800836B07F010061F21B14023EA01036A6977
:10116800B2401343836393E700212868AF6838438C
:10117800014391400B43F363206803684FF48041B7
:10118800914023EA010303602068036840F6FE717A
:10119800914023EA0103696891400B43036020688A
:1011A8000368C02101FA02F223EA02020260012365
:1011B800237100206071F8BD0121D6E70021D4E732
:1011C8000220F8BD00800020F0B583B000233BE08A
:1011D800092600E0002606FA0EF635430234714E61
:1011E80046F82450704C2568D44305EA04064F6835
:1011F80017F4803F01D042EA05066B4D2E606E68F9
:1012080004EA06054F6817F4003F01D042EA0605D4
:10121800654E75604FF0B0452D6804EA05064F68C5
:1012280017F4801F01D042EA05064FF0B0452E6042
:101238006D682C404E6816F4001F01D042EA050480
:101248004FF0B042546001330A6832FA03F400F0F8
:10125800A78001249C402240F5D04D686E1E112DB8
:1012680018BF012E01D9122D15D185684FEA430EFA
:10127800032707FA0EF725EA0705CE6806FA0EF6E1
:1012880035438560456825EA04044D68C5F30015B3
:101298009D402C434460C6685F000324BC40E4437F
:1012A80026408D68BD402E43C6604D68122D18BF7C
:1012B800022D14D14FEAD30C0CF1080C50F82C5025
:1012C80003F0070E4FEA8E0E0F2606FA0EF625EAF1
:1012D80006050E6906FA0EF6354340F82C500568E7
:1012E8002C404D6805F00305BD402C4304604C6854
:1012F80014F0805FA7D02D4CD4F8F45045F00205C7
:10130800C4F8F450D4F8F44004F002040194019CA9
:101318009C08A61C234D55F8265003F003064FEAF7
:10132800860E0F2606FA0EF625EA0605204FB84265
:101338003FF450AF1F4EB04222D006F58066B0424F
:1013480020D006F58066B0421ED006F58066B04211
:101358001CD006F58066B0421AD006F58066B04209
:1013680018D006F58066B04216D006F58066B04201
:1013780014D006F58066B0423FF42AAF0A262AE761
:10138800012628E7022626E7032624E7042622E783
:10139800052620E706261EE707261CE708261AE783
:1013A80003B0F0BD00040058800000580044025803
:1013B800000002580004025812B9090481617047FC
:1013C80081617047436903EA010221EA030141EAA6
:1013D8000241816170470000134BDB6813F0040F72
:1013E80007D1114BDB6803F0070383421AD00120B1
:1013F800704710B50C4AD36823F007031843D06030
:10140800FEF7C8FF0446084B5B6813F4005F07D17A
:10141800FEF7C0FF001BB0F57A7FF4D9012010BD9C
:10142800002010BD0020704700480258002800F036
:101438000E8338B50446036813F0010F36D09D4A71
:10144800136903F03803926A102B26D0182B20D08A
:101458006368B3F5803F4FD0002B53D1954B1A6882
:1014680022F480321A601A6822F480221A606368B3
:10147800002B5ED0FEF78EFF05468E4B1B6813F4DB
:10148800003F13D1FEF786FF401B6428F5D90320DF
:1014980038BD02F00302022ADAD1864B1B6813F426
:1014A800003F03D06368002B00F0D382236813F059
:1014B800020F7AD07F4A1369926A13F038034AD030
:1014C800182B45D0E368002B00F0B88079490A68EA
:1014D80022F0190213430B60FEF75CFF0546754BBB
:1014E8001B6813F0040F40F08780FEF753FF401B82
:1014F8000228F4D9032038BD6E4A136843F48033B8
:101508001360B4E7B3F5A02F09D06A4B1A6822F428
:1015180080321A601A6822F480221A60A7E7654BA5
:101528001A6842F480221A601A6842F480321A60FB
:101538009DE7FEF72FFF05465E4B1B6813F4003F3F
:10154800B4D0FEF727FF401B6428F5D9032038BD27
:1015580012F0030FB6D1574B1B6813F0040F03D0DA
:10156800E368002B00F07782FEF72EFF41F20303B9
:10157800984212D82269402A07D04E494B6823F472
:101588007C3343EA02334B600FE04A4A536823F442
:101598007C3343F40033536007E0464A536823F032
:1015A800FE43216943EA01635360236813F0100F77
:1015B80000F08A803F4A136903F03803926A082BC7
:1015C80054D0182B4ED0E369002B00F0BA80394A6A
:1015D800136843F080031360FEF7DCFE0546354BC5
:1015E8001B6813F4807F40F08A80FEF7D3FE401B0F
:1015F8000228F4D9032038BDFEF7E6FE41F20303C2
:10160800984212D82269402A07D02A494B6823F405
:101618007C3343EA02334B60C7E7264A536823F416
:101628007C3343F400335360BFE7224A536823F006
:10163800FE43216943EA01635360B6E71D4A136814
:1016480023F001031360FEF7A5FE0546194B1B683E
:1016580013F0040FA9D0FEF79DFE401B0228F5D910
:10166800032038BD02F00302012AACD1114B1B68DC
:1016780013F4807F04D0E369802B01D0012038BDAA
:10168800FEF7A2FE41F20303984215D8226A202AE7
:1016980007D008494B6823F0F84343EA82634B605C
:1016A80012E0044A536823F0F84343F08043536040
:1016B8000AE000BF004402589A4AD36823F07C53DA
:1016C800216A43EA0163D360236813F0080F60D0EE
:1016D8006369002B49D0934A536F43F00103536762
:1016E800FEF758FE05468F4B5B6F13F0020F50D183
:1016F800FEF750FE401B0228F5D9032038BDFEF73F
:1017080063FE41F20303984212D8226A202A07D0C6
:1017180084494B6823F0F84343EA82634B60D3E77C
:10172800804A536823F0F84343F080435360CBE783
:101738007C4AD36823F07C53216A43EA0163D3606F
:10174800C2E7784A136823F080031360FEF722FE8D
:101758000546744B1B6813F4807FB5D0FEF71AFE5C
:10176800401B0228F5D9032038BD6E4A536F23F079
:1017780001035367FEF70EFE05466A4B5B6F13F0D5
:10178800020F06D0FEF706FE401B0228F5D90320FB
:1017980038BD236813F0200F29D0A3699BB1614A93
:1017A800136843F480531360FEF7F4FD05465D4B60
:1017B8001B6813F4005F1AD1FEF7ECFD401B0228EA
:1017C800F5D9032038BD574A136823F480531360B2
:1017D800FEF7E0FD0546534B1B6813F4005F06D087
:1017E800FEF7D8FD401B0228F5D9032038BD236831
:1017F80013F0040F21D1636A002B00F02E81494AAF
:10180800126902F03802182A00F0EE80022B75D017
:10181800444A136823F080731360FEF7BBFD044647
:10182800404B1B6813F0007F00F0DC80FEF7B2FD30
:10183800001B0228F4D9032038BD3B4A136843F43F
:1018480080731360FEF7A6FD0546374B1B6813F43B
:10185800807F06D1FEF79EFD401B6428F5D9032042
:1018680038BDA368012B1CD00BBB2E4B1A6F22F07E
:1018780001021A671A6F22F004021A67A36863B399
:10188800FEF788FD0546274B1B6F13F0020FB2D1F8
:10189800FEF780FD401B41F288339842F3D90320BC
:1018A80038BD204A136F43F001031367E6E7052BA1
:1018B80009D01C4B1A6F22F001021A671A6F22F026
:1018C80004021A67DAE7174B1A6F42F004021A6724
:1018D8001A6F42F001021A67D0E7FEF75BFD054672
:1018E800104B1B6F13F0020F85D0FEF753FD401B02
:1018F80041F288339842F3D9032038BD094A136866
:1019080023F080731360FEF745FD0546054B1B6801
:1019180013F0007F0AD0FEF73DFD401B0228F5D9E1
:10192800032038BD00440258004802584E4B996ABB
:101938004E4A0A40A16AE06A41EA00110A439A62E3
:10194800226B013AC2F30802616B0139490289B27C
:101958000A43A16B0139090401F4FE010A43E16B52
:101968000139090601F0FE410A431A63DA6A22F0D6
:101978000102DA62596B3E4A0A40A16C42EAC1028E
:101988005A63DA6A22F00C02216C0A43DA62DA6AD4
:1019980022F00202616C0A43DA62DA6A42F48032A7
:1019A800DA62DA6A42F40032DA62DA6A42F48022EF
:1019B800DA62DA6A42F00102DA621A6842F0807288
:1019C8001A60FEF7E7FC0446274B1B6813F0007FFC
:1019D80006D1FEF7DFFC001B0228F5D9032038BD2D
:1019E800002038BD002038BD1F4A916A106B012BBA
:1019F80035D001F00303A26A934201D0012038BD1B
:101A0800C1F30511E36A994201D0012038BDC0F342
:101A18000802236B013B9A4201D0012038BDC0F374
:101A28004622636B013B9A4201D0012038BDC0F3C6
:101A38000642A36B013B9A4201D0012038BDC0F396
:101A48000660E36B013B98420BD0012038BD0120B2
:101A58007047012038BD012038BD002038BD012065
:101A680038BD002038BD00BF004402580CFCFFFF01
:101A78000700FFFF734B1B6903F03803102B00F0BE
:101A8800DF80182B11D00BB16F4870476D4B1B6866
:101A980013F0200F01D16D4870476A4B1868C0F3E6
:101AA800C1006A4B23FA00F0704710B4654A916A86
:101AB80001F00301906AC0F30510D46A04F0010430
:101AC800536BC3F3CC0303FB04F307EE903AF8EE31
:101AD800677A002800F09480012966D0F9B10229BC
:101AE80000F0918007EE100AF8EE476A9FED586AF9
:101AF80086EE267A534B1B6BC3F3080306EE903A27
:101B0800F8EE666A9FED536A67EE867A76EEA77AF4
:101B1800F7EE006A77EEA67A27EE277A61E0494B5E
:101B28001B6813F0200F23D046490A68C2F3C1028C
:101B3800464BD34007EE103AF8EE476A07EE100A14
:101B4800B8EE476A86EE867A0B6BC3F3080306EE97
:101B5800903AF8EE666A9FED3F6A67EE867A76EE0F
:101B6800A77AF7EE006A77EEA67A27EE277A38E0AA
:101B780007EE100AF8EE476A9FED376A86EE267A76
:101B8800304B1B6BC3F3080306EE903AF8EE666A17
:101B98009FED306A67EE867A76EEA77AF7EE006AEE
:101BA80077EEA67A27EE277A1BE007EE100AF8EE02
:101BB800476A9FED276A86EE267A224B1B6BC3F392
:101BC800080306EE903AF8EE666A9FED226A67EE21
:101BD800867A76EEA77AF7EE006A77EEA67A27EE8F
:101BE800277A184B1B6BC3F34623013307EE903A51
:101BF800F8EE677AC7EE276AFCEEE67A17EE900AE7
:101C08005DF8044B704707EE100AF8EE476A9FED3F
:101C1800136A86EE267A0B4B1B6BC3F3080306EE9A
:101C2800903AF8EE666A9FED0B6A67EE867A76EE72
:101C3800A77AF7EE006A77EEA67A27EE277AD0E73A
:101C4800074870470044025800093D000090D0033F
:101C58000024744A000000390024744C0024F44A1B
:101C680000127A00002800F0358170B504469B4BBD
:101C78001B6803F00F038B420CD2984A136823F0B9
:101C88000F030B431360136803F00F03994201D04D
:101C9800012070BD236813F0040F0CD02269904B0B
:101CA8009B6903F070039A4205D98D48836923F034
:101CB80070031A438261236813F0080F0CD062691D
:101CC800874BDB6903F070039A4205D98448C369DE
:101CD80023F070031A43C261236813F0100F0CD06D
:101CE800A2697F4BDB6903F4E0639A4205D97C481B
:101CF800C36923F4E0631A43C261236813F0200F19
:101D08000CD0E269764B1B6A03F070039A4205D93E
:101D18007348036A23F070031A430262236813F0BE
:101D2800020F0CD0E2686E4B9B6903F00F039A42D6
:101D380005D96B48836923F00F031A4382610D4666
:101D4800236813F0010F41D0654A936923F4706347
:101D5800A1680B4393616368022B23D0032B27D020
:101D6800012B2CD05E4A126812F0040F00F0B480E8
:101D78005B490A6922F0070213430B61FEF70AFB6D
:101D88000646574B1B6903F038036268B3EBC20F72
:101D98001CD0FEF7FFFA801B41F288339842F0D935
:101DA800032070BD126812F4003FE1D1012070BD1C
:101DB8004B4A126812F0007FDAD1012070BD484A00
:101DC800126812F4807FD3D1012070BD236813F00C
:101DD800020F0CD0E268424B9B6903F00F039A4252
:101DE80005D23F498B6923F00F031A438A613B4BA5
:101DF8001B6803F00F039D420CD2384A136823F086
:101E08000F032B431360136803F00F039D4201D0A7
:101E1800012070BD236813F0040F0CD02269304BE9
:101E28009B6903F070039A4205D22D498B6923F010
:101E380070031A438A61236813F0080F0CD0626993
:101E4800274BDB6903F070039A4205D22449CB691A
:101E580023F070031A43CA61236813F0100F0CD0E3
:101E6800A2691F4BDB6903F4E0639A4205D21C495F
:101E7800CB6923F4E0631A43CA61236813F0200F87
:101E88000CD0E269164B1B6A03F070039A4205D224
:101E980013490B6A23F070031A430A62FFF7EAFD3D
:101EA8000F498B69C3F303230E4AD35C03F01F0366
:101EB800D8408B6903F00F03D35C03F01F0320FAAB
:101EC80003F3094A1360094B1860094B1868FEF7B9
:101ED800FFF970BD01207047012070BD002000523D
:101EE80000440258685E000818000024140000240A
:101EF8000400002408B5FFF7BDFD0B4A9369C3F33E
:101F080003230A49CB5C03F01F0320FA03F3926909
:101F180002F00F02885C00F01F0023FA00F0044A68
:101F28001060044A136008BD00440258685E000847
:101F38001800002414000024404B9B6A03F003039C
:101F4800032B79D070B50E4605463C4A136823F03A
:101F580080631360FEF71EFA0446384B1B6813F0C3
:101F6800006F06D0FEF716FA001B0228F5D90320E9
:101F780070BD324B9A6A22F47C32296842EA0132F7
:101F88009A626A68013AC2F30802A96801394902EB
:101F980089B20A43E9680139090401F4FE010A43D8
:101FA80029690139090601F0FE410A439A63DA6A90
:101FB80022F0C00269690A43DA62DA6A22F0200272
:101FC800A9690A43DA62DA6A22F01002DA62D96B86
:101FD8001B4A0A40E96942EAC102DA63DA6A42F056
:101FE8001002DA62C6B91A46DB6A43F40023D362E8
:101FF800124A136843F080631360FEF7CBF9044676
:102008000E4B1B6813F0006F14D1FEF7C3F9001BC9
:102018000228F5D9032070BD012E05D0074AD36ADE
:1020280043F40013D362E3E7044AD36A43F480130A
:10203800D362DDE7002070BD0120704700440258DC
:102048000700FFFF404B9B6A03F00303032B79D083
:1020580070B50E4605463C4A136823F0805313605A
:10206800FEF798F90446384B1B6813F0005F06D05A
:10207800FEF790F9001B0228F5D9032070BD324BFA
:102088009A6A22F07C72296842EA01529A626A6866
:10209800013AC2F30802A9680139490289B20A4320
:1020A800E9680139090401F4FE010A432969013983
:1020B800090601F0FE410A431A64DA6A22F4406212
:1020C80069690A43DA62DA6A22F40072A9690A4382
:1020D800DA62DA6A22F48072DA62596C1B4A0A40C0
:1020E800E96942EAC1025A64DA6A42F48072DA6241
:1020F800C6B91A46DB6A43F48003D362124A1368EE
:1021080043F080531360FEF745F904460E4B1B68F5
:1021180013F0005F14D1FEF73DF9001B0228F5D932
:10212800032070BD012E05D0074AD36A43F080739F
:10213800D362E3E7044AD36A43F40003D362DDE7DA
:10214800002070BD01207047004402580700FFFFBF
:10215800F8B50446036813F0006F2BD0436EB3F54F
:10216800801F19D010D9B3F5001F1BD0B3F5401F3D
:102178001ED1002565BB9B4A136D23F44013616E85
:102188000B4313652E4617E093B9964AD36A43F476
:102198000033D3620025EDE702210430FFF7CCFEBF
:1021A8000546E7E702212430FFF74CFF0546E1E743
:1021B8000125DFE700263546236813F4807F27D002
:1021C800636D042B21D8DFE803F00513190A0A0010
:1021D8002E46F1E7834AD36A43F40033D362B5B994
:1021E800804A136D23F00703616D0B4313650FE0FD
:1021F8000021201DFFF7A0FE0546F0E7002104F1AD
:102208002400FFF71FFF0546E9E70125E7E72E460B
:10221800236813F4007F29D0A36D802B1ED008D823
:1022280073B1402B0AD10021201DFFF785FE05461A
:102238000BE0C02B09D0B3F5807F06D0012504E060
:10224800684AD36A43F40033D36275B9654A136D9B
:1022580023F4E073A16D0B43136507E0002104F13B
:102268002400FFF7EFFE0546EFE72E46236813F438
:10227800806F2ED0D4F8A430B3F5800F21D009D8C0
:1022880083B1B3F5001F0BD10021201DFFF754FEC9
:1022980005460CE0B3F5C00F09D0B3F5000F06D022
:1022A800012504E04F4AD36A43F40033D3627DB971
:1022B8004C4A936D23F46003D4F8A4100B43936540
:1022C80007E0002104F12400FFF7BCFE0546EEE715
:1022D8002E46236813F4006F2ED0D4F8A830B3F13B
:1022E800007F21D009D883B1B3F1807F0BD10021C1
:1022F800201DFFF721FE05460CE0B3F1407F09D011
:10230800B3F1806F06D0012504E0364AD36A43F45E
:102318000033D3627DB9334A936D23F0E063D4F878
:10232800A8100B43936507E0002104F12400FFF790
:1023380089FE0546EEE72E46236813F0007F20D07D
:10234800A36C102B08D004D9202B13D0302B08D025
:1023580000E033B1012504E0224AD36A43F4003394
:10236800D3626DB91F4AD36C23F03003A16C0B43C1
:10237800D36406E00221201DFFF7DEFD0546F0E7E5
:102388002E46236813F4805F2FD0E36DB3F5005F0A
:1023980020D009D883B1B3F5805F0BD10021201D6F
:1023A800FFF7CAFD05460CE0B3F5405F09D0B3F569
:1023B800804F06D0012504E00A4AD36A43F400336B
:1023C800D3628DB9074A136D23F4E043E16D0B43E3
:1023D80013650AE0002104F12400FFF733FE0546E7
:1023E800EFE700BF004402582E46236813F4005F4D
:1023F80029D0236EB3F5003F1DD011D83BB1B3F5FA
:10240800803F16D10121201DFFF796FD0546CDB965
:10241800974A136D23F4E023216E0B43136512E0F2
:10242800B3F5802FF3D0B3F5A02FF0D0B3F5403F2C
:10243800EDD00125EBE7012104F12400FFF702FEAE
:102448000546E4E72E46236813F4804F2BD0D4F8D2
:10245800AC30B3F1005F1ED012D83BB1B3F1805F4E
:1024680017D10121201DFFF767FD0546D5B9804A20
:10247800936D23F0E043D4F8AC100B43936512E05E
:10248800B3F1804FF2D0B3F1A04FEFD0B3F1405F7A
:10249800ECD00125EAE7012104F12400FFF7D2FD81
:1024A8000546E3E72E46236813F4004F1ED0E36E7B
:1024B800B3F1805F05D0B3F1005F10D033B10125CF
:1024C80004E06B4AD36A43F40033D3626DB9684AB7
:1024D800136D23F04053E16E0B43136506E00121B1
:1024E800201DFFF729FD0546F0E72E46236813F067
:1024F800807F1DD0636C032B17D8DFE803F0070239
:1025080010075B4AD36A43F40033D3627DB9584A53
:10251800D36C23F00303616C0B43D36408E00221FE
:10252800201DFFF709FD0546F0E70125EEE72E46D9
:10253800236813F4800F1FD1236813F0010F00F0F4
:102548009E80A36F282B00F29080DFE803F07E8E38
:102558008E8E8E8E8E8E798E8E8E8E8E8E8E878EAF
:102568008E8E8E8E8E8E7E8E8E8E8E8E8E8E7E8EA3
:102578008E8E8E8E8E8E7E003E4A136843F4807354
:102588001360FDF707FF07463A4B1B6813F4807F7B
:1025980005D1FDF7FFFEC01B6428F5D90325002DE2
:1025A8004AD1334B1B6FD4F8B020534013F4407F0B
:1025B8000CD02F4B1A6F22F44072196F41F48031FE
:1025C8001967196F21F4803119671A67D4F8B03088
:1025D800B3F5807F15D08DBBD4F8B03003F44072CA
:1025E800B2F5407F1ED0224A136923F47C5313614D
:1025F8001F490B6FD4F8B020C2F30B0213430B67CB
:102608009AE7FDF7C7FE0746194B1B6F13F0020F39
:10261800E1D1FDF7BFFEC01B41F288339842F3D9E0
:102628000325D8E71248026922F47C52124901EACC
:10263800131313430361DBE72E467DE72E467BE742
:102648000121201DFFF778FC0546BDB9084A536DE6
:1026580023F03803A16F0B43536510E0012104F107
:102668002400FFF7EFFC0546EFE70125EDE700BF83
:102678000044025800480258CFFFFF002E46236846
:1026880013F0020F1FD0636F052B19D8DFE803F092
:102698000803110808080121201DFFF74DFC054615
:1026A80085B9AA4A536D23F00703616F0B4353653D
:1026B80009E0012104F12400FFF7C4FC0546EFE717
:1026C8000125EDE72E46236813F0040F21D0D4F836
:1026D8009030052B1AD8DFE803F008031208080821
:1026E8000121201DFFF728FC05468DB9974A936DF7
:1026F80023F00703D4F890100B43936509E00121F8
:1027080004F12400FFF79EFC0546EEE70125ECE7FF
:102718002E46236813F0200F2BD0D4F88C30B3F159
:10272800005F1ED012D83BB1B3F1805F17D10021F2
:10273800201DFFF701FC0546D5B9844A536D23F0E7
:10274800E043D4F88C100B43536512E0B3F1804F8B
:10275800F2D0B3F1A04FEFD0B3F1405FECD0012538
:10276800EAE7022104F12400FFF76CFC0546E3E7E1
:102778002E46236813F0400F2BD0D4F89830B3F5C9
:10278800006F1ED012D83BB1B3F5806F17D100216E
:10279800201DFFF7D1FB0546D5B96C4A936D23F48C
:1027A800E053D4F898100B43936512E0B3F5805FBB
:1027B800F2D0B3F5A05FEFD0B3F5406FECD00125B0
:1027C800EAE7022104F12400FFF73CFC0546E3E7B1
:1027D8002E46236813F0800F2BD0D4F89C30B3F525
:1027E800804F1ED012D83BB1B3F5005F17D100213E
:1027F800201DFFF7A1FB0546D5B9544A936D23F474
:102808006043D4F89C100B43936512E0B3F5004F76
:10281800F2D0B3F5204FEFD0B3F5C04FECD001257F
:10282800EAE7022104F12400FFF70CFC0546E3E780
:102838002E46236813F0080F0CD0D4F88030B3F577
:10284800805F27D0414A536D23F44053D4F8801059
:102858000B435365236813F0100F0CD0D4F8943051
:10286800B3F5807F1FD0394A936D23F44073D4F8B1
:1028780094100B439365236813F4002F33D0D4F8D6
:10288800A030B3F5803F26D0B3F5003F19D09BB1F7
:10289800012516E0022104F12400FFF7D3FB0028EC
:1028A800D0D00126CEE7022104F12400FFF7CAFBAD
:1028B8000028D8D00126D6E70021201DFFF73CFBD1
:1028C80005467DB9214A936D23F44033D4F8A0100E
:1028D8000B43936507E0022104F12400FFF7B2FBE4
:1028E8000546EEE72E46236813F4802F23D0D4F84C
:1028F8008430B3F5001F16D0B3F5401F09D0B3F5E7
:10290800801F01D0012504E0104AD36A43F4003344
:10291800D3627DB90D4A536D23F44013D4F8841063
:102928000B43536507E0012104F12400FFF78AFBFC
:102938000546EEE72E46236813F4803F1DD0E36C6E
:1029480033B1B3F5803F11D0012506E000440258A9
:10295800474AD36A43F40033D3626DB9444AD36C0F
:1029680023F48033E16C0B43D36406E00221201D7D
:10297800FFF7E2FA0546F0E72E46236813F0005FFA
:102988000FD1236813F4003F26D0E36FB3F5807F9F
:1029980013D00FD9B3F5007F14D0B3F5407F0AD117
:1029A80010E0022104F12400FFF74CFB0028E8D0D6
:1029B8000126E6E733B1012504E02D4AD36A43F442
:1029C8000033D3623DB92A4A536D23F44073E16F53
:1029D8000B43536500E02E46236813F4801F06D08E
:1029E800234A136D23F00043216F0B4313652368BB
:1029F80013F0805F07D01E4A136923F48043D4F88C
:102A0800B4100B431361236813F4001F06D0184A4F
:102A1800136D23F08073A16E0B431365236813F0C5
:102A2800804F09D0124B1A6922F400421A611A69C0
:102A3800D4F8B8100A431A612368002B0FDB236807
:102A480013F4000F07D00A4A536D23F44003D4F857
:102A580088100B43536506B101263046F8BD044A79
:102A6800D36C23F04053216D0B43D364E7E700BFD9
:102A78000044025808B5FFF73DFA054B1B6AC3F33B
:102A88000213044AD35C03F01F03D84008BD00BFFB
:102A980000440258685E000830B477498C6A8A6A34
:102AA800C2F30532CD6AC5F30015CB6BC3F3CC0373
:102AB80003FB05F3002A00F0DA8004F0030407EEB4
:102AC800903AF8EE677A012C66D0FCB1022C00F03F
:102AD800B18007EE102AB8EE477A9FED686AC6EE15
:102AE800076A654B9B6BC3F3080307EE103AB8EE11
:102AF800477A9FED636A67EE867A77EE277AB7EEB4
:102B0800007A77EE877A66EEA76A61E05A4B1B680F
:102B180013F0200F23D0584C2168C1F3C101594B41
:102B2800CB4007EE103AB8EE477A06EE902AB8EE98
:102B3800666AC7EE066AA36BC3F3080307EE103A8A
:102B4800B8EE477A9FED4E6A67EE867A77EE277A77
:102B5800B7EE007A77EE877A66EEA76A38E007EE76
:102B6800102AB8EE477A9FED486AC6EE076A424BCC
:102B78009B6BC3F3080307EE103AB8EE477A9FED54
:102B8800406A67EE867A77EE277AB7EE007A77EEB4
:102B9800877A66EEA76A1BE007EE102AB8EE477A36
:102BA8009FED366AC6EE076A334B9B6BC3F3080387
:102BB80007EE103AB8EE477A9FED316A67EE867AEB
:102BC80077EE277AB7EE007A77EE877A66EEA76A0D
:102BD800294A936BC3F3462307EE103AB8EE477AB7
:102BE800B7EE006A37EE067AC6EE877AFCEEE77A29
:102BF800C0ED007A936BC3F3064307EE103AB8EEC4
:102C0800477A37EE067AC6EE877AFCEEE77AC0EDA9
:102C1800017A936BC3F3066307EE903AF8EE677A8E
:102C280077EE867A86EEA77ABCEEC77A80ED027ACE
:102C380030BC704707EE102AB8EE477A9FED136A4A
:102C4800C6EE076A0C4B9B6BC3F3080307EE103AFA
:102C5800B8EE477A9FED0A6A67EE867A77EE277AAA
:102C6800B7EE007A77EE877A66EEA76AB0E70023B8
:102C7800036043608360DBE7004402580024744A21
:102C8800000000390090D0030024744C0024F44A5A
:102C980030B477498C6A8A6AC2F30552CD6AC5F3A3
:102CA80000254B6CC3F3CC0303FB05F3002A00F0AB
:102CB800DA8004F0030407EE903AF8EE677A012C04
:102CC80066D0FCB1022C00F0B18007EE102AB8EEF5
:102CD800477A9FED686AC6EE076A654B1B6CC3F3BB
:102CE800080307EE103AB8EE477A9FED636A67EE7D
:102CF800867A77EE277AB7EE007A77EE877A66EEED
:102D0800A76A61E05A4B1B6813F0200F23D0584C78
:102D18002168C1F3C101594BCB4007EE103AB8EE18
:102D2800477A06EE902AB8EE666AC7EE066A236C02
:102D3800C3F3080307EE103AB8EE477A9FED4E6AE0
:102D480067EE867A77EE277AB7EE007A77EE877A9B
:102D580066EEA76A38E007EE102AB8EE477A9FEDCC
:102D6800486AC6EE076A424B1B6CC3F3080307EEBA
:102D7800103AB8EE477A9FED406A67EE867A77EEAA
:102D8800277AB7EE007A77EE877A66EEA76A1BE0B5
:102D980007EE102AB8EE477A9FED366AC6EE076A44
:102DA800334B1B6CC3F3080307EE103AB8EE477AAF
:102DB8009FED316A67EE867A77EE277AB7EE007A6A
:102DC80077EE877A66EEA76A294A136CC3F346231F
:102DD80007EE103AB8EE477AB7EE006A37EE067A91
:102DE800C6EE877AFCEEE77AC0ED007A136CC3F37F
:102DF800064307EE103AB8EE477A37EE067AC6EE83
:102E0800877AFCEEE77AC0ED017A136CC3F30663A8
:102E180007EE903AF8EE677A77EE867A86EEA77A2A
:102E2800BCEEC77A80ED027A30BC704707EE102AF4
:102E3800B8EE477A9FED136AC6EE076A0C4B1B6C17
:102E4800C3F3080307EE103AB8EE477A9FED0A6A13
:102E580067EE867A77EE277AB7EE007A77EE877A8A
:102E680066EEA76AB0E70023036043608360DBE790
:102E7800004402580024744A000000390090D0032E
:102E88000024744C0024F44A30B477498C6A8A6A66
:102E9800C2F30512CD6A05F001054B6BC3F3CC03F1
:102EA80003FB05F3002A00F0DA8004F0030407EEC0
:102EB800903AF8EE677A012C66D0FCB1022C00F04B
:102EC800B18007EE102AB8EE477A9FED686AC6EE21
:102ED800076A654B1B6BC3F3080307EE103AB8EE9D
:102EE800477A9FED636A67EE867A77EE277AB7EEC0
:102EF800007A77EE877A66EEA76A61E05A4B1B681C
:102F080013F0200F23D0584C2168C1F3C101594B4D
:102F1800CB4007EE103AB8EE477A06EE902AB8EEA4
:102F2800666AC7EE066A236BC3F3080307EE103A16
:102F3800B8EE477A9FED4E6A67EE867A77EE277A83
:102F4800B7EE007A77EE877A66EEA76A38E007EE82
:102F5800102AB8EE477A9FED456AC6EE076A424BDB
:102F68001B6BC3F3080307EE103AB8EE477A9FEDE0
:102F7800406A67EE867A77EE277AB7EE007A77EEC0
:102F8800877A66EEA76A1BE007EE102AB8EE477A42
:102F98009FED396AC6EE076A334B1B6BC3F3080310
:102FA80007EE103AB8EE477A9FED316A67EE867AF7
:102FB80077EE277AB7EE007A77EE877A66EEA76A19
:102FC800294A136BC3F3462307EE103AB8EE477A43
:102FD800B7EE006A37EE067AC6EE877AFCEEE77A35
:102FE800C0ED007A136BC3F3064307EE103AB8EE50
:102FF800477A37EE067AC6EE877AFCEEE77AC0EDB6
:10300800017A136BC3F3066307EE903AF8EE677A1A
:1030180077EE867A86EEA77ABCEEC77A80ED027ADA
:1030280030BC704707EE102AB8EE477A9FED136A56
:10303800C6EE076A0C4B1B6BC3F3080307EE103A86
:10304800B8EE477A9FED0A6A67EE867A77EE277AB6
:10305800B7EE007A77EE877A66EEA76AB0E70023C4
:10306800036043608360DBE7004402580024744C2B
:10307800000000390090D0030024744A0024F44A68
:1030880000B58BB0B0F5807F20D0B0F5007F74D04C
:10309800B0F5806F00F0CD80B0F5006F00F02881AA
:1030A800B0F5805F00F08B81B0F5002F00F0E6816D
:1030B800B0F5803F00F02A82B0F5804F00F04582DD
:1030C800B0F5004F00F08D8200200CE0A74B186D82
:1030D80000F00700042800F2BB82DFE800F00711C7
:1030E8001D032900A2480BB05DF804FB9F4B1B6829
:1030F80013F0007FF7D007A8FFF7C6FE0898F2E79D
:103108009A4B1B6813F0006F01D10020EBE704A86D
:10311800FFF7C2FC0498E6E7944B1B6813F0005FC6
:1031280001D10020DFE701A8FFF7B2FD0198DAE737
:103138008E4AD36C03F04053126812F0040F00D08B
:10314800A3B18A4A126812F4807F03D0B3F1805F7A
:1031580000F08082854A126812F4003F00F07C82F9
:10316800B3F1005F00F07A820020BCE77F4B1B6858
:10317800C3F3C1037F48D840B5E77C4B186D00F412
:10318800E070802842D00AD880B3402840F0688296
:10319800764B1B6813F0006F33D10020A3E7C028DB
:1031A80022D0B0F5807F40F05B82704AD36C03F088
:1031B8004053126812F0040F01D0002B32D06B4A32
:1031C800126812F4807F03D0B3F1805F00F04A8266
:1031D800664A126812F4003F00F04682B3F1005FBD
:1031E80000F0448200207EE761487CE75F4B1B6863
:1031F80013F0007F3FF477AF07A8FFF745FE089864
:1032080071E704A8FFF748FC04986CE7574B1B6864
:1032180013F0005F01D1002065E701A8FFF738FD32
:10322800019860E7514B1B68C3F3C1035148D8406C
:1032380059E74E4B986D00F46000B0F5800F44D00C
:103248000BD890B3B0F5001F40F01282474B1B68B3
:1032580013F0006F34D1002045E7B0F5C00F22D03D
:10326800B0F5000F40F00482404AD36C03F040539D
:10327800126812F0040F01D0002B32D03B4A1268BA
:1032880012F4807F03D0B3F1805F00F0F381374AF6
:10329800126812F4003F00F0EF81B3F1005F00F014
:1032A800ED8100201FE732481DE7304B1B6813F003
:1032B800007F3FF418AF07A8FFF7E6FD089812E76C
:1032C80004A8FFF7E9FB04980DE7284B1B6813F0E7
:1032D800005F01D1002006E701A8FFF7D9FC01989B
:1032E80001E7224B1B68C3F3C1032248D840FAE622
:1032F8001E4B986D00F0E060B0F1007F4CD00CD808
:10330800002839D0B0F1807F40F0BA81174B1B6894
:1033180013F0006F3BD10020E5E6B0F1407F22D0EA
:10332800B0F1806F40F0AC81104AD36C03F0405389
:10333800126812F0040F01D0002B39D00B4A126822
:1033480012F4807F03D0B3F1805F00F09B81074ABD
:10335800126812F4003F00F09781B3F1005F00F0AB
:1033680095810020BFE60248BDE600BF0044025830
:103378000080BB000090D003A44B1B6813F0007FB3
:103388003FF4B1AE07A8FFF77FFD0898ABE604A8A5
:10339800FFF782FB0498A6E69C4B1B6813F0005FBE
:1033A80001D100209FE601A8FFF772FC01989AE678
:1033B800964B1B68C3F3C1039548D84093E6934BDB
:1033C800186D00F4E040B0F5005F44D00BD890B31E
:1033D800B0F5805F40F05C818C4B1B6813F0006F88
:1033E80034D100207FE6B0F5405F22D0B0F5804FA1
:1033F80040F04E81854AD36C03F04053126812F0B6
:10340800040F01D0002B32D0804A126812F4807F5A
:1034180003D0B3F1805F00F03D817C4A126812F45A
:10342800003F00F03981B3F1005F00F037810020E0
:1034380059E6784857E6754B1B6813F0007F3FF450
:1034480052AE07A8FFF720FD08984CE604A8FFF73E
:1034580023FB049847E66D4B1B6813F0005F01D10E
:10346800002040E601A8FFF713FC01983BE6674BF4
:103478001B68C3F3C1036648D84034E6634B986DB4
:1034880000F44030B0F5803F0FD0B0F5003F18D0C1
:1034980008B1002027E61B6813F0006F3FF423AE45
:1034A80004A8FFF7F9FA04981DE6584B1B6813F0B7
:1034B800005F01D1002016E601A8FFF7E9FB039899
:1034C80011E6524AD36C03F04053126812F0040F0D
:1034D80000D0A3B14D4A126812F4807F03D0B3F133
:1034E800805F00F0DD80494A126812F4003F00F066
:1034F800D980B3F1005F00F0D7800020F3E5434B9B
:103508001B68C3F3C1034248D840ECE53F4BD86C75
:1035180010F4803002D060B90020E4E53B4B1B6812
:1035280013F0007F3FF4DFAD07A8FFF7ADFC089864
:10353800D9E5364B1B6813F0006F01D10020D2E5A6
:1035480004A8FFF7A9FA0698CDE5304B9B6D03F068
:10355800E043B3F1005F1ED00AD9B3F1804F32D0F7
:10356800B3F1A04F36D0B3F1405F20D00020BAE5C8
:103578004BB1B3F1805FF9D1244B1B6813F0006F96
:1035880004D10020AFE5FFF775FAACE504A8FFF712
:1035980083FA0598A7E51D4B1B6813F0005F01D15E
:1035A8000020A0E501A8FFF773FB02989BE5174BE5
:1035B8001B6813F0040F79D0144B1B68C3F3C103C5
:1035C8001348D8408FE5114B1B6813F4807F6FD0E8
:1035D800114888E50D4B1B6813F4003F6AD00F486B
:1035E80081E50A4B186D00F04050B0F1805F17D0AC
:1035F800B0F1005F20D008B1002074E51B6813F417
:10360800003F3FF470AD05486DE500BF0044025827
:103618000090D0030080BB0000093D0000127A0032
:10362800254B1B6813F0007F01D100205BE507A83C
:10363800FFF72AFC089856E51F4B1B6813F0006F2C
:1036480001D100204FE504A8FFF726FA05984AE5BE
:10365800002048E5194846E5002044E5184842E5B9
:10366800002040E515483EE500203CE514483AE5D1
:10367800002038E5114836E5002034E5104832E5E9
:10368800002030E50D482EE500202CE50C482AE501
:10369800002028E5094826E5002024E5084822E519
:1036A800064820E500201EE505481CE500201AE52F
:1036B800002018E5002016E50044025800093D00E6
:1036C80000127A00C36B5B09C0680830C00803FBAE
:1036D80000007047002800F0A18070B50446002360
:1036E80083620568504B514E9D4218BFB54214BFC6
:1036F8000126002607D0A3F574439D4203D0C36872
:103708000F2B00F28D802046FFF7DCFF2EB1484BCF
:103718009D4202D0082800F28580444B424A9D42CF
:1037280018BF95425CD003F580639D4258D094F849
:103738008130002B58D0022384F881302268136826
:1037480023F001031360A369B3F1806F52D022689C
:10375800E369A16A0B43E16B0B43E1680B43936098
:103768002268636B616A0B43A16B0B43A1690B432E
:1037780021690B4361690B43216A0B4361680B4361
:10378800E16C0B43A1680B43A16C0B43A16D0B4388
:10379800D36063686BB92268936823F4C05343F419
:1037A800006393602268936823F4C06343F48063E2
:1037B80093602268136D23F001031365636813F4A3
:1037C800800F06D02268D36823F00043616D0B4355
:1037D800D3600020C4F88400012384F8813070BDD0
:1037E8001028A4D9012070BD84F88030204601F04B
:1037F8000FFCA0E76368B3F5800F06D0002BA6D1B5
:10380800A36BB3F1805FA2D102E0A26B002AF5D1CD
:103818002268136843F48053136098E701207047C7
:10382800012070BD012070BD00300140003800400B
:10383800003C0040F0B4036A23F001030362036A0A
:10384800446885691E4A2A400D68154323F002031F
:103858008A6813431B4A1C4EB04218BF90420CBFE3
:10386800012200220CD006F58046B04214BF002683
:103878000126164FB84203D016B9154EB04205D1ED
:1038880023F00803CE68334323F004035AB9114ADE
:10389800904214BF002201220C4EB04203D012B94C
:1038A8000B4A904205D124F440744A6914438A694A
:1038B8001443446085614A6842630362F0BC704700
:1038C8008CFFFEFF00000140000401400040014061
:1038D800004801400044014070B4036A23F4807337
:1038E8000362036A4468C26922F073020E681643D1
:1038F80023F400738A6843EA0223164A164DA84245
:1039080018BF90420CBF0122002206D123F40063A5
:10391800CD6843EA052323F480635AB90F4A9042DD
:1039280014BF002201220E4DA84203D012B90D4A3D
:10393800904207D124F440544A6944EA02148A693F
:1039480044EA02144460C6614A68C263036270BCF8
:10395800704700BF000001400004014000440140DE
:10396800004001400048014070B4036A23F48053CA
:103978000362036A4468C26922F4E6420D6842EAB7
:10398800052223F400538D6843EA05330F4D104E8A
:10399800A84218BFB0420DD005F58045A84214BF13
:1039A8000025012506F58046B04203D015B9094D1A
:1039B800A84204D124F480444D6944EA8514446043
:1039C800C2614A680264036270BC70470004014027
:1039D800000001400048014070B4036A23F48033BA
:1039E8000362036A4468426D22F070020D682A433C
:1039F80023F400338D6843EA0543104D104EA84266
:103A080018BFB0420DD005F58045A84214BF002567
:103A1800012506F58046B04203D015B9094DA842E4
:103A280004D124F480344D6944EA05244460426595
:103A38004A688265036270BC704700BF0004014099
:103A4800000001400048014070B4036A23F4801369
:103A58000362036A4468426D22F4E0420D6842EA58
:103A6800052223F400138D6843EA05530F4D104EC9
:103A7800A84218BFB0420DD005F58045A84214BF32
:103A88000025012506F58046B04203D015B9094D39
:103A9800A84204D124F400344D6944EA85244460E2
:103AA80042654A68C265036270BC70470004014001
:103AB800000001400048014010B4036A046A24F081
:103AC80001040462846924F0F00444EA021223F039
:103AD8000A030B43826103625DF8044B704710B41C
:103AE800036A23F0100303628469036A24F47044B0
:103AF80044EA023223F0A00343EA0113826103621D
:103B08005DF8044B704700008268034B134019436B
:103B180041F00701816070478FFFCFFF90F83D307B
:103B2800DBB2012B01D001207047022380F83D3021
:103B38000268D36843F00103D3600368174AB3F1FE
:103B4800804F18BF934219D0A2F57C42934215D0FA
:103B580002F58062934211D002F5806293420DD043
:103B680002F57842934209D0A2F56C42934205D0FF
:103B78001A6842F001021A60002070479968084AE2
:103B88000A40062A18BFB2F5803F05D01A6842F0ED
:103B980001021A60002070470020704700000140B1
:103BA800070001007047704770477047704710B5AD
:103BB800044603681A6912F0020F11D0DA6812F08D
:103BC800020F0DD06FF002021A6101230377036818
:103BD8009B6913F0030F79D0FFF7E6FF00232377E3
:103BE80023681A6912F0040F12D0DA6812F0040F71
:103BF8000ED06FF004021A610223237723689B69B1
:103C080013F4407F68D02046FFF7CEFF00232377C8
:103C180023681A6912F0080F12D0DA6812F0080F38
:103C28000ED06FF008021A61042323772368DB693A
:103C380013F0030F57D02046FFF7B6FF0023237772
:103C480023681A6912F0100F12D0DA6812F0100FF8
:103C58000ED06FF010021A61082323772368DB69FE
:103C680013F4407F46D02046FFF79EFF00232377BA
:103C780023681A6912F0010F03D0DA6812F0010FF5
:103C88003FD123681A6912F0800F03D0DA6812F066
:103C9800800F3DD123681A6912F4807F03D0DA6857
:103CA80012F0800F3BD123681A6912F0400F03D03D
:103CB800DA6812F0400F39D123681A6912F0200F20
:103CC80003D0DA6812F0200F37D110BDFFF76BFF71
:103CD8002046FFF76AFF81E72046FFF764FF20468A
:103CE800FFF763FF92E72046FFF75DFF2046FFF7E7
:103CF8005CFFA3E72046FFF756FF2046FFF755FF76
:103D0800B4E76FF001021A61204600F071FFB8E7CE
:103D18006FF080021A61204600F0ABFABAE76FF440
:103D280080721A61204600F0A5FABCE76FF04002E5
:103D38001A612046FFF73AFFBEE76FF020021A61CA
:103D4800204600F095FAC0E770B40368374DA842E2
:103D580014BF00250125B0F1804F14BF2A4645F055
:103D68000102AAB9324CA04214BF00240124314EEA
:103D7800B0420DD064B904F1804404F58234A04205
:103D880014BF0024012406F50066B04200D01CB11F
:103D980023F070034C68234312BB254A904214BF9A
:103DA80000220122234CA0421AD0CAB902F1804253
:103DB80002F58232904214BF0022012204F5006409
:103DC800A0420DD062B91C4A904214BF00220122C1
:103DD80004F59A34A04203D012B9184A904203D18C
:103DE80023F44073CC68234323F080034A691343C8
:103DF80003608A68C2620A688262114B984214BFE3
:103E08002B4645F001035BB90B4B984214BF0023C6
:103E180001230C4A904203D013B9084B984201D1B0
:103E28000B6903630123436170BC704700000140C4
:103E380000080040000400400044014000480140E0
:103E4800000401400040014058B310B5044690F802
:103E58003D300BB3022384F83D30211D2068FFF765
:103E680073FF012384F8483084F83E3084F83F30EB
:103E780084F8403084F8413084F8423084F8433084
:103E880084F8443084F8453084F8463084F8473064
:103E980084F83D30002010BD80F83C3001F0B2F9C4
:103EA800D8E70120704758B310B5044690F83D3064
:103EB8000BB3022384F83D30211D2068FFF744FF2F
:103EC800012384F8483084F83E3084F83F3084F881
:103ED800403084F8413084F8423084F8433084F824
:103EE800443084F8453084F8463084F8473084F804
:103EF8003D30002010BD80F83C30FFF753FED8E776
:103F08000120704770B4036A23F010030362036A48
:103F1800446885691A4A2A400E6842EA062623F050
:103F280020038A6843EA0213164A174DA84218BFAD
:103F380090420CBF0122002206D123F08003CD68F5
:103F480043EA051323F040035AB9104A904214BFBC
:103F5800002201220E4DA84203D012B90D4A904208
:103F680007D124F440644A6944EA82048A6944EA2D
:103F78008204446086614A688263036270BC704749
:103F8800FF8CFFFE00000140000401400044014096
:103F9800004001400048014038B590F83C30012B02
:103FA80000F08C800D460446012380F83C30142A2A
:103FB8001ED8DFE802F00B1D1D1D211D1D1D351D1E
:103FC8001D1D481D1D1D5C1D1D1D6F000068FFF790
:103FD80031FC2268936943F008039361226893696E
:103FE80023F0040393612268936929690B43936161
:103FF800002084F83C0038BD0068FFF783FF226882
:10400800936943F4006393612268936923F480639E
:10401800936122689369296943EA01239361E7E779
:104028000068FFF759FC2268D36943F00803D3619D
:104038002268D36923F00403D3612268D36929690C
:104048000B43D361D4E70068FFF78EFC2268D3697D
:1040580043F40063D3612268D36923F48063D36196
:104068002268D369296943EA0123D361C0E700685C
:10407800FFF7B2FC2268536D43F0080353652268CA
:10408800536D23F0040353652268536D29690B436C
:104098005365ADE70068FFF7D7FC2268536D43F41A
:1040A800006353652268536D23F480635365226867
:1040B800536D296943EA0123536599E7022038BD06
:1040C80010B4846824F47F4442EA032319430C4360
:1040D80084605DF8044B704790F83C30012B74D035
:1040E80010B50446012380F83C30022380F83D30A7
:1040F80002689068364B034093600B68602B50D081
:104108001DD9B3F1101F2ED035D8B3F5005F3CD0C0
:10411800B3F5801F27D0702B0AD1CB684A6889680D
:104128002068FFF7CDFF2268936843F07703936018
:10413800012384F83D30002084F83C0010BD202B7A
:1041480011D00DD9402B36D0502B11D1CA684968EF
:104158002068FFF7B1FC50212068FFF7D5FCE7E79E
:104168000BB1102BE4D119462068FFF7CDFCDFE72F
:10417800302BDDD1F7E7174A9342F4D0103293423F
:10418800F1D0203A9342D3D1EDE7CB684A688968E9
:104198002068FFF795FF2268936843F48043936093
:1041A800C6E7CA6849682068FFF799FC602120685B
:1041B800FFF7AAFCBCE7CA6849682068FFF77CFCDF
:1041C80040212068FFF7A0FCB2E70220704700BF3B
:1041D8008800CEFF3000100090F83C30012B41D011
:1041E80070B4012380F83C30022380F83D30026827
:1041F800536894681C4D1D4EAA4218BFB24203D1A1
:1042080023F470034D682B4323F070030D682B4390
:1042180053600368154AB3F1804F18BF934213D017
:10422800A2F57C4293420FD002F5806293420BD0F4
:1042380002F58062934207D002F57842934203D098
:10424800A2F56C42934204D124F080048A68144396
:104258009C60012380F83D30002380F83C301846EC
:1042680070BC704702207047000401400000014004
:10427800704770477047000000B58BB00023079364
:10428800089309930093019302930393049305936E
:1042980006932048204A02604FF4802242608360DF
:1042A800C3600422026103750122427582610377AB
:1042B80043628362C3620363436380F83830FCF768
:1042C80043FCE8B90AA9002341F80C3D1148FCF762
:1042D80091FDC0B9114B009306230193002302936B
:1042E80040F2FF7203920422049205938DF819306C
:1042F80069460848FCF778F840B90BB05DF804FB4C
:1043080000F032FDDEE700F02FFDE3E700F02CFDC2
:10431800F3E700BF70010024002002400400600899
:1043280000B589B000230193029303930493059386
:10433800069307931A481B4A02604FF48022426092
:104348008360C360042202610375437501228261A0
:10435800037743628362C3620363436380F8383040
:10436800FCF7F2FBB0B9104B01930623029300232C
:10437800039340F2FF7204920422059206938DF88B
:104388001D300DEB02010648FCF72EF828B909B0DC
:104398005DF804FB00F0E8FCE5E700F0E5FCF6E773
:1043A800D4010024006002580200300400B58BB02C
:1043B8000023059306930793089309930368254AF6
:1043C800934205D0244A934225D00BB05DF804FBF4
:1043D800224BD3F8D82042F02002C3F8D820D3F8D3
:1043E800D82002F020020192019AD3F8E02042F08E
:1043F8002002C3F8E020D3F8E03003F02003029352
:10440800029B4FF4006305930323069305A9144800
:10441800FCF7DAFED9E7114BD3F8E02042F08072BE
:10442800C3F8E020D3F8E02002F080720392039AE8
:10443800D3F8E02042F00402C3F8E020D3F8E030DB
:1044480003F004030493049B4FF000610846FBF754
:10445800C1FFBAE700200240006002580044025839
:104468000014025800B58BB02422002101A800F0E6
:10447800BBFF1248124B0360FCF7E6FDA8B9002207
:1044880001920A230293039201230493059201A93E
:104498000A48FCF7EBFD58B9102201A90748FCF7B8
:1044A800E5FD40B90BB05DF804FB00F05DFCE6E704
:1044B80000F05AFCF0E700F057FCF3E76003002433
:1044C8000074004000B589B000230393049305935A
:1044D800069307930268144B9A4202D009B05DF81C
:1044E80004FB124BD3F8E82042F00052C3F8E8204E
:1044F800D3F8E82002F000520192019AD3F8E020A4
:1045080042F00102C3F8E020D3F8E03003F00103E1
:104518000293029B302303930323049303A90448C3
:10452800FCF752FEDAE700BF00740040004402586E
:10453800000002582DE9F0478EB0002409940A942F
:104548000B940C940D94734BD3F8E02042F01002B6
:10455800C3F8E020D3F8E02002F010020192019A9B
:10456800D3F8E02042F00402C3F8E020D3F8E020BA
:1045780002F004020292029AD3F8E02042F02002EC
:10458800C3F8E020D3F8E02002F020020392039A57
:10459800D3F8E02042F08002C3F8E020D3F8E0200E
:1045A80002F080020492049AD3F8E02042F001025B
:1045B800C3F8E020D3F8E02002F001020592059A42
:1045C800D3F8E02042F00202C3F8E020D3F8E0205C
:1045D80002F002020692069AD3F8E02042F0400266
:1045E800C3F8E020D3F8E02002F040020792079ACF
:1045F800D3F8E02042F00802C3F8E020D3F8E03016
:1046080003F008030893089B434E224602213046D4
:10461800FCF7D2FEDFF814A1224601215046FCF730
:10462800CBFEDFF80C9101224FF480614846FCF77D
:10463800C3FE012210213046FCF7BEFE4AF6FF33C6
:10464800099303250A950B9409A94846FCF7BCFD74
:104658004FF6F77309930A950B9409A92F48FCF7AD
:10466800B3FD4FF2FF7309930A950B9409A92C48DF
:10467800FCF7AAFD49F6CE7309930A950B9409A98C
:104688002848FCF7A1FD4FF6C57309930A950B94CA
:1046980009A93046FCF798FD4FF00208CDF82480B0
:1046A80001270A97CDF82C800C9509A93046FCF70C
:1046B8008BFD09970A970B940C9509A95046FCF7AE
:1046C80083FD4FF6FE7309930A950B9409A950468A
:1046D800FCF77AFD4FF4806309930A970B940C94C6
:1046E80009A94846FCF770FD4FF6FF7309930A9530
:1046F8000B9409A90C48FCF767FD102309930A9746
:104708000B94CDF8308009A93046FCF75DFD0EB05A
:10471800BDE8F08700440258000402580008025817
:104728000014025800000258000C025800180258E1
:104738000010025800B17047B0EE600AFBE70000B5
:10474800F0B424A3D3E90023C0E9002300261C4FBA
:10475800C0E9026700220023C0E90423C0E9062358
:104768000024184DC0E908450024174DC0E90A4542
:10477800C0E90C23012181630024144DC0E91045D0
:10478800C0E91423C0E91823C0E91A23C0E91C238F
:10479800C0E91623C0E9202300240D4DC0E91E45B9
:1047A800C0F88810C0E92C23C0E92823C0E92A23CF
:1047B800C0E91223C0E92467C0E92645F0BC704768
:1047C8000000F03F00000840000008C0000024403E
:1047D8000000F0BFF168E388B5F8D43E000000009F
:1047E80038B52DED028B012202FA01F507EE905A39
:1047F800F8EEE76AB7EEE65AB7EE007B35EE475BB0
:104808009FED397B87EE054B37EE447BB7EEC77BD0
:10481800F7EE007A76EEE76AC7EE268A364B1A601C
:1048280083ED010AC3ED020A344CDC6083ED051AFE
:104838009861D961D3ED046ADFED317A86EEA77A03
:10484800B7EEC77A9FED2A5B27EE057BB7EEC77BED
:1048580000245C621C629FED2B8A83ED048A8240EF
:1048680007EE902AF8EEE77AC1EE276AC3ED0A6AE6
:10487800254ADA6280EEA66AB7EEC66AB8FE466BCB
:10488800BDEEC66B83ED106ADFED206A36EEC77A9F
:1048980067EE877AB7EEE77A87EE056BB6EE007BB0
:1048A80026EE077BB8FE477BBDEEC77B83ED117A0A
:1048B80083ED0C8A83ED0D8A0EE0154B43F82440F6
:1048C800B0EE480A00F098FD124B03EB840383ED29
:1048D800000A38EE288A01346B1E9C42EDDDBDECDF
:1048E800028B38BDAFF300807A008BFCFA211940A7
:1048F8007A008BFCFA210940FC0200240000C8421F
:10490800000034430000000000002041F166DF3F52
:10491800D4130024C0030024BDEEC07A17EE103A69
:1049280090ED007AB8EEC77AB4EEC70AF1EE10FA45
:1049380040D410B4F0EE407A5A1C01EB820494ED96
:10494800007A01EB830494ED000A37EE407A50F8C0
:10495800222050F82330D21A06EE902AF8EEE66AA2
:1049680087EE266A07EE103AB8EEC77A37EEC77AAE
:1049780026EE077A30EE070A9FED107AF4EEC77A32
:10498800F1EE10FA13DB91ED007A01F6FC7191ED6E
:10499800000A37EE407AD0F8FC3F06EE903AF8EE7F
:1049A800E66A77EEE67A67EE277A30EE270A5DF850
:1049B800044B70479FED020A704700BF00C07F4458
:1049C8000000000070B52DED028B32490B6A0A6CAD
:1049D80013440B62D1ED037A91ED047AF4EE477A31
:1049E800F1EE10FA37D0486A0244486C02444A6231
:1049F800C1ED047A27494A6A8869012181404C1E21
:104A0800A24203DD521A0132224D6A62A34203DD3B
:104A18005B1A01331F490B6207EE902AF8EEE77A1A
:104A28001C49CA69801A0122824007EE102AB8EE92
:104A3800C77A87EE878A07EE903AF8EEE77A87EE2C
:104A4800870A0B68012B0BD0124B00221A635A639A
:104A5800BDEC028B70BD0F49486A02444A62C9E73F
:104A68000D4E0E4D31462846FFF756FF094CD4ED42
:104A7800017A20EE270A84ED0C0A31462846B0EE6A
:104A8800480AFFF749FFF7EE007A30EE270A84ED6F
:104A98000D0ADDE7FC020024C0030024D41300241F
:104AA80010B50446B7EEC00BF7EEC10B0846FFF78A
:104AB80041FEB7EEC00A94ED2C7B37EE400B94ED27
:104AC8001E7B20EE070B84ED180BD4F88830002BE2
:104AD80040DD94ED206B94ED247B00EE076B94EDA4
:104AE800265B94ED1A7B05EE076B94ED285B94ED3D
:104AF8001C7B05EE076B94ED2A5B94ED167B05EEA7
:104B0800076B94ED124B94ED007BB7EE005B04EE5F
:104B1800075B86EE057B84ED207B94ED086BB4EE95
:104B2800C67BF1EE10FA06DC94ED0A6BB4EEC67B98
:104B3800F1EE10FA15D536EE477B84ED167BD4E9F5
:104B48001A23C4E91C23D4E91823C4E91A2384EDE1
:104B58002E6B10BD9FED047B84ED187B84ED1A7BD2
:104B6800D9E7B0EE476BE6E7000000000000000060
:104B780008B5012210210648FCF71EFC054B1A68EF
:104B880042F001021A601A6842F400721A6008BD05
:104B980000040258003001404FF48012064B9A611D
:104BA800064B1B681880064B5B6913F4805FFAD0CC
:104BB8001022014B9A61704700040258100000242B
:104BC80000300140084B1A6842F004021A609A68E3
:104BD80042F004029A60044B1B6813F0040FFAD0E9
:104BE800014B186C704700BF002002400000000015
:104BF8002DE9F04701214648FCF7E4FB454C636882
:104C0800454F3B60DFF854A1BAF80000FFF7C4FF36
:104C1800424D434E33682B606368DFF84481C8F81F
:104C280000304048FFF7CEFF3F4B18606368DFF85D
:104C38003491C9F8003007EE900AB8EE670AB7EE6B
:104C4800C00A9FED2F7B20EE070B384B83ED000B3E
:104C5800374B93ED001B374B1978374B1868FFF724
:104C68001FFFFFF7AFFE354BD3ED0D7A9FED347A7A
:104C780067EE877AFCEEE77A17EE903AAAF80030EA
:104C88006368304A1360D9F800209B1A06EE103A80
:104C9800B8EE466B9FED1C4B26EE046B2A4B83ED5A
:104CA800006BD8F80030D21A05EE102AB8EE455B32
:104CB80025EE045B254A82ED005B3A689B1A07EEF5
:104CC800103AB8EE477B27EE047B214B83ED007B3F
:104CD80036EE056B37EE067B1E4B83ED007B636873
:104CE80033602A689B1A07EE103AB8EE477B27EE26
:104CF800047B194B83ED007BBDE8F087AFF30080A0
:104D08006666666666660A3F7B14AE47E17A643F6C
:104D180000180258001000E0680000246000002419
:104D28006400002470010024780000248800002416
:104D380048000024080000240C000024FC02002481
:104D480000CCCC4650000024580000244000002429
:104D580070000024B803002480000024A403002469
:104D68006C0000243C00002472B6FEE700B59DB03C
:104D78004C22002109A800F037FB2022002101A8BD
:104D880000F032FB0220FCF727FB00230093284B9E
:104D9800DA6A22F00102DA62DB6A03F001030093A7
:104DA800244B9A6942F440429A619B6903F4404358
:104DB8000093009B1F4B9B6913F4005FFAD01E4AB7
:104DC800936A23F0030343F00203936201220992DA
:104DD8004FF480330A93022312931393149264229C
:104DE80015921693179318930C23199300231A936B
:104DF8001B9309A8FCF71AFBB0B93F2301930323BF
:104E080002930023039308230493402305930693F6
:104E18004FF4806207920893022101A8FCF722FF51
:104E280020B91DB05DF804FBFFF79EFFFFF79CFF5C
:104E380000040058004802580044025800B5B1B0B8
:104E4800BC22002101A800F0CFFA114B01930123E5
:104E58000A9319220B920C9302230D9303230E93AA
:104E68004FF440630F934FF4005318934FF40033FB
:104E780019934FF4803329934FF400432F9301A8DB
:104E8800FDF766F910B931B05DF804FBFFF76CFF68
:104E9800003008400000000008B5FBF741FAFFF7B2
:104EA80065FFFFF7CBFFFFF745FBFFF7DBFAFFF7DF
:104EB800E3F9FFF735FA00F0F1F900F04BF800F0EC
:104EC80077F81B4AD36843F08073D360194A136894
:104ED80043F00103136040F2E733174A1360174C9D
:104EE800226800219162D362E360154D0EA3D3E9D5
:104EF8000023C5E90023134B1868FFF721FC95ED43
:104F0800001B0A211020B7EEC11BDFED0F0A9FED31
:104F18000F0AFFF765FC0E48FBF7F2FCFFF728FEC7
:104F28002046FEF7FBFDFEE700000000006A08418E
:104F3800F0ED00E0001000E0D0130024E824002485
:104F4800C01300240C00002400007A44CDCC4C3D52
:104F58007001002408B51448144B03604FF4800313
:104F680043604FF4003383600F23C3600023036161
:104F780043614FF0806282614FF08052C2610362E8
:104F880043628362C36243638363C36303644364AA
:104F98008364C364036543658365FEF79BFB00B9BF
:104FA80008BDFFF7E1FEFBE7602400240030014064
:104FB80008B51548154B03604FF4800343604FF460
:104FC800003383600323C3604FF000730361002341
:104FD80043614FF080628261C3610362436283620E
:104FE800C3624FF0804242638363C36303644364D4
:104FF8008364C364036543658365FEF76BFB00B98F
:1050080008BDFFF7B1FEFBE7D823002400340140B8
:1050180000B58BB000230593069307930893099373
:1050280003682B4A934205D02A4A934228D00BB0F2
:105038005DF804FB284BD3F8F02042F48052C3F803
:10504800F020D3F8F02002F480520192019AD3F8AC
:10505800E02042F00202C3F8E020D3F8E03003F089
:1050680002030293029B282305930223069303233A
:1050780008930523099305A91848FCF7A5F8D6E76E
:10508800154BD3F8F02042F40052C3F8F020D3F8BF
:10509800F02002F400520392039AD3F8E02042F081
:1050A8001002C3F8E020D3F8E03003F010030493B3
:1050B800049B4FF4A043059302230693032308930C
:1050C8000523099305A90648FCF77EF8AFE700BF5A
:1050D80000300140003401400044025800040258E6
:1050E8000010025882B0074BD3F8F42042F00202B5
:1050F800C3F8F420D3F8F43003F002030193019BC2
:1051080002B0704700440258FEE7FEE7FEE7FEE7FC
:10511800FEE770477047704708B5FBF72FF908BDE1
:1051280008B50248FEF743FD08BD00BFE824002487
:10513800294AD2F8883043F47003C2F88830274BE4
:105148001B6803F00F03062B06D8244A136823F0C4
:105158000F0343F007031360214B1A6842F0010262
:105168001A6000221A6119681E4A0A401A601B4B0D
:105178001B6803F00F03072B06D9184A136823F09E
:105188000F0343F007031360154B00229A61DA619D
:105198001A62154999621549D962154919635A6302
:1051A8009963DA6319645A64196821F480211960D3
:1051B8001A66104B1A68104B1340B3F1005F02D205
:1051C80001220E4B1A6043F2D2020D4B1A604FF0C7
:1051D8000062014B9A60704700ED00E00020005229
:1051E800004402587FEDF6EA000202020000FF01C7
:1051F800800201010010005C0000FFFF08810051DF
:10520800004000520368B3F1804F00D0704700B5EA
:1052180083B00C4BD3F8E82042F00102C3F8E82031
:10522800D3F8E83003F001030193019B00221146F3
:105238001C20FBF7B5FE1C20FBF7E2FE03B05DF86F
:1052480004FB00BF0044025800B587B00023019357
:1052580002930393049305930368B3F1804F02D03C
:1052680007B05DF804FB0B4BD3F8E02042F00102D5
:10527800C3F8E020D3F8E03003F001030093009B6B
:105288000123019302220292059301A90248FBF728
:105298009BFFE5E7004402580000025800B58FB0B4
:1052A80000230A930B930C930D9307930893099388
:1052B8000093019302930393049305930693224862
:1052C8004FF080420260436083604FF0FF32C2605B
:1052D80003618361FEF7B8FD38BB0EA94FF4805314
:1052E80041F8103D1848FEF7F7FE08BB1648FEF7D0
:1052F800DAFD00BB202307930023099307A912486E
:10530800FEF76AFFD0B960230093022301930022BD
:105318000292049269460C48FEF73EFE88B90A4894
:10532800FFF792FF0FB05DF804FBFFF71DFDD4E710
:10533800FFF71AFDDAE7FFF717FDDBE7FFF714FDC4
:10534800E1E7FFF711FDEAE7E8240024DFF834D0AD
:10535800FFF7EEFE0C480D490D4A002302E0D45831
:10536800C4500433C4188C42F9D30A4A0A4C0023A7
:1053780001E013600432A242FBD300F011F8FFF7FA
:105388008BFD704700000220000000241C00002450
:10539800506200082000002434250024FEE70000A5
:1053A80070B50D4E0D4CA41BA4100025A54209D1C3
:1053B8000B4E0C4C00F048FDA41BA4100025A54280
:1053C80005D170BD56F8253098470135EEE756F8F7
:1053D800253098470135F2E748620008486200081E
:1053E800486200084C62000802440346934200D118
:1053F800704703F8011BF9E710EE103A07B51D4A8C
:1054080023F00043934205DCDFED1B0A002000F087
:105418001DFC04E0B3F1FF4F04DB30EE400A03B09B
:105428005DF804FB684600F029F800F00300012845
:1054380008D002280DD0B0B90120DDED010A9DED9C
:10544800000AE4E7DDED010A9DED000A00F042F9EB
:10545800E5E70120DDED010A9DED000A00F0F6FB0D
:10546800B1EE400ADBE7DDED010A9DED000A00F030
:1054780031F9F5E7D80F493F00000000F0B510EE0C
:10548800106A864B26F000449C4287B0054605DC2E
:10549800002385ED000A4360002020E0804B9C42F9
:1054A80038DC002E9FED7F7A7F4B24F00F0418DD47
:1054B8009C4270EE477A09BF9FED7C7A9FED7C7A1B
:1054C80077EEC77A9FED7B7A77EEC76A77EEE67A52
:1054D800C0ED006A77EEC77AC0ED017A012007B007
:1054E800F0BD9C4270EE077A09BF9FED707A9FED80
:1054F800707A77EE877A9FED6F7A77EE876A77EE24
:10550800E67AC0ED006A77EE877AC0ED017A4FF04F
:10551800FF30E4E7684B9C4271DC00F0DFFB9FED55
:10552800677AF6EE007AE0EE077AFDEEE77AB8EEF3
:10553800E76A17EE900ADFED5B7AB1EE467AA7EEDE
:10554800270A1F28DFED5A7A66EE277A70EE676A17
:1055580016EE903A1CDC471E594951F8271024F0E2
:10556800FF028A4214D02B6095ED007A30EE470A8C
:10557800002E30EE670A85ED010AB0DAB1EE477AFF
:10558800B1EE400A85ED007A85ED010A4042A6E7B2
:10559800E415C3F3C752A21A082AE4DDDFED437A03
:1055A800F0EE406AE7EE276A30EE660AA7EE270AB1
:1055B800DFED407A96EE270A76EEC05AF0EE407A92
:1055C80015EE903AC3F3C752A41A192C04DCC5EDA2
:1055D800005AB0EE660AC7E7DFED3A5AB0EE660A3F
:1055E800A7EE250A76EEC07AE7EE257A9FED367AA1
:1055F800D6EE077A30EE677A85ED007AB4E7B4F133
:10560800FF4F06DB70EE407AC0ED017AC0ED007AFC
:1056180042E7E215863AA4EBC25307EE903ABDEE94
:10562800E77ADFED2A6AB8EEC77A77EEC77A8DEDAA
:10563800037A67EEA67ABDEEE77AB8EEC77A77EE18
:10564800C77A8DED047A67EEA67AF5EE407AF1EE28
:1056580010FACDED057A1ED1B5EE407AF1EE10FACA
:1056680014BF022301231A4901910221009103A8C2
:10567800294600F08DF8002EBFF631AFD5ED007A3F
:10568800F1EE677AC5ED007AD5ED017AF1EE677A29
:10569800C5ED017A7AE70323E5E700BFD80F493F54
:1056A800E3CB1640800FC93FD00FC93F00443537C0
:1056B8004344353708A3852E800F494384F9223F98
:1056C800785E000800A3852E32318D2400008043C7
:1056D800F85E000810EE103A23F00043B3F1485F7B
:1056E800F7EE006A05DAFDEEC07A17EE902A002A76
:1056F8003BD020EE007A9FED1E6ADFED1E7ADFEDCB
:105708001E5A1E4AA7EE276A934260EE200AE7EE69
:10571800065A9FED1B6AA7EE256ADFED1A5AE7EED7
:10572800065A9FED196AA7EE256AF6EE005A26EE8C
:10573800076A06DCD7EE060AD7EE250A36EEE00A37
:105748007047124A9342DABF03F17F4307EE903A5B
:10575800F5EE027A76EEE76AD7EE060AD7EE257AF4
:1057680077EEE07A36EEE70A7047B0EE660A7047E1
:10577800F6740F314ED747AD7CF293B49999993EA0
:10578800010DD037610BB6BAABAA2A3D0000483FDD
:105798002DE9F04F2DED048BD7B08B46019364991A
:1057A800CB4B029053F821A0019B659E9FEDCC7ACC
:1057B800013BD01E082490FBF4F020EAE070451C61
:1057C800C71AA2EBC5050AEB030E1AAC06EB870C49
:1057D800002272450FDD0DF5847E0024544526DC39
:1057E800019A029FDFEDBE7A22441AA901EB8202D8
:1057F8004FF0000C15E0D7425DBF5CF8221007EEB1
:10580800901AF8EEE77AF0EE477AE4EC017A013282
:10581800DFE7F7EC016A32ED017AE6EE877A0CF100
:10582800010C9C45F5DDEEEC017A0134D6E706AAB9
:1058380002EB8A020492DFEDA78A9FEDA79A06EB96
:1058480080020392574656AA07F1804802EB870266
:1058580008F1FF3812ED140A4FEA880856AA02EB3D
:1058680008004C380022BC1A002C4ADC2846059354
:1058780000F07EFAB0EE408AB4EE000A28EE000A84
:1058880000F034FAF2EE007AA0EE678A002D059B4C
:10589800FDEEC87A17EE909AF8EEE77A38EE678A46
:1058A80044DD781E06AAC5F1080452F8206046FABD
:1058B80004F29144A240B61A06AA42F82060C5F143
:1058C80007021641002E40DD002409F10109204697
:1058D800A74275DC002D05DD012D00F08680022D24
:1058E80000F08D80022E30D1B7EE000A30EE488AE3
:1058F80058B32846059300F03BFA059B38EE408ADA
:1059080023E060EE287A06ACFDEEE77AF8EEE77A57
:10591800A7EEC90ABDEEC00A10EE101A30ED010A52
:1059280044F8221037EE800A01329CE705D17A1E2E
:1059380006A951F822603612C4E7F6EE007AB4EEF2
:10594800E78AF1EE10FA39DA0026B5EE408AF1EE70
:1059580010FA40F08D807C1E20460022504555DA12
:10596800002A64D101246FF0030000FB04F20499BB
:105978008A58002A50D056AA9044019A1AA93A4443
:10598800781CA8F1480801EB82022744B8423FF787
:105998005AAF0399029E51F82010059107EE901A0C
:1059A800F8EEE77A0024E2EC017ADFED4D7A9646CC
:1059B8009C4233DDE8EC017A0130E7E7022683E711
:1059C80006AA52F8242048B92AB106A9C2F580725D
:1059D80041F8242001220134104679E706A9C2F1D2
:1059E800FF0241F824200246F5E77C1E06AA52F879
:1059F800242002F07F0206A941F8242072E77C1EC9
:105A080006AA52F8242002F03F02F4E706A951F84A
:105A1800201001380A43A1E70134A6E7F6EC016A31
:105A28003EED017A0134E6EE877AC1E7013C06AB28
:105A3800083D53F82430002BF8D02846B7EE000A6A
:105A480000F096F9A30042AA04339FED227AD018F9
:105A58002246002A46DA0DF1B80E0022A51A60D4B3
:105A680042A91E4FDFED1E7A01EB8505002050E0AC
:105A78006842B0EE480A00F07BF99FED177AB4EE61
:105A8800C70AF1EE10FA19DBDFED127A60EE277A19
:105A980006AAFDEEE77A7C1CF8EEE77A0835A7EE51
:105AA800C70AFDEEE77ABDEEC00A10EE103A42F8DA
:105AB800273017EE903A42F82430BEE7BDEEC00A10
:105AC80006AA10EE103A3C4642F82730B5E700BF68
