:020000040800F2
:1000000000000220994B0008554900085949000892
:100010005D490008614900086549000800000000CA
:100020000000000000000000000000006949000816
:100030006D4900080000000071490008754900087A
:10004000E94B0008E94B0008E94B0008E94B0008C0
:10005000E94B0008E94B0008E94B0008E94B0008B0
:10006000E94B0008E94B0008E94B0008E94B0008A0
:10007000E94B0008E94B0008E94B0008E94B000890
:10008000E94B0008E94B0008E94B0008E94B000880
:10009000E94B0008E94B0008E94B0008E94B000870
:1000A000E94B0008E94B0008E94B0008E94B000860
:1000B00079490008E94B0008E94B0008E94B0008C2
:1000C000E94B0008E94B0008E94B0008E94B000840
:1000D000E94B0008E94B0008E94B0008E94B000830
:1000E000E94B0008E94B000800000000E94B00085C
:1000F000E94B0008E94B0008E94B0008E94B000810
:10010000E94B0008E94B0008E94B0008E94B0008FF
:10011000E94B0008E94B0008E94B0008E94B0008EF
:10012000E94B0008E94B0008E94B0008E94B0008DF
:10013000E94B0008E94B0008E94B0008E94B0008CF
:1001400000000000000000000000000000000000AF
:10015000E94B0008E94B0008E94B0008E94B0008AF
:10016000E94B0008E94B0008E94B0008E94B00089F
:10017000E94B0008E94B0008E94B000800000000CB
:10018000E94B0008E94B0008E94B0008E94B00087F
:10019000E94B0008E94B0008E94B0008E94B00086F
:1001A000E94B0008E94B0008E94B0008E94B00085F
:1001B000E94B0008E94B0008E94B0008E94B00084F
:1001C000E94B0008E94B0008E94B0008E94B00083F
:1001D000E94B0008E94B0008E94B0008E94B00082F
:1001E000E94B0008E94B0008E94B0008E94B00081F
:1001F000E94B0008E94B0008E94B0008E94B00080F
:10020000E94B0008E94B0008E94B0008E94B0008FE
:10021000E94B0008E94B0008E94B0008E94B0008EE
:10022000E94B0008E94B0008E94B0008000000001A
:10023000E94B0008E94B000800000000E94B00080A
:10024000E94B0008E94B0008E94B0008E94B0008BE
:10025000E94B0008E94B0008E94B0008E94B0008AE
:10026000E94B0008E94B0008E94B0008E94B00089E
:10027000E94B0008E94B0008E94B000800000000CA
:10028000E94B0008E94B0008E94B000800000000BA
:0802900000000000E94B00082A
:1002980010B5054C237833B9044B13B10448AFF3B8
:1002A80000800123237010BD2000002400000000FE
:1002B800444C000808B5034B1BB103490348AFF38E
:1002C800008008BD0000000024000024444C000801
:1002D8000F4B1B780BB90120704710B504464FF43B
:1002E8007A700C4AB0FBF3F31068B0FBF3F000F03F
:1002F80093FD0F2C00D808B1012010BD0022214623
:100308004FF0FF3000F040FD034B00201C6010BD93
:1003180000000024140000240400002438B5032041
:10032800124C00F01DFD124D01F01AFB114B024654
:10033800002099699B69C1F3032103F00F03615CF5
:10034800E35C01F01F010C4C03F01F03CA4022FAC2
:1003580003F322602B60FFF7BBFF10B10124204696
:1003680038BD044604F0E0FA204638BD5C4C00086D
:10037800180000240044025814000024034A044BC7
:1003880011681B780B441360704700BF900000246D
:1003980000000024014B1868704700BF900000243B
:1003A80038B50446FFF7F6FF0546631C02D0044B38
:1003B8001B781C44FFF7EEFF431BA342FAD338BD5A
:1003C80000000024014B1868000C70470010005C06
:1003D800034A536823EA000001435160704700BF95
:1003E80000040058F0B5002283B0019290F8502024
:1003F800012A00F03A81034601201A6883F8500068
:100408009468660700F199800C68C4F31305002D01
:1004180040F09E80C4F3846C00FA0CF04C681F26F0
:10042800D569A7093440284302F1300507F00C07C5
:10043800A640D0610CFA04F4785920EA060020435B
:1004480078519068450700F18180956815F0080596
:1004580057D10C6802F1140607208F684FEAD45C64
:10046800C4F304540CF0040C00FA04FE07FA04F474
:10047800C44F5CF8060020EA0E0020434CF8060042
:10048800386800F07040B0F1805F00F09880D06864
:10049800D66810F0100F486940F00781C6F382064D
:1004A800760000FA06F60F69042F00F0E18002F1E9
:1004B8006004086854F827C000F0F8400CF0004CBD
:1004C80040EA0C00304344F827004F7E0E69012FA4
:1004D80054F826000CBF4FF00047002720F00040DA
:1004E800384344F826000C7E0869012C04D100F03A
:1004F8001F004FF400658540106920F4F040054363
:1005080015619068C40716D4CE68086806F0180705
:100518009D4CD2F8C050FC40C0F31307DFF88CC2E2
:10052800044025EA0705664544EA0504C2F8C040C8
:100538004DD0002815DB002003E05A6D42F0200260
:100548005A65002283F8502003B0F0BD9068D8E7C0
:1005580094FAA4F515B1B5FA85F5A840C4F3846CEE
:100568005CE78A498A4200F0C68001F580718A42B8
:1005780000F0C180864E874DA968B46801F0E07626
:10058800E44304F00104002C00F0C380824CA04234
:1005980000F00E81814CA04200F02D81804CA042D9
:1005A800C9D14902C7D47A498A42C4D1AA6800206D
:1005B80022F0E072324342F48002AA60C1E7D668B2
:1005C8004869C6F38206760000FA06F66BE7002F44
:1005D80071D090FAA0F4002C00F0AF80B4FA84F443
:1005E800013404F01F04092C40F2A78090FAA0F50A
:1005F800002D00F01481B5FA85F50135AD0605F03A
:10060800F84590FAA0F4002C00F007810126B4FA0E
:1006180084F4344404F01F0406FA04F4254390FAE1
:10062800A0F0002800F0F780B0FA80F4013404F05C
:100638001F0404EB4404A4F11E00000540F0007000
:1006480028434FF0070C02F114058E68C70DC0F35C
:10065800045007F004070CFA00FC86407C5924EA91
:100668000C0030437851086863E7022003B0F0BDFE
:10067800106E0D6800F0F840AC06B0EB856F30D016
:10068800506E00F0F840844226D0906E00F0F8409A
:1006980084422BD0D06E00F0F84084427FF431AF12
:1006A800D06E20F00040D0662BE7760806F00806EA
:1006B80000FA06F6F7E6800E441C04F01F06092E21
:1006C8002DD8A506012406EB460005F0F84504FAE6
:1006D80006F600053543B3E7506E20F0004050663B
:1006E800D3E7106E20F000401066C9E7906E20F046
:1006F80000409066CEE72B49244E2B4C0D46896866
:10070800B768A46801F0E0763C43E44304F00104D0
:1007180039E75A6D012042F020025A6511E706EBCD
:1007280046000127A5061E3807FA06F605F0F84523
:100738000005354340F0007082E790FAA0F5002DDF
:1007480075D0B5FA85F50135AD0605F0F84590FA8E
:10075800A0F4002C69D00126B4FA84F4344404F0DF
:100768001F0406FA04F4254390FAA0F0002859D093
:10077800B0FA80F4013404F01F0404EB44042005AB
:100788005EE700BF0010005CFFFF0F000020024082
:100798000060025800630258000084CB000052C772
:1007A8000000B8CF00230240002102400000FF47AC
:1007B80008023FF5C0AE1F498A427FF4BCAE1E4A0C
:1007C8001E481268A968920921F0E071A0FB020294
:1007D8003143920941F400010132A96052000192AB
:1007E800019A002A3FF4A7AE019A013A0192019AB0
:1007F800002AF9D19FE611F080707FF49CAE0D4974
:100808008A427FF498AEAA6822F0E072324342F03E
:100818008072AA6095E60A4812E70224FEE64FF0C5
:100828008065EEE64FF440100AE702249BE74FF09C
:1008380080658CE70060025814000024632D3E0593
:10084800000050FE03689A68D10701D50020704760
:100858009968214A114270B5044608D0636D012099
:1008680043F010036365A36D0343A36570BD9968E6
:100878001A4A0A4042F001029A60FFF78BFD23688A
:10088800174A054693421FD002F5807293421BD047
:10089800144A92681A68D60714D4104E9A68D0077A
:1008A80004D49A68324042F001029A60FFF772FD60
:1008B800431B022B236802D91A68D107CED51A68C0
:1008C800D207EBD5002070BD074A9268D206E1D066
:1008D800064A9342DED1F5E73F000080C0FFFF7F64
:1008E8000020024000630258002302400021024019
:1008F80038B55A4A04460368934229D002F58072F3
:10090800934225D0564B9B6813F4403F14BF0123F4
:10091800002333B301F0EEF963680546B3F5003FF1
:1009280000F08B80B3F5403F6FD0B3F5803F00F007
:100938008480FFF747FD41F2030398424ED8494BA4
:100948009D422DD92268936843F48073936038BD23
:10095800454B9B6813F4403F14BF01230023002B31
:10096800D8D14FF4002002F057FA63680546B3F572
:10097800101F6CD008D8B3F5E01F50D016D9B3F5C6
:10098800001FD6D14509D4E7B3F5201F45D0B3F5EC
:10099800301FCED1FFF716FD41F20303984240D82D
:1009A8002268936823F48073936038BDB3F5801F81
:1009B80006D00AD9B3F5A01F02D0B3F5C01FB8D12D
:1009C8009B0C5B00B5FBF3F5B3E7B3F5002FF7D04D
:1009D80023F40022B2F5802FF2D0AAE7234B9D42E0
:1009E80005D82268936823F44073936038BD204B80
:1009F8009D421AD91F4B22689D42936829D823F437
:100A0800407343F40073936038BD8508FFF7DAFC40
:100A180041F203039842E1D891E7C50989E705093E
:100A280087E7124BB3EB152FDBD22268936823F4C8
:100A3800407343F48073936038BD1B0CB5FBF3F52A
:100A4800FFF7C0FC41F203039842C7D877E785094E
:100A58006FE743F44073936038BD00BF0020024045
:100A680000630258002D31010023024021BCBE0062
:100A780041787D0181F0FA0270B5002382B00193BC
:100A8800002800F0D080456D0446002D00F0BA80A3
:100A9800226893689D0003D59168714B0B40936061
:100AA8009368D80016D46F4B6F4D1B6890689B09EC
:100AB8006E49A5FB035301409B0941F08051013366
:100AC80091600193019B2BB1019B013B0193019B19
:100AD800002BF9D19368D90024D4636D012543F024
:100AE80010036365A36D2B43A365936813F0040F8C
:100AF800636D1DD1DB061BD4636D23F4817343F052
:100B0800020363659368DE0728D4594B9A4217D0CD
:100B180003F580739A4213D0564B9B68D9071DD4AE
:100B2800554A15E09368002513F0040F636DE1D072
:100B3800636D012543F010032846636502B070BD5C
:100B48004B4A4E4B92689B681343D80706D44C4ACD
:100B58009368616823F47C130B439360FFF732FCBE
:100B680041F20303A1689842237F51D8667D1A0495
:100B7800206B42EA463202430A43012B03D1236A1F
:100B8800013B42EA4342636A23B103F47873A16AE2
:100B98000B431A4323683B49D86801400A43DA608B
:100BA8009A6812F0040F9A681CD112071AD4D968EF
:100BB800354A207D0A40E16A42EA80320A43DA6017
:100BC80094F83820012A3AD01A6922F001021A61F1
:100BD8001A692046616B22F070420A431A61FFF7D6
:100BE80087FE2368E268012A21D01A6B22F00F02DF
:100BF8001A63636D284623F0030343F0010363651A
:100C080002B070BD03F058F9A56584F850503FE76D
:100C18001029ABD1607D1A04216B42EA40320A43A5
:100C280042F01C02A9E70125284602B070BD196BE5
:100C3800A26921F00F01013A0A431A63D9E7D4E9FE
:100C48000F12666C0139A06C32431E6942EA0142F8
:100C58000E49024331400A4342F001021A61B7E7E4
:100C6800C0FFFF5F14000024632D3E05C0FFFF6F27
:100C78000020024000600258006302580021024030
:100C88000023024003C0F0FFFCBFFFFF1EF800FC7A
:100C9800F0B490F850209AB00E68012A4DD003465F
:100CA8002B4C002201201D681692A54283F85000A3
:100CB800179208D0596D83F8502041F020015965EA
:100CC8001AB0F0BC7047234CA26852070BD5AA682B
:100CD8005A6D012042F020025A65002283F8502004
:100CE8001AB0F0BC7047A86810F00400F0D1C6B183
:100CF800DFF868C04F68DCF8082022F440423A4325
:100D0800CCF80820AD68A2682A43D40713D48A68AF
:100D1800DCF808401049164321400E43CCF808601F
:100D2800DBE70E498A6822F440428A60A868A26814
:100D38000243D00705D50020CFE702201AB0F0BC47
:100D480070478C683046044A22408A60C5E700BF75
:100D58000020024000210240E0F0FFFF0023024093
:100D680007490002074BCA6800F4E06010B44FF668
:100D7800FF0422405DF8044B10430343CB607047E7
:100D880000ED00E00000FA05194BDB68C3F302230D
:100D980030B4C3F107051C1D042D28BF0425062CFB
:100DA80019D9033B4FF0FF349C4022EA04024FF06C
:100DB800FF34002804FA05F421EA040101FA03F1DA
:100DC80041EA02010ADB09010A4BC9B2034483F86C
:100DD800001330BC704700221346E8E700F00F000C
:100DE8000901054BC9B20344197630BC704700BFEE
:100DF80000ED00E000E100E0FCEC00E0002807DB8B
:100E0800012300F01F01034A40098B4042F82030BB
:100E1800704700BF00E100E00138B0F1807F0DD2DB
:100E2800074B0022072130B4F025064C58601046C5
:100E380084F823509A60196030BC704701207047CD
:100E480010E000E000ED00E088B110B50379044639
:100E580003F0FF023BB10023022101222171184651
:100E68002361227110BD427103F0B8F8F3E7012045
:100E7800704700BF2DE9F04143790F68012B00F05E
:100E88009580154602230122042F06460C4642711E
:100E980003714AD005F0100201682369012B08D1BB
:100EA8001F25886B63699540934020EA050003433A
:100EB8008B630720E568CB6B9040012D23EA000087
:100EC8002ED0022DA5682ED0B5FA85F35B092B43E9
:100ED8004FF48048656840F6FE743B4308FA02F810
:100EE80004FA02F795409340C0244FF0000C4FF0ED
:100EF800010E034394406046CB630B6823EA080362
:100F08000B600B6823EA07032B430B600A6822EA8D
:100F180004020A6086F804E086F805C0BDE8F0819E
:100F2800A5680023D3E70123D1E7FFF733FA074683
:100F3800C5B9DFF8908004E0FFF72CFAC31B012B3A
:100F480037D833685B6B13EA080FF5D10120FFF738
:100F580027FA3168A3690B640EE0FFF71BFAC31B7D
:100F6800012B26D833685B6B002BF6DB0120FFF7DB
:100F780017FA3168A3694B6405F0100240F2FF3C90
:100F8800886CFF23E7690CFA02FC03FA02F5236A6E
:100F9800974020EA0C0038432768886403FA02F077
:100FA800CB6C23EA05030343CB6476E70220BDE854
:100FB800F0813369032243F008031046336132712C
:100FC800ACE700BF008000202DE9F04F0E6885B027
:100FD800002E00F0D3800023DFF820A2DFF820B233
:100FE800B14620E0DA0803F0070C04F003044FF0E0
:100FF8000F0E00EB82020E694FEA8C0C04FA07F719
:10100800146A0EFA0CFE06FA0CF624EA0E0C46EAEE
:101018000C061662026815403D430560013339FA33
:1010280003F200F0AB8001229A4012EA0908F5D0D9
:101038004C685F0024F0100C0CF1FF35012D4FF0C7
:10104800030500F29E80C4F30016D0F808E0BD4006
:101058009E402EEA050EED430196CE68BE4046EA54
:101068000E0E019EC0F808E0D0F804E02EEA020255
:1010780016434660C668BCF1020F8A6806EA050690
:1010880002FA07F242EA0602C260ABD0066804F030
:1010980003022E4002FA07F73E430660E600BDD57C
:1010A800DAF8F46023F0030703F003020F2546F093
:1010B800020607F1B0479200CAF8F46007F58067A6
:1010C800DAF8F46005FA02FC06F002060396424ECE
:1010D800039DB042BD6825EA0C0520D006F5806660
:1010E800B04256D03D4EB04258D03D4EB0424BD0A3
:1010F8003C4EB0425CD03C4EB0425ED03B4EB0421B
:1011080051D03B4EB0425DD03A4EB0425FD03A4EDD
:10111800B0420CBF09260A2606FA02F21543BD6042
:101128006FEA0806DBF80020E50303F1010354BF6A
:10113800324048EA0202CBF80020A203DBF8045050
:101148004FF0B04254BF354048EA0505E702CBF8F6
:10115800045015684FF0B04254BF354048EA0505C1
:10116800A4024FF0B0441560526854BF324048EAB8
:101178000202626039FA03F27FF455AF05B0BDE8A8
:10118800F08FBD40ED4375E7032606FA02F21543DA
:10119800C5E7012606FA02F21543C0E7022606FA59
:1011A80002F21543BBE7062606FA02F21543B6E734
:1011B800042606FA02F21543B1E7052606FA02F2FA
:1011C8001543ACE7072606FA02F21543A7E70826F7
:1011D80006FA02F21543A2E7000002580008025876
:1011E800000C025800100258001402580018025847
:1011F800001C0258002002580024025800440258DB
:101208008000005802B9090481617047436901EA06
:10121800030221EA030141EA02418161704700BFEC
:1012280038B5114BDA68520706D4DB6803F00703B8
:10123800181A18BF012038BDDA681D4622F00702C7
:101248001043D860FFF7A6F8044605E0FFF7A2F8B8
:10125800001BB0F57A7F04D86B689B04F6D5002094
:1012680038BD012038BD00BF004802583B4B30B4A0
:101278009A6A9C6AD96A14F47C7FC4F305105D6B82
:1012880038D0C5F3CC0501F0010102F0030201FBDF
:1012980005F1012A07EE901AB8EEE77A02D0022A81
:1012A8004ED04AB307EE900ADFED2D6AF8EEE77AE2
:1012B8001B6B86EEA76ADFED2B5AC3F3080306EE15
:1012C800903AB7EE005AF8EEE66A76EE856AE7EEEF
:1012D800256A66EE266A214B1B6BC3F3462301334E
:1012E80007EE903AB8EEE77AC6EE877AFCEEE77A30
:1012F80017EE900A30BC70471A68920627D519680D
:1013080007EE900A184AF7EE004AC1F3C101F8EE59
:10131800E77A1B6BCA409FED135AC3F3080306EE26
:10132800102A06EE903AF8EEC65AF8EEE66A85EE0E
:10133800A76A76EEA46AE7EE056A66EE266ACAE749
:1013480007EE900ADFED096AF8EEE77AB0E707EEF4
:10135800900ADFED076AF8EEE77AA9E70044025839
:101368000024744A000000390090D0030024F44A95
:101378000024744C002800F0F781F8B5036804468F
:10138800D9072ED5B4490A69896A02F03802102AA9
:1013980000F02C81182A00F024816368B3F5803F9F
:1013A80000F06781002B00F07F81B3F5A02FAA4BD6
:1013B8001A6800F0788222F480321A601A6822F4DF
:1013C80080221A60FEF7E6FFA34E054605E0FEF709
:1013D800E1FF401B642800F2658133689F03F6D55E
:1013E8002368990721D59C4A1369926A13F0380338
:1013F80040F0A880984B1B685B0703D5E368002B77
:1014080000F0ED80FEF7DEFF41F20303984200F2A0
:1014180089812269402A00F04E828F494B6823F463
:101428007C3343EA02334B602368D90656D41D0740
:1014380017D56369002B00F0B480874B5A6F1E469E
:1014480042F001025A67FEF7A5FF054605E0FEF7E0
:10145800A1FF401B022800F22581736F9807F6D57B
:1014680023689A0617D5A369002B00F034817A4BBC
:101478001A681E4642F480521A60FEF78BFF054632
:1014880005E0FEF787FF401B022800F20B81336856
:101498009F04F6D52368590700F1B280606AD8B175
:1014A8006D4B1A6902F03802182A00F0CE811A68CA
:1014B80002281D4622F080721A6000F06181FEF752
:1014C80069FF044605E0FEF765FF001B022800F2ED
:1014D800E9802B689B01F6D40020F8BD5E4A1369A9
:1014E800926A03F03803082B72D0182B6CD0E3698A
:1014F800002B00F00381584B1A681E4642F0800208
:101508001A60FEF747FF054605E0FEF743FF401B5C
:10151800022800F2C7803368DB05F6D5FEF752FFD4
:1015280041F20303984200F2E981226A7368202A93
:1015380023F0F8430CBF43F0804343EA82637360AF
:10154800236874E7182B00F00B81E268002A00F08A
:10155800F38041490B680E4623F0190313430B60CF
:10156800FEF718FF054605E0FEF714FF401B0228AA
:1015780000F2988033685F07F6D5FEF723FF41F243
:101588000303984200F2C38122697368402A23F456
:101598007C330CBF43F4003343EA0233736023689F
:1015A80043E72D4B5A6F1E4622F001025A67FEF799
:1015B800F1FE054604E0FEF7EDFE401B022871D857
:1015C800736F9907F7D44BE702F00302012A8ED113
:1015D800214B1B68DA0552D5E369802B4FD00120D7
:1015E800F8BD01F0030102297FF4D7AE1A4A126848
:1015F80092037FF5F6AE6268002A7FF4F2AEEEE75A
:10160800164B1A681E4642F480721A60FEF7C2FE34
:10161800054604E0FEF7BEFE401B642842D8336846
:10162800DA05F7D5A368012B00F07A81002B00F0CA
:101638004B81052B084B1A6F00F0878122F00102BD
:101648001A671A6F22F004021A67FEF7A3FE024E09
:1016580041F28837054608E000440258004802581D
:10166800FEF798FE401BB8421CD8336F9B07F7D58E
:1016780014E7AE4A136843F480331360A2E6FEF71A
:10168800A1FE41F20303984270D8226A202A00F092
:101698005381A6494B6823F0F84343EA82634B60C1
:1016A8002368C4E60320F8BDA04B1A681E4622F43E
:1016B80080321A601A6822F480221A60FEF76AFEE5
:1016C800054604E0FEF766FE401B6428EAD8336846
:1016D8009803F7D484E6954B1A681E4622F4805284
:1016E8001A60FEF757FE054604E0FEF753FE401B5E
:1016F8000228D7D833689804F7D4CBE68B4B1A68FE
:101708001E4622F080021A60FEF744FE054604E0F9
:10171800FEF740FE401B0228C4D83368DF05F7D423
:10172800236884E6814A2169536823F0FE4343EA2B
:1017380001635360236878E67C4B1A681E4622F0E2
:1017480001021A60FEF726FE054604E0FEF722FEB7
:10175800401B0228A6D833685807F7D4236864E6E4
:1017680092077FF4F2AE45E6012070476F4A216A7E
:10177800D36823F07C5343EA0163D360236856E6B9
:10178800FEF708FE064604E0FEF704FE801B02286A
:1017980088D82B689901F7D4AA6A654BA06A1340C8
:1017A800E26A64490343614E43EA0213AB62276B62
:1017B800D4E90D32013F501E013BE26BC7F3080725
:1017C8005B020004013A9BB200F4FE0012060343D8
:1017D80002F0FE423B4313432B63EB6A23F0010301
:1017E800EB626A6BA36C114041EAC3016963EB6A5F
:1017F800226C23F00C031343EB62EB6A626C23F058
:1018080002031343EB62EB6A43F48033EB62EB6A47
:1018180043F40033EB62EB6A43F48023EB62EB6A38
:1018280043F00103EB622B6843F080732B60FEF7F3
:10183800B1FD044605E0FEF7ADFD001B02283FF6AA
:1018480031AF33689A01F6D546E601289A6A1D6BCE
:101858003FF443AE02F00303A16A8B427FF4BFAEAC
:10186800C2F30512E36A9A427FF4B9AE236BC5F35B
:101878000802013B9A427FF4B2AE636BC5F346227D
:10188800013B9A427FF4ABAEA36BC5F30642013B22
:101898009A427FF4A4AEE06BC5F306650138281AB6
:1018A80018BF0120F8BD42F480221A601A6842F479
:1018B80080321A6086E51D4A536823F47C3343F46A
:1018C800003353602368B0E5184B41F288371A6F2C
:1018D8001E4622F001021A671A6F22F004021A67E4
:1018E800FEF758FD054605E0FEF754FD401BB842DB
:1018F8003FF6D8AE336F9807F6D4CFE5F368226A7F
:1019080023F07C5343EA0263F36023688FE573682E
:10191800226923F0FE4343EA02637360236884E587
:10192800024A136F43F0010313678EE6004402581E
:101938000CFCFFFF0700FFFF084A536823F0F84339
:1019480043F080435360236871E542F004021A674C
:101958001A6F42F001021A6777E600BF0044025886
:10196800474A136903F03803102B04D0182B0DD005
:101978001BB14448704744487047136899064AD5D4
:1019880013684248C3F3C103D8407047936A30B420
:10199800946AD16A14F47C7FC4F30510556B38D06F
:1019A800C5F3CC0501F0010103F0030301FB05F1C8
:1019B800012B07EE901AB8EEE77A02D0022B2CD052
:1019C80093B307EE900ADFED326AF8EEE77A136B0D
:1019D80086EEA76ADFED2F5AC3F3080306EE903AA6
:1019E800B7EE005AF8EEE66A76EE856AE7EE256A03
:1019F80066EE266A224B1B6BC3F34623013307EEC0
:101A0800903AB8EEE77AC6EE877AFCEEE77A17EEF8
:101A1800900A30BC70471D48704707EE900ADFED0A
:101A28001E6AF8EEE77AD2E713689B0620D513689A
:101A380007EE900A1549F7EE004AC3F3C100F8EE25
:101A4800E77A136BC1409FED135AC3F3080306EE00
:101A5800101A06EE903AF8EEC65AF8EEE66A85EEE7
:101A6800A76A76EEA46AE7EE056A66EE266AC1E71B
:101A780007EE900ADFED096AF8EEE77AA7E700BFFC
:101A88000044025800093D0000127A000090D0037B
:101A98000024744A000000390024F44A0024744CDD
:101AA800002800F00E818D4A136803F00F038B4263
:101AB8002DE9F04104460D460CD2136823F00F03BC
:101AC8000B431360136803F00F038B4202D001200D
:101AD800BDE8F08123685F070BD5814920698A69D1
:101AE80002F07002904204D98A6922F0700202431F
:101AF8008A611E070BD57A496069CA6902F07002CB
:101B0800904204D9CA6922F070020243CA61D80619
:101B18000BD57349A069CA6902F4E062904204D9FE
:101B2800CA6922F4E0620243CA6199060BD56C497E
:101B3800E0690A6A02F07002904204D90A6A22F047
:101B4800700202430A629A0740F1AD806448E16876
:101B5800826902F00F02914204D9826922F00F02D1
:101B68000A438261D80731D55D4AA168936923F495
:101B780070630B43936161681368022900F0A380C6
:101B8800032900F09A80012900F0A38058079ED508
:101B9800534A41F288381369174623F007030B4369
:101BA8001361FEF7F7FB064605E0FEF7F3FB801B23
:101BB800404500F28C803B69626803F03803B3EB60
:101BC800C20FF2D12368990706D5E16844488269B3
:101BD80002F00F028A426AD840490A6802F00F02EE
:101BE800AA420AD90A6822F00F022A430A600A6840
:101BF80002F00F02AA427FF46AAF5A070BD53849A0
:101C080020698A6902F07002904204D28A6922F03F
:101C1800700202438A611F070BD531496069CA699E
:101C280002F07002904204D2CA6922F070020243A4
:101C3800CA61DE060BD52A49A069CA6902F4E062C6
:101C4800904204D2CA6922F4E0620243CA619D0646
:101C58000BD5234AE169136A03F07003994204D251
:101C6800136A23F070030B431362FFF779FE1C4BD2
:101C780002461C4899699B69C1F303211A4D03F078
:101C88000F031A4C415CC35C01F01F01286803F084
:101C98001F03174DCA4022FA03F32A602360BDE8E8
:101CA800F041FEF715BBDA073FF55EAF94E78269AE
:101CB80022F00F02114381618EE79F013FF568AF63
:101CC80005E7012070479B033FF562AFFFE603205D
:101CD800FEE6DE053FF55CAFF9E600BF00200052E6
:101CE800004402585C4C000804000024180000243A
:101CF80014000024184A38B5136903F03803102B70
:101D08001AD0182B23D0CBB11448134B14499A6915
:101D18009B69C2F30322134C03F00F03124D8A5C34
:101D2800CB5C02F01F0203F01F0320FA02F222FA32
:101D380003F02A60206038BD0C48E6E713689B066C
:101D480008D512680A48C2F3C102D040DDE7FFF7A0
:101D58008DFADAE70648D8E70044025800093D0042
:101D68005C4C0008180000241400002400127A00BB
:101D78000090D0033B4AF8B5936A03F00303032BA2
:101D880069D0136806460F46144623F08063136033
:101D9800FEF700FB054604E0FEF7FCFA431B022BA6
:101DA80057D823681A01F7D4A36A326823F47C331E
:101DB8002D4943EA0233A3627568D6E90232013D30
:101DC800501E013B3269C5F308055B020004013A65
:101DD8009BB200F4FE001206034302F0FE422B43BE
:101DE8001343A363E36A726923F0C0031343E362F6
:101DF800E36AB26923F020031343E362E36A23F042
:101E08001003E362E26BF369114041EAC301E16345
:101E1800E36A43F01003E362E36AF7B1012F0CBFF2
:101E280043F4801343F40013E3620E4B1A681D4613
:101E380042F080621A60FEF7ADFA044604E0FEF74D
:101E4800A9FA001B022804D82B681B01F7D500202B
:101E5800F8BD0320F8BD0120F8BD43F40023E36278
:101E6800E3E700BF004402580700FFFF3B4AF8B50C
:101E7800936A03F00303032B69D0136806460F46E1
:101E8800144623F080531360FEF784FA054604E0F5
:101E9800FEF780FA431B022B57D823689A00F7D421
:101EA800A36A326823F07C732D4943EA0253A36284
:101EB8007568D6E90232013D501E013B3269C5F30F
:101EC80008055B020004013A9BB200F4FE0012060A
:101ED800034302F0FE422B4313432364E36A72690F
:101EE80023F440631343E362E36AB26923F40073A3
:101EF8001343E362E36A23F48073E362626CF36979
:101F0800114041EAC3016164E36A43F48073E36208
:101F1800E36AF7B1012F0CBF43F4000343F0807369
:101F2800E3620E4B1A681D4642F080521A60FEF7B3
:101F380031FA044604E0FEF72DFA001B022804D803
:101F48002B689B00F7D50020F8BD0320F8BD0120C1
:101F5800F8BD43F48003E362E3E700BF004402589E
:101F68000700FFFF2DE9F8430368044613F00066F5
:101F78001CD0426EB2F5001F00F0BA8423D8002AA4
:101F880000F0DC83B2F5801F20D102210430FFF776
:101F9800F1FE0646002E40F09F84626E2368AB482F
:101FA8000026016D21F440110A430265DD0511D5B3
:101FB800626D042A00F21C85DFE812F06F047604D3
:101FC8008604D402D402B2F5401FE8D0DD054FF0F4
:101FD8000106EDD4354698051BD5A26D802A00F080
:101FE800538400F2EC80002A00F0A283402A40F0DB
:101FF800ED800021201DFFF7BDFE23680546002D5A
:1020080040F086839149A06D0A6D22F4E072024384
:102018000A6559051FD5D4F8A420B2F5800F00F041
:102028004A8400F2D680002A00F07C83B2F5001FB3
:1020380040F0D7800021201DFFF79CFE236805464D
:10204800002D40F067838149D4F8A4008A6D22F4FA
:10205800600202438A651A051FD5D4F8A820B2F198
:10206800007F00F03C8400F2BF80002A00F06C83FF
:10207800B2F1807F40F0C0800021201DFFF77AFE7A
:1020880023680546002D40F03F837049D4F8A80026
:102098008A6D22F0E06202438A659F0118D5A26C1E
:1020A800202A00F0928300F2AA803AB1102A40F068
:1020B800A9806649CA6A42F40032CA62002D40F01B
:1020C80066836249A06CCA6C22F030020243CA647B
:1020D800D8041DD5E26DB2F5005F00F0CD8300F2A3
:1020E8009480002A00F01883B2F5805F40F0958054
:1020F8000021201DFFF73EFE23680546002D40F015
:1021080005835249E06D0A6D22F4E04202430A65F4
:1021180099041AD5226EB2F5003F00F098837FD853
:102128004AB1B2F5803F40F083800121201DFFF7BE
:1021380021FE23680546002D40F02B834349206E7D
:102148000A6D22F4E02202430A655A041BD5D4F82A
:10215800AC20B2F1005F00F04A836CD842B1B2F112
:10216800805F70D10121201DFFF704FE236805461A
:10217800002D40F002833549D4F8AC008A6D22F076
:10218800E04202438A651F040DD5E26EB2F1805F1A
:1021980000F04B83B2F1005F00F0F081002A00F0FC
:1021A800F38101263546D8015CD5626C032A00F21A
:1021B8002584DFE812F0530013034D005300C02AB2
:1021C8003FF41DAFB2F5807F3FF419AF01263546C5
:1021D8001FE7B2F5C00F3FF433AFB2F5000F3FF47D
:1021E8002FAF0126354636E7B2F1407F3FF44AAFBC
:1021F800B2F1806F3FF446AF012635464DE7302AED
:102208003FF45CAF0126354662E7B2F5405F3FF424
:1022180075AFB2F5804F3FF471AF0126354677E7C9
:1022280022F48031B1F5802F85D0B2F5403F82D0BD
:102238000126354689E722F08051B1F1804F97D0C9
:10224800B2F1405F94D0012635469CE7004402581D
:102258000221201DFFF78EFD23680546002D00F0A2
:102268008E822E46590200F10882DF0739D5A26F07
:10227800282A00F27481DFE812F03000720172013E
:1022880072017201720172017201580372017201C6
:1022980072017201720172017201290072017201E8
:1022A80072017201720172017201300072017201D1
:1022B80072017201720172017201300072017201C1
:1022C800720172017201720172013000012104F180
:1022D8002400FFF7CBFD23680546002D00F06B8234
:1022E8002E46980716D5626F052A00F28483DFE828
:1022F80012F00D00080306000D000D000D0001216D
:1023080004F12400FFF7B2FD23680546002D00F014
:102318002C822E46590717D5D4F89020052A00F2AA
:102328007083DFE812F00D00F80206000D000D00C2
:102338000D00012104F12400FFF798FD23680546EC
:10234800002D00F009822E469A061DD5D4F88C205F
:10235800B2F1005F00F0718200F221814AB1B2F15E
:10236800805F40F026810021201DFFF703FD2368D0
:102378000546002D40F01382B949D4F88C004A6D07
:1023880022F0E04202434A655F061DD5D4F8982042
:10239800B2F5006F00F03F8200F229814AB1B2F530
:1023A800806F40F02E810021201DFFF7E3FC236899
:1023B8000546002D40F0EF81A949D4F898008A6DB0
:1023C80022F4E05202438A6518061DD5D4F89C20F1
:1023D800B2F5804F00F0158200F2FC804AB1B2F5E8
:1023E800005F40F001810021201DFFF7C3FC236836
:1023F8000546002D40F0D1819949D4F89C008A6D9A
:1024080022F4604202438A6519070BD5D4F880107C
:10241800B1F5805F00F025829148426D22F4405268
:102428000A434265DA060BD5D4F89410B1F5807FDB
:1024380000F0B2828A48826D22F440720A438265B3
:102448001F030ED5D4F8A010B1F5803F00F0F2803C
:10245800B1F5003F00F0F580002900F08B820126DD
:10246800354658030FD5D4F88420B2F5001F00F084
:10247800CB80B2F5401F00F0CE80B2F5801F00F08F
:10248800828201263546D90317D5E26C002A00F06E
:102498005F82B2F5803F40F032810221201DFFF7B4
:1024A80069FC05462368002D40F08D816C49E06C7D
:1024B800CA6C22F480320243CA649A0000F1D280C6
:1024C8009F033FD4301E18BF0120DE0206D56449A1
:1024D800256F0A6D22F000422A430A65DD0007D500
:1024E8005F49D4F8B4500A6922F480422A430A6149
:1024F800990206D55A49A56E0A6D22F080722A43C0
:102508000A655A0009D5564A116921F4004111613A
:102518001169D4F8B85029431161002B06DA5049E3
:10252800256DCA6C22F040522A43CA641B0207D5A3
:102538004B4AD4F88810536D23F440030B4353657A
:10254800BDE8F883E26FB2F5807F00F00A8233D9E4
:1025580022F48071B1F5007F30D00120B5E7012663
:102568003546BEE63546002D40F0CC803C49606DCE
:102578000A6D22F0070202430A652CE50121201D9D
:10258800FFF7F8FB23680546002D40F0E380344947
:10259800E06E0A6D22F0405202430A6503E622F01B
:1025A8008051B1F1804F3FF4E4AEB2F1405F3FF4A7
:1025B800E0AE01263546E7E6002ACED1002DCCD183
:1025C800274D301E696D18BF012021F440710A4360
:1025D8006A657AE722F40051B1F5004F3FF409AF7C
:1025E800B2F5C04F3FF405AF012635460CE722F49B
:1025F8008061B1F5805F3FF4DCAEB2F5406F3FF427
:10260800D8AE01263546DFE6012104F12400FFF7A4
:102618002DFC23680546002D40F0C8801049D4F8E9
:1026280084004A6D22F4401202434A65D9037FF5BB
:1026380044AF2AE7022104F12400FFF717FC2368BE
:102648000546002D40F0AD800549D4F8A0008A6DFC
:1026580022F44032024358038A657FF514AF02E73B
:1026680000440258022104F12400FFF7FFFB23680D
:1026780000283FF425AF012622E7B34B1A68984695
:1026880042F480721A60FDF785FE074605E0FDF703
:1026980081FEC01B642800F25281D8F80030DA05A8
:1026A800F5D5002D40F0A181A84AD4F8B030116FBB
:1026B800594011F4407F0BD0116F106F21F4407115
:1026C80040F480301067106F20F480301067116775
:1026D800B3F5807F00F06B8103F44072B2F5407F60
:1026E80000F0798199490A6922F47C520A61974A73
:1026F800C3F30B03116F0B4313672368B5E501267A
:102708003546DAE62E4666E42E46C6E42E46FFE453
:102718002E467EE42E469EE48C49CA6A42F4003274
:10272800CA62EBE48949CA6A42F40032CA6287E4A1
:102738008649CA6A42F40032CA6260E48348C16AC0
:1027480041F40031C1622AE48049CA6A42F4003285
:10275800CA6297E42E4626E57C49D4F890008A6D33
:1027680022F0070202438A65EEE57849606F4A6DF8
:1027780022F0070202434A65CCE52E4603E5734979
:10278800606CCA6C22F003020243CA646AE52E46F2
:102798009EE42E46D9E42E4616E62E4634E62E460C
:1027A800F2E558032E467FF56EAE5CE6D9032E4659
:1027B8007FF583AE69E66549A06F4A6D22F038025D
:1027C80002434A658DE52E4677E60221201DFFF774
:1027D800D1FA05462368002DD9D172E45B49CA6A4B
:1027E80042F40032CA62002D7FF43BADC7E70121F5
:1027F80004F12400FFF73AFB05462368002DBCD1FD
:10280800B9E4022104F12400FFF730FB05462368F0
:10281800002DC2D1F0E5022104F12400FFF726FBC8
:1028280005462368002DB6D1C6E54849CA6A42F470
:102838000032CA62002D8DD1A9E6022104F12400DC
:10284800FFF714FB05462368002DA8D194E5012164
:1028580004F12400FFF70AFB05462368002D98D1F0
:102868006CE4022104F12400FFF700FBD4F8801087
:1028780000B101262368CFE5002104F12400FFF709
:10288800F5FA2368054639E4002104F12400FFF72E
:10289800EDFA23680546FFF7B2BB2C493546CA6AEC
:1028A80042F40032CA625EE60021201DFFF762FA98
:1028B8002368054657E6002104F12400FFF7D6FAFD
:1028C80023680546FFF7BCBB002104F12400FFF78D
:1028D800CDFA2368054646E62368FFF767BB002163
:1028E80004F12400FFF7C2FA23680546FFF7CABBC4
:1028F80002212430FFF7BAFA0646002E3FF44DAB0A
:10290800EAE70121201DFFF735FA05462368002D67
:102918007FF4FFAC29E70121201DFFF72BFA0546BC
:102928002368002D7FF40FAD16E70121201DFFF766
:1029380021FA05462368002D7FF4D2AC3BE7032635
:102948002368354691E400BF004802580044025805
:102958002D49CA6A42F40032CA62002D7FF433AFAF
:10296800A4E52948C16A41F40031C162002D7FF411
:10297800F4AD25E6201DFFF7FDF905462368002D77
:102988007FF40FAF60E62049CA6A42F40032CA6297
:10299800002D7FF40BAF41E6022104F12400FFF77C
:1029A80065FAD4F8941000B10126236842E5FDF7D2
:1029B800F1FCDFF8548041F28839074604E0FDF75E
:1029C800E9FCC01B4845BAD8D8F870309B07F6D543
:1029D800D4F8B03080E60C480C4A016902EA1312B8
:1029E80021F47C510A43026181E623682E463CE4C7
:1029F8000126FFF7EFBA012635468BE40126354656
:102A080030E4012635469FE400440258CFFFFF001A
:102A18004F4B70B4996A9D6ADC6A15F47C3FC5F324
:102A28000532DE6B5CD0C6F3CC06C4F3001401F0AB
:102A3800030104FB06F4012907EE904AB8EEE77A91
:102A480003D0022975D000294FD007EE902ADFED78
:102A5800416AF8EEE77A9B6B86EEA76ADFED3E5A8D
:102A6800C3F3080306EE903AB7EE005AF8EEE66AAA
:102A780076EE856AE7EE256A66EE266A344AB7EE90
:102A8800006A936BC3F3462307EE103AB8EEC77A91
:102A980070BC37EE067AC6EE877AFCEEE77AC0EDB0
:102AA800007A936BC3F3064307EE103AB8EEC77A81
:102AB80037EE067AC6EE877AFCEEE77AC0ED017A41
:102AC800936BC3F3066307EE903AF8EEE77A77EE76
:102AD800867A86EEA77ABCEEC77A80ED027A7047CE
:102AE80070BCC0E90022826070471968890627D542
:102AF800196807EE902A194AF7EE004AC1F3C10196
:102B0800F8EEE77A9B6BCA409FED135AC3F30803AC
:102B180006EE102A06EE903AF8EEC65AF8EEE66A85
:102B280085EEA76A76EEA46AE7EE056A66EE266A7F
:102B3800A4E707EE902ADFED0A6AF8EEE77A8AE75B
:102B480007EE902ADFED076AF8EEE77A83E700BF21
:102B5800004402580024744A000000390090D00351
:102B68000024F44A0024744C4F4B70B4996A9D6A4F
:102B7800DC6A15F07C7FC5F305525E6C5CD0C6F349
:102B8800CC06C4F3002401F0030104FB06F4012978
:102B980007EE904AB8EEE77A03D0022975D00029EB
:102BA8004FD007EE902ADFED416AF8EEE77A1B6C0A
:102BB80086EEA76ADFED3E5AC3F3080306EE903AA5
:102BC800B7EE005AF8EEE66A76EE856AE7EE256A11
:102BD80066EE266A344AB7EE006A136CC3F34623DE
:102BE80007EE103AB8EEC77A70BC37EE067AC6EE32
:102BF800877AFCEEE77AC0ED007A136CC3F30643DC
:102C080007EE103AB8EEC77A37EE067AC6EE877A3C
:102C1800FCEEE77AC0ED017A136CC3F3066307EEA6
:102C2800903AF8EEE77A77EE867A86EEA77ABCEEE7
:102C3800C77A80ED027A704770BCC0E900228260D2
:102C480070471968890627D5196807EE902A194A26
:102C5800F7EE004AC1F3C101F8EEE77A1B6CCA40EF
:102C68009FED135AC3F3080306EE102A06EE903AB6
:102C7800F8EEC65AF8EEE66A85EEA76A76EEA46A1A
:102C8800E7EE056A66EE266AA4E707EE902ADFED0E
:102C98000A6AF8EEE77A8AE707EE902ADFED076A14
:102CA800F8EEE77A83E700BF004402580024744A2C
:102CB800000000390090D0030024F44A0024744C2A
:102CC8004F4B70B4996A9D6ADC6A15F47C7FC5F332
:102CD80005125E6B5CD0C6F3CC0604F0010401F06B
:102CE800030104FB06F4012907EE904AB8EEE77ADF
:102CF8007ED0022975D000294FD007EE902ADFED4B
:102D0800416AF8EEE77A1B6B86EEA76ADFED3E5A5A
:102D1800C3F3080306EE903AB7EE005AF8EEE66AF7
:102D280076EE856AE7EE256A66EE266A344AB7EEDD
:102D3800006A136BC3F3462307EE103AB8EEC77A5E
:102D480070BC37EE067AC6EE877AFCEEE77AC0EDFD
:102D5800007A136BC3F3064307EE103AB8EEC77A4E
:102D680037EE067AC6EE877AFCEEE77AC0ED017A8E
:102D7800136BC3F3066307EE903AF8EEE77A77EE43
:102D8800867A86EEA77ABCEEC77A80ED027A70471B
:102D980070BCC0E900228260704719688906ACD50A
:102DA800196807EE902A194AF7EE004AC1F3C101E3
:102DB800F8EEE77A1B6BCA409FED135AC3F308037A
:102DC80006EE102A06EE903AF8EEC65AF8EEE66AD3
:102DD80085EEA76A76EEA46AE7EE056A66EE266ACD
:102DE800A4E707EE902ADFED0A6AF8EEE77A8AE7A9
:102DF80007EE902ADFED076AF8EEE77A83E700BF6F
:102E0800004402580024744C000000390090D0039C
:102E18000024F44A0024744AB0F5807F00B585B0D8
:102E280077D0B0F5007F2ED0B0F5806F00F0CF805E
:102E3800B0F5006F00F08080B0F5805F5AD0B0F533
:102E4800002F00F00581B0F5803F00F01081B0F54B
:102E5800804F00F0E280B0F5004F3AD1A94B1B6DCE
:102E680003F04053B3F1805F00F08E80B3F1005F50
:102E780000F02E816BBBA34AA34B106810F40030FE
:102E880018BF184642E09F4A136D03F4E073802B85
:102E980000F0988021D9C02B37D0B3F5807F18D1A6
:102EA800D36C116803F04053490702D5002B00F09A
:102EB800AE80944A1268D00503D5B3F1805F00F064
:102EC800FB80904A1268910303D5B3F1005F00F0CC
:102ED800BD80002005B05DF804FB002B4BD0402BD3
:102EE800F7D1106810F0006010D001A8FFF790FD2E
:102EF80001980BE0834A136D03F4E043B3F5005FD8
:102F080060D036D9B3F5405F78D1804805B05DF818
:102F180004FB7C4B1B6D03F00703042BD9D801A2DB
:102F280052F823F0912F0008B52F0008A12F0008B0
:102F3800132F00089D2F0008724A936D03F0E06379
:102F4800B3F1007F3ED037D9B3F1407FDDD0B3F184
:102F5800806FBED1D36C126803F040535207A8D5D6
:102F6800002BA6D1674B6A481B68C3F3C103D8403E
:102F7800CCE7002B46D1106810F00070C6D001A82D
:102F8800FFF79EFE0298C1E75E4B186810F00070CC
:102F9800BCD0F4E75B4A83E75A4B186810F000503E
:102FA800B4D001A8FFF7E0FD0198AFE7554B1868CA
:102FB80010F00060AAD098E7002BDCD0B3F1807F36
:102FC8008FD086E7106810F000509FD0E9E74D4A8F
:102FD800936D03F46003B3F5800FF3D006D8002B8C
:102FE800C9D0B3F5001F3FF47CAF72E7B3F5C00F4B
:102FF8008BD0B3F5000F3FF453AF6AE7B3F5804FBA
:10300800A8D066E7B3F5805F3FF46BAF61E713685C
:103018003F48C3F3C103D84078E73A4A936D03F0B9
:10302800E043B3F1405F66D02FD8B3F1805F4FD053
:10303800B3F1005F31D1334B186810F000503FF402
:1030480065AF01A8FFF790FD02985FE72E485DE79E
:103058002C4A936D03F44033B3F5803F2ED0B3F57B
:10306800003F3FF477AF002B7FF433AF39E7254BB0
:10307800DA6CD20389D5186810F000603FF446AFC7
:1030880001A8FFF7C5FC039840E7B3F1804F2AD0A9
:10309800B3F1A04F3FF4EFAE1BE7002B7FF419AF5D
:1030A800FEF728FE174B1B4A1B6AC3F30213D35CB7
:1030B80003F01F03D84029E7174827E7106810F0E6
:1030C80000503FF423AF01A8FFF74EFD03981DE71A
:1030D8000C4B186810F000603FF418AF01A8FFF718
:1030E80097FC029812E7074A0B4B106810F480709F
:1030F80018BF18460AE7106810F004003FF406AF3E
:1031080030E700BF0044025800127A000080BB007C
:103118000090D0035C4C000800093D00002800F036
:10312800AD8001680022584B99422DE9F0410446D0
:10313800826217D0A3F57843994213D003F58063D0
:10314800C768994200F092800F2F08D8C66B07F124
:1031580008037209DB0802FB0333082B16D9012088
:10316800BDE8F081E768E66B07F108034648474A7F
:103178007509DB08914218BF814205FB033303D070
:1031880002F58062914201D1102BE8D894F8813081
:1031980003F0FF02002B5FD000250222A3696068BC
:1031A80084F88120B3F1806F0A68D4F838C022F01F
:1031B80001020A6043D0626B3543666A1A43E369C9
:1031C800D4F82080324326691D4363693243A66CD4
:1031D8003D43E76C13438D6043EA0802A56D42EA5C
:1031E8000703A268134333432B43034343EA0C0307
:1031F800CB60B8B98B6823F4C05343F400638B6089
:103208008B6823F4C06343F480638B600B6D23F0F9
:1032180001030B6500200123C4F8840084F8813081
:10322800BDE8F0810B6D23F001030B654302F1D576
:10323800CB68626D23F000431343CB60EAE7B0F537
:10324800800F1DD00028B6D1BCF1805FB3D10A68C9
:1032580042F480520A60AEE7204684F8802001F0EC
:10326800F5FA2168A56AE66BE76896E7C66B07F189
:1032780008037209DB0802FB033385E70120704766
:10328800BCF1000FE3D096E7003001400038004061
:10329800026AD1F808C022F00102F0B40D68194F93
:1032A8000262194E036A4468B042826923F002033D
:1032B80007EA020743EA0C0345EA07050ED0134A5A
:1032C80090420BD006F5804602F58042904218BF26
:1032D800B04203D002F5806290420BD1CA6823F055
:1032E80008038E6924F4407413434A69324323F077
:1032F800040314434A684460856142630362F0BC76
:10330800704700BF8CFFFEFF000001400004014031
:10331800F0B4046AD1F808C024F480740F68194E18
:103328000462036AB0424568C26923F4007322F05C
:10333800730243EA0C2342EA07020DD0124CA04262
:103348000AD0124E124CA04218BFB0420BD004F55E
:103358008064A0420ED106E023F40063CC6843EAFF
:10336800042323F480634C6925F440558E69344363
:1033780045EA041549684560C261C1630362F0BC4F
:10338800704700BF000001400004014000400140B8
:1033980000440140002800F09C80F8B590F83D30CA
:1033A800044603F0FF02002B75D0226802234A4925
:1033B800B2F1804F84F83D30A2EB01011368B1FAF5
:1033C80081F14FEA511126D029BB4448824222D0CC
:1033D80000F5806082421ED0414F424DD71BAA4261
:1033E800B7FA87F74FEA57175AD0002F58D13E48F7
:1033F8003E498A4218BF82425DD001F580618A4207
:1034080059D0A16923F08003E0680B436168136019
:10341800D062916223E0324F23F07003A568D71B76
:103428002B43B7FA87F77F09206923F44073A5690E
:103438000343E668606823F080032B431360D66279
:10344800906251B94FB92849284B9A4218BF8A420D
:1034580003D003F580639A4201D1636913630123A2
:103468000020536184F8483084F83E3084F83F30B7
:1034780084F8403084F8413084F8423084F843308E
:1034880084F8443084F8453084F8463084F847306E
:1034980084F83D30F8BD80F83C2001F057FB84E704
:1034A800104823F07003A568824243EA0503BBD0A5
:1034B800002FB9D19BE7216923F44073A5690B4319
:1034C800E068616823F080032B431360D062916247
:1034D800B9E70120704700BF000001400004004028
:1034E80000040140000C004000400140004401403D
:1034F80090F83D30012B3CD10268234B2349B2F1AF
:10350800804F18BF9A4230B40CBF01230023204CCF
:103518000225A24208BF43F0010304F5006480F8C5
:103528003D508A4208BF43F001031A48D168A242BD
:1035380008BF43F0010341F00101824208BF43F094
:103548000103D16033B9A0F56C40101AB0FA80F0CD
:10355800400998B19168104B0B40062B0BD0B3F57E
:10356800803F08D01368002043F00103136030BC8B
:10357800704701207047002030BC7047136843F043
:1035880001031360F3E700BF00000140000800409A
:10359800000400400004014007000100704700BF1C
:1035A800002800F09C80F8B590F83D30044603F000
:1035B800FF02002B75D0226802234A49B2F1804FDE
:1035C80084F83D30A2EB01011368B1FA81F14FEAAA
:1035D800511126D029BB4448824222D000F5806090
:1035E80082421ED0414F424DD71BAA42B7FA87F7F5
:1035F8004FEA57175AD0002F58D13E483E498A42C1
:1036080018BF82425DD001F580618A4259D0A16914
:1036180023F08003E0680B4361681360D062916215
:1036280023E0324F23F07003A568D71B2B43B7FA6A
:1036380087F77F09206923F44073A5690343E66887
:10364800606823F080032B431360D662906251B9FF
:103658004FB92849284B9A4218BF8A4203D003F52C
:1036680080639A4201D16369136301230020536187
:1036780084F8483084F83E3084F83F3084F840308D
:1036880084F8413084F8423084F8433084F8443078
:1036980084F8453084F8463084F8473084F83D3063
:1036A800F8BD80F83C20FFF779FF84E7104823F045
:1036B8007003A568824243EA0503BBD0002FB9D145
:1036C8009BE7216923F44073A5690B43E0686168AF
:1036D80023F080032B431360D0629162B9E7012085
:1036E800704700BF00000140000400400004014092
:1036F800000C0040004001400044014090F83C307C
:10370800012B7DD0024602230068F0B4012482F820
:103718003D3082F83C40544C85680B682C40602B47
:1037280084606FD01DD9B3F5005F59D042D94F4995
:103738008B4206D038D94E498B4202D010318B4289
:1037480006D184684B4921400B4343F0070383604B
:1037580000230121184682F83D1082F83C30F0BC65
:103768007047402B67D019D9502BF1D1036A056AED
:103778004C6823F00A0325F00105CE681C433D4B35
:103788000562816921F0F00141EA06118161046254
:1037980081680B4043F057038360D9E7202BD0D0D2
:1037A8001AD9302BD4D1CCE723F01001B1F5801F02
:1037B800CED1C6E7702BCBD1CC68D1E90153816853
:1037C8002B4321F47F4143EA04230B43836083683E
:1037D80043F077038360BBE733F01001B8D1B0E75B
:1037E800D1E90153CC682B43816843EA042321F4CF
:1037F8007F410B438360836843F480438360A7E77A
:1038080002207047056A4E6825F01005CF68194BED
:1038180005628469016A24F4704421F0A00144EA35
:10382800073441EA06118461016281680B4043F064
:10383800670383608CE7036A056A4C6823F00A0310
:1038480025F00105CE681C430A4B0562816921F009
:10385800F00141EA06118161046281680B4043F07E
:103868004703836074E700BF8800CEFF2000100084
:10387800300010008FFFCFFF704700BF704700BFB8
:10388800704700BF704700BF03681A69910710B5F9
:10389800044602D5DA68920768D41A69520702D535
:1038A800DA6850074FD41A69110702D5DA68120787
:1038B80037D41A69D00602D5DA68D1061ED41A6937
:1038C800D20702D5DA68D00769D41A69110602D579
:1038D800DA6812066BD41A69D00502D5DA681106BF
:1038E8006DD41A69520602D5DA6850066FD41A697F
:1038F800910602D5DA68920649D410BD6FF010011E
:103908000822204619612277DB6913F4407F6FD1C2
:10391800FFF7B2FF2046FFF7B3FF002223682277A4
:10392800CDE76FF008010422204619612277DB6990
:103938009B075AD1FFF7A0FF2046FFF7A1FF0022FF
:1039480023682277B5E76FF0040102222046196147
:1039580022779B6913F4407F44D1FFF78DFF2046FF
:10396800FFF78EFF0022236822779CE76FF00201A1
:103978000122196102779B69990730D1FFF77CFF13
:103988002046FFF77DFF00222368227785E76FF046
:10399800200220461A61BDE8104000F0EBB96FF034
:1039A800010220461A6100F0D3FC23688DE76FF00E
:1039B800800220461A6100F0DFF923688BE76FF474
:1039C800807220461A6100F0D9F9236889E76FF000
:1039D800400220461A61FFF755FF236887E7FFF783
:1039E8004DFFD0E7FFF74AFFBCE7FFF747FFA6E721
:1039F800FFF744FF91E700BFF0B4046AD1F808C0AC
:103A080024F010040A68194F0462194E036A4568C5
:103A1800B042846923F0200307EA040743EA0C1341
:103A280047EA02220DD0134CA0420AD0124E134C82
:103A3800A04218BFB0420BD004F58064A0420ED15A
:103A480006E023F08003CC6843EA041323F0400324
:103A58004C6925F440658E69344345EA8405496814
:103A68004560826181630362F0BC7047FF8CFFFE92
:103A780000000140000401400040014000440140B2
:103A8800F8B590F83C30012B00F01A810123044668
:103A98000D4680F83C30142A52D8DFE812F0950021
:103AA800510051005100A900510051005100BE00C1
:103AB8005100510051001500510051005100D20031
:103AC80051005100510055000368D1F808C0186A28
:103AD8000F6820F480507B4E1862B3421A6A586807
:103AE800D96922F4005221F4E64142EA0C3241EA53
:103AF80007210ED006F58066B3420AD0724F06F54C
:103B08008046B34218BFBB4203D006F58066B34275
:103B180004D120F480406E6940EA86106E685860CF
:103B2800D9611E641A62D969286941F40061D961B2
:103B3800D96921F48061D961DA6942EA0022DA613F
:103B4800002084F83C00F8BD0368D1F808C0186A62
:103B58000F6820F480105B4E1862B3421A6A5868E6
:103B6800596D22F4001221F4E04142EA0C5241EA74
:103B780007210ED006F58066B3420AD0524F06F5EB
:103B88008046B34218BFBB4203D006F58066B342F5
:103B980004D120F400306E6940EA86206E685860CF
:103BA8005965DE651A62596D286941F400615965E5
:103BB800596D21F4806159655A6D42EA002200204E
:103BC8005A6584F83C00BEE70068FFF761FB23688C
:103BD8000869996941F008019961996921F004011E
:103BE80099619A69024300209A6184F83C00AAE727
:103BF8000068FFF701FF23682869996941F40061AB
:103C08009961996921F4806199619A6942EA00226F
:103C180000209A6184F83C0095E70068FFF778FB7C
:103C280023682869D96941F00801D961D96921F067
:103C38000401D961DA6902430020DA6184F83C00A2
:103C480081E70368D1F808C0186A0F6820F480304B
:103C58001C4E1862B3421A6A5868596D22F4003231
:103C680021F0700142EA0C4241EA07010ED006F544
:103C78008066B3420AD0144F06F58046B34218BF97
:103C8800BB4203D006F58066B34204D120F48030ED
:103C98006E6940EA06206E68586059659E651A622A
:103CA800596D286941F008015965596D21F00401E1
:103CB80059655A6D024300205A6584F83C0042E772
:103CC8000220F8BD000001400040014090F83C305F
:103CD800012B42D0024602201368F0B4204D82F82E
:103CE8003D00AB4258689C6820D005F58065AB4222
:103CF8001CD01C4D20F070000E68AB4218BFB3F109
:103D0800804F194F40EA0600184E0CBF01250025C8
:103D18005860BB4208BF45F00105B34208BF45F0F3
:103D2800010565B91248834209D00DE0D1E9005672
:103D380020F47000304320F07000284358608968F0
:103D480024F080040C439C6000230121184682F86B
:103D58003D1082F83C30F0BC70470220704700BF2D
:103D6800000001400004004000080040000C004032
:103D780000180040704700BF704700BF704700BF81
:103D880027484FF48071274B0122F0B54FF4802566
:103D98008DB0042403600023818245600461826140
:103DA800836001930493C3600377436380F83830DA
:103DB800C0E90933C0E90B33CDE90233CDE9053356
:103DC800CDE90733CDE90933FCF756FEE8B90023FE
:103DD80001A913480193FCF75BFFE8B90020124ED4
:103DE8000627002440F2FF75042200238DF82900DD
:103DF80004A90B48CDE90467CDE90645CDE90823B8
:103E0800FCF7F0FA20B90DB0F0BD00F0BBFCDEE71E
:103E180000F0B8FC0DB0F0BD00F0B4FCDEE700BF68
:103E280070010024002002400400600800231F489D
:103E380004210122F0B54FF4802489B01C4D8382FF
:103E48000161826183600093C3600377436380F8F4
:103E58003830C0E90054C0E90933C0E90B33CDE973
:103E68000133CDE90333CDE90533FCF705FEB0B9DD
:103E78000020104E0627002440F2FF75042200237C
:103E88008DF8190069460948CDE90067CDE9024572
:103E9800CDE90423FCF7A6FA20B909B0F0BD00F07B
:103EA80071FCE5E700F06EFC09B0F0BDD401002418
:103EB80000600258020030042B490023026870B5E4
:103EC8008A428AB0CDE90433CDE90633089304D099
:103ED800264B9A4226D00AB070BD254A04A9254827
:103EE8004FF40064D2F8D860032546F02006C2F8E3
:103EF800D860D2F8D86006F020060096009ED2F866
:103F0800E06046F02006C2F8E060D2F8E0200693B0
:103F180002F020020192019BCDE90445FDF754F817
:103F28000AB070BDA3F5E0534FF00061D3F8E0206C
:103F3800084642F08072C3F8E020D3F8E02002F08F
:103F480080720292029AD3F8E02042F00402C3F889
:103F5800E020D3F8E03003F004030393039BFCF75D
:103F680037FA0AB070BD00BF002002400060025856
:103F78000044025800140258F0B58BB024220021E6
:103F8800684600F053FE1348134B0360FCF75CFFD0
:103F9800B0B9002200260A270024012569460D48E9
:103FA8000492CDE90067CDE90245FCF763FF70B9DB
:103FB800694610220748FCF75DFF20B90BB0F0BD39
:103FC80000F0E0FBE5E700F0DDFB0BB0F0BD00F032
:103FD800D9FBEDE71803002400740040184A0023B9
:103FE800016870B5914288B0CDE90233CDE9043358
:103FF800069301D008B070BD124A02A912483024B5
:10400800D2F8E860032546F00056C2F8E860D2F816
:10401800E86006F000560096009ED2F8E06046F090
:104028000106C2F8E060D2F8E020049302F0010231
:104038000192019BCDE90245FCF7C6FF08B070BDAF
:104048000074004000440258000002582DE9F04F67
:10405800844B8FB000240221834D4FF0020A09944B
:104068002246089428460C944FF0030B7F4F4FF0DC
:1040780000084FF00009CDE90A44D3F8E06046F0A3
:104088001006C3F8E060D3F8E06006F0100C784E34
:10409800CDF800C0DDF800C0D3F8E0C04CF0040C47
:1040A800C3F8E0C0D3F8E0C00CF0040CCDF804C0AD
:1040B800DDF804C0D3F8E0C04CF0200CC3F8E0C031
:1040C800D3F8E0C00CF0200CCDF808C0DDF808C02B
:1040D800D3F8E0C04CF0800CC3F8E0C0D3F8E0C0DF
:1040E8000CF0800CCDF80CC0DDF80CC0D3F8E0C0A3
:1040F8004CF0010CC3F8E0C0D3F8E0C00CF0010CA0
:10410800CDF810C0DDF810C0D3F8E0C04CEA010CBF
:10411800C3F8E0C0D3F8E0C00CEA010CCDF814C035
:10412800DDF814C0D3F8E0C04CF0400CC3F8E0C090
:10413800D3F8E0C00CF0400CCDF818C0DDF818C07A
:10414800D3F8E0C04CF0080CC3F8E0C0D3F8E03076
:1041580003F008030793079BFDF754F822463846F7
:104168000121FDF74FF8304601224FF48061FDF739
:1041780049F8284601221021FDF744F84AF6FF3293
:10418800032308A930460A94CDE90823FCF71CFF4D
:104198004FF6F772032308A936480A94CDE9082395
:1041A800FCF712FF4FF2FF72032308A932480A9462
:1041B800CDE90823FCF708FF49F6CE72032308A9C6
:1041C8002E480A94CDE90823FCF7FEFE4FF6C57287
:1041D800032308A928460A94CDE90823FCF7F4FE2E
:1041E8000222012308A92846CDE90823CDE90AAB14
:1041F800FCF7EAFE0122012308A93846CDE9082385
:10420800CDE90A89FCF7E0FE4FF6FE720323384633
:1042180008A90A940127CDE90823FCF7D5FE4FF435
:1042280080620123304608A91026CDE90823CDE98C
:104238000A89FCF7C9FE4FF6FF72032308A9104844
:104248000A94CDE90823FCF7BFFE0022022308A93F
:104258002846CDE90867CDE90A23FCF7B5FE0FB07B
:10426800BDE8F08F004402580004025800180258B4
:1042780000100258000802580014025800000258A2
:10428800000C025800000000F0B40024204D002269
:10429800204B01211CA7D7E90067C0E90845002485
:1042A8001D4D8163C0F88810C0E90067C0E90A2382
:1042B800002600220023194FC0E910450024184D9C
:1042C800C0E90267C0E92467C0E91E45C0E9264580
:1042D800C0E90423F0BCC0E90623C0E90C23C0E907
:1042E8001423C0E91823C0E91A23C0E91C23C0E934
:1042F8001623C0E92023C0E92C23C0E92823C0E9FC
:104308002A23C0E912237047F168E388B5F8D43E40
:1043180000000840000008C0000024400000F03FF2
:104328000000F0BF01221021064808B5FCF76AFF1B
:10433800054B1A6842F001021A601A6842F40072CA
:104348001A6008BD00040258003001400000000057
:10435800F8B501218048814E2DED028BFCF756FF00
:104368007F4B80494FF480105C687F4A7F4B0C601C
:104378001B68318890617E4A19805369D904FCD53D
:10438800794B10227B4D9A617B4A2868744B1060E8
:104398007A495A687A4B0A601F68194647F0040739
:1043A8001F609F6847F004079F600B685B07FCD598
:1043B8000B6C744F07EE903A73493B60B8EE676A2E
:1043C800724F0978664BB7EEC66A00295968704B78
:1043D800DFF8D4C11B689FED585B97ED007B93ED28
:1043E8001E2B26EE056B6B4F3960D3F8887093ED62
:1043F8002C5B07FE067BB7EEC77B002FB7EEC77AAC
:104408008CED006B35EE477B27EE022B83ED182BE6
:1044180040F38580B7EE000B93ED286B93ED1C8B72
:1044280093ED267B93ED1A1B26EE088B93ED203B2C
:1044380093ED2A4BA7EE018B93ED165B93ED247B4E
:1044480093ED126B38EE033BA4EE053B93ED005B56
:10445800A6EE050BA2EE073B83EE004B93ED083B5F
:1044680083ED204BB4EEC34BF1EE10FA03DC93ED71
:104478000A3B84FE033BDFF834C133EE444B141B84
:104488008A1ADFF82CE107EE904A07EE102A344A20
:10449800B8EE676B404FB8EE477B9FED290B83ED75
:1044A8002E3B9CED2E3B83ED164B9FED275B23EEB9
:1044B800004BDFF800C126EE053BBCEEC44B27EEEF
:1044C800057B14EE104A34805468344E611ACEF8D5
:1044D8000040526806EE101A314C101A3149B8EEF5
:1044E800466B2A608CED007B26EE056BBDEC028BDB
:1044F80036EE077B86ED003B37EE037B87ED006BDE
:1045080084ED007B07EE100AB8EE477B83ED1C1B99
:1045180027EE057B83ED1A2B81ED007BF8BD9FED1F
:104528000C7BB0EE472BB0EE471BB0EE474B83ED4C
:10453800187B93E7AFF300806666666666660A3F97
:10454800000000000065D3407B14AE47E17A643F69
:104558000000000000000000001802585C0300245E
:10456800001000E068000024000402581000002435
:104578000030014064000024600000246C00002426
:10458800002002407800002408000024480000248D
:104598000C0000243C000024580000247000002473
:1045A80070030024800000248800002438020024BE
:1045B8005000002440000024F0B59FB04C22002198
:1045C8000AA800F033FB2022002102A800F02EFBED
:1045D8000220FCF725FE2A4A00230193D16A294BC1
:1045E80021F001011846D162D26A02F0010201925B
:1045F8009A6942F440429A619B6903F440430193EB
:10460800019B83699B04FCD51F4A02244FF0010CCF
:104618006425936A0C2101264FF4803723F00303A5
:104628000AA823439362002319941C93CDE91344E9
:10463800CDE91744CDE915C5CDE91A13CDE90A67C7
:10464800FCF798FE08B172B6FEE7002208233F2661
:10465800032721464025402402A8CDE904234FF42E
:1046680080624023CDE90267CDE90645CDE90823FC
:10467800FDF716FA08B172B6FEE71FB0F0BD00BF2D
:1046880000040058004802580044025870B5B0B001
:10469800B4220021022602A84FF4406500F0C6FAB1
:1046A80001230F49192203204FF4005401914FF4BC
:1046B80000310A930C934FF400430B924FF480326D
:1046C8000E9001A80D960F9529922F93CDE91841C8
:1046D800FDF748FC08B172B6FEE730B070BD00BF08
:1046E800003008400000000008B5FBF717FE1E4C1C
:1046F800FFF762FF0026FFF7C9FF1C4DFFF7A6FC76
:10470800FFF73AFCFFF73CFBFFF790FB00F0A0F93E
:1047180000F03AF800F068F8154840F2E733154918
:10472800C268E36042F08072C2600A68124842F0D0
:10473800010200680A602268104996622B60D36201
:1047480007A3D3E90023C1E90023FFF79DFD0C4827
:10475800FCF778F8FFF7E6FD2046FEF7C9FEFEE70E
:1047680000000000006A0841A00400248803002417
:10477800F0ED00E0001000E00C00002478030024B5
:104788007001002472B6FEE738B515484FF480036F
:10479800144A4FF400350F244FF0806102604FF047
:1047A800805243600023C0E90254C0E90612C0E900
:1047B8000433C0E90833C0E90A33C0E90D33C0E95E
:1047C8000F33C0E91133C0E91333C0E91533FEF7DD
:1047D800A5FC00B938BDBDE83840FFF7D3BF00BF1E
:1047E800180400240030014038B516484FF4800200
:1047F80015494FF4003303254FF0007401604FF062
:10480800806142604FF0804283600023816142638F
:104818004361C3628365C0E90354C0E90733C0E953
:104828000933C0E90E33C0E91033C0E91233C0E9D7
:104838001433FEF773FC00B938BDBDE83840FFF704
:10484800A1BF00BF90030024003401403149002378
:104858000268F0B58A428BB0CDE90433CDE906335E
:10486800089304D02C4B9A422AD00BB0F0BD2B4BA6
:10487800052628240225D3F8F02004A92848032770
:1048880042F48052C3F8F020D3F8F02002F48052AA
:104898000092009AD3F8E02042F00202C3F8E02028
:1048A800D3F8E0300896002603F002030193019B39
:1048B800CDE90445CDE90667FCF786FB0BB0F0BDF2
:1048C800164B05264FF4A0440225D3F8F02004A97E
:1048D8001448032742F40052C3F8F020D3F8F0201C
:1048E80002F400520292029AD3F8E02042F0100239
:1048F800C3F8E020D3F8E0300896002603F0100350
:104908000393039BCDE90445CDE90667FCF75CFBFF
:104918000BB0F0BD003001400034014000440258A3
:104928000004025800100258074B82B0D3F8F42054
:1049380042F00202C3F8F420D3F8F43003F0020383
:104948000193019B02B0704700440258FEE700BF84
:10495800FEE700BFFEE700BFFEE700BFFEE700BFBF
:10496800704700BF704700BF704700BFFBF706BD28
:104978000148FEF789BF00BFA004002429492A4A3C
:10498800D1F8883043F4700310B4C1F88830136844
:1049980003F00F03062B05D8136823F00F0343F029
:1049A80007031360214B0024214A19681E4841F06F
:1049B800010119601C6119680A401A6003681B0725
:1049C80005D5036823F00F0343F007030360174B73
:1049D80000221849184C19489A61DA611A629C62D7
:1049E800D86219635A639963DA6319645A64186858
:1049F800134C20F48020134918601A662368194064
:104A0800B1F1005F02D2104B01221A600F4943F244
:104A1800D200044B4FF0006208605DF8044B9A60C6
:104A2800704700BF00ED00E000200052004402582B
:104A38007FEDF6EA80020101000202020000FF0198
:104A48000010005C0000FFFF088100510040005288
:104A5800F0B53B4C002397B04FF080414FF0FF3248
:104A680020462160E2606360049301930E93A36083
:104A78002361A3610793CDE90533CDE90233CDE97D
:104A88000F33CDE91133CDE91333FEF783FC60BB57
:104A98004FF4805304A92A480493FEF72FFE80BBE5
:104AA8002748FEF77DFD48BB2022002301A92448A2
:104AB80001920393FFF70AF9E8B90022602602275A
:104AC8000EA91F4810921292CDE90E67FEF7D8FF83
:104AD80070B922680023B2F1804F0C93CDE90833F6
:104AE800CDE90A3310D017B0F0BDFFF74BFECFE782
:104AF800FFF748FEEDE7FFF745FEDEE7FFF742FE6A
:104B0800D2E7FFF73FFECBE70E4B01260124022533
:104B1800D3F8E02008A90C4800273243C3F8E02066
:104B2800D3F8E0300C96334000260093009BCDE983
:104B38000845CDE90A67FCF747FA17B0F0BD00BF92
:104B4800A004002400440258000002580368B3F18E
:104B5800804F00D070470D4B00221C20114610B525
:104B6800D3F8E84082B044F00104C3F8E840D3F831
:104B7800E83003F001030193019BFCF705F91C20C1
:104B880002B0BDE81040FCF739B900BF0044025834
:104B9800DFF834D0FFF7F2FE0C480D490D4A002328
:104BA80002E0D458C4500433C4188C42F9D30A4ADA
:104BB8000A4C002301E013600432A242FBD300F048
:104BC80011F8FFF791FD7047000002200000002453
:104BD8001C000024744C000820000024EC0400246D
:104BE800FEE7000070B50D4D0D4C641BA4100026A7
:104BF800A64209D10B4D0C4C00F020F8641BA41000
:104C08000026A64205D170BD55F8043B98470136E9
:104C1800EEE755F8043B98470136F2E76C4C00087C
:104C28006C4C00086C4C0008704C000802440346A9
:104C3800934200D1704703F8011BF9E7F8B500BFAC
:104C4800F8BC08BC9E467047F8B500BFF8BC08BC65
:044C58009E467047BD
:104C5C000000000001020304010203040607080916
:044C6C00BD0200087D
:044C7000990200089D
:104C740001000000100000000100000038020024C0
:0C4C8400203001400090D0030090D003CD
:0400000508004B990B
:00000001FF
